:020000040800F2
:10000000283801207D0200084D120008170D000855
:10001000B1110008750B0008C719000800000000A6
:10002000000000000000000000000000C501000802
:10003000790B000800000000190200089D15000857
:10004000970200089702000897020008970200082C
:100050009702000897020008E10B000897020008C9
:10006000970200089702000897020008970200080C
:1000700097020008970200089702000897020008FC
:1000800097020008970200089702000897020008EC
:1000900097020008970200089702000897020008DC
:1000A00097020008970200089702000897020008CC
:1000B00097020008970200089702000897020008BC
:1000C00097020008970200089702000897020008AC
:1000D000970200080D180008970200089702000810
:1000E000970200089702000897020008970200088C
:1000F000970200089702000897020008970200087C
:10010000970200089702000897020008970200086B
:1001100097020008970200083916000897020008A5
:10012000970200089702000897020008970200084B
:10013000970200089702000897020008970200083B
:10014000970200089702000897020008970200082B
:10015000970200089702000897020008970200081B
:10016000970200089702000897020008970200080B
:1001700097020008970200089702000897020008FB
:1001800097020008970200089702000897020008EB
:1001900097020008970200089702000897020008DB
:1001A000970200089702000897020008DFF810D0B5
:1001B00000F0C6FB0048004779480008AFF3008014
:1001C000283801202A4B19680868B0E8F04F80F3FE
:1001D0000988BFF36F8F4FF0000080F311887047DC
:1001E0000000000006480068006880F3088862B6D6
:1001F00061B6BFF34F8FBFF36F8F00DF00BF00BF4B
:1002000008ED00E0DFF80C00016841F470010160C6
:10021000704700BF88ED00E0EFF30980BFF36F8FF8
:10022000134B1A681EF0100F08BF20ED108A20E94A
:10023000F04F106008B44FF0500080F31188BFF306
:100240004F8FBFF36F8F06F0A1FF4FF0000080F3D8
:10025000118808BC19680868B0E8F04F1EF0100F4C
:1002600008BFB0EC108A80F30988BFF36F8F704726
:1002700038010020EFF305807047000006488047F2
:1002800006480047FEE7FEE7FEE7FEE7FEE7FEE77B
:10029000FEE7FEE7FEE7FEE7D1150008AD01000826
:1002A00040EA01039B0703D009E008C9121F08C0F8
:1002B000042AFAD203E011F8013B00F8013B521E78
:1002C000F9D27047D2B201E000F8012B491EFBD2EF
:1002D00070470022F6E710B513460A460446194651
:1002E000FFF7F0FF204610BD30B50446002003465E
:1002F00000E05B1C934203D2E05CCD5C401BF8D075
:1003000030BD2DE9FE4F804681EA0300C00F0C4648
:10031000009021F0004123F00045B8EB0200A94114
:1003200005D24046214690461C460B46024623F025
:100330000040104347D0270DC7F30A00C3F30A510A
:100340000290401A019040286BDAC3F3130040F486
:10035000801B0098924620B10023D2EB030A63EB86
:100360000B0B01985946C0F14002504600F06CF961
:1003700006460D4650465946019A00F084F910EBA6
:1003800008006141002487EA115284EAE7731A43A6
:1003900040D0009A62B3019A012A4FEA075215DC55
:1003A000001B61EB02014FF0004202EA0752CDE967
:1003B0000042001C41F5801132462B4600F0BBF98B
:1003C00003B0BDE8F08F40462146F9E7001B61EB22
:1003D0000201001C41F5801300185B412018A2F5B2
:1003E000001747EB030140EAD570B6196D4111E0E3
:1003F0006D084FEA360645EAC0754FEA0752001B02
:1004000061EB0201001C41F5801149084FEA300000
:100410000019514132462B4603B0BDE8F04F00F0C1
:100420007BB90098012240000023D0EB020263EB6D
:10043000E073009821464FEAE074B8EB000061EBEE
:100440000401E9E783F000435BE781F0004158E7EE
:100450002DE9FE4F81EA030404F0004421F000413D
:1004600000944FF0000B23F0004350EA01045ED0EB
:1004700052EA03045BD0C3F30A54C1F30A552C4477
:10048000A4F2F3340194A0FB0254C1F3130141F42C
:100490008011C3F3130343F4801301FB024400FBF8
:1004A000034E840A970A44EA815447EA8357A4FB1F
:1004B000076802958D0A05FB07854FEA932C04FB1C
:1004C0000C542705029D4FEA065847EA1637B5EB4C
:1004D00008056EEB070C870E920E47EA811742EA79
:1004E0008312A7FB0201B6EB0B0164EB00042B0D9A
:1004F00043EA0C335E1844EB1C50DA465146E7FBE6
:100500000201C5F313044FEA0B3343EA14534FEAD5
:100510000432019C43EA0603A4F10C040294009CFB
:10052000CDE900B400F007F903B0BDE8F08F00207A
:100530000146F9E70EB5C10F80EAE0700844CA072A
:10054000002140F233438DE80E000A460B4600F0CE
:10055000F2F803B000BDC1F30A5210B5C1F31301A4
:1005600040F2FF3341F480119A4201DA002010BDBD
:1005700040F233439A42A2F2334203DC524200F08B
:1005800072F810BD904010BD00F0004230F0004005
:100590000AD0C10D01F56071C0F3160042EA0151A5
:1005A000C20840071143704700200146704701F020
:1005B000004330B421F0004150EA010206D00A0D98
:1005C000A2F56072C1F31301002A02DC30BC0020E6
:1005D0007047440F44EAC104C100E01830BC00EB8E
:1005E000C25000F062B82DE9F05F05460020924647
:1005F0009B4688460646814640241BE028464146E5
:100600004746224600F02FF853465A46C01A9141F9
:1006100010D311461846224600F016F82D1A67EB43
:1006200001084F4622460120002100F00DF817EB8B
:1006300000094E41201EA4F10104DFDC484631468A
:100640002A464346BDE8F09F202A04DB203A00FA00
:1006500002F1002070479140C2F1200320FA03F319
:10066000194390407047202A04DB203A21FA02F017
:100670000021704721FA02F3D040C2F120029140DC
:10068000084319467047202A06DBCB17203A41FA67
:1006900002F043EAE07306E041FA02F3D040C2F10F
:1006A000200291400843194670470029A8BF7047AF
:1006B000401C490008BF20F00100704710B4B0FA98
:1006C00080FC00FA0CF050EA010404BF10BC704733
:1006D00049B1CCF1200421FA04F411FA0CF118BF4D
:1006E000012121430843A3EB0C01CB1D4FEA00611C
:1006F0004FEA102042BF002010BC704700EBC350EF
:1007000010440029A4BF10BC7047401C490008BF1A
:1007100020F0010010BC704710B5141E73F10004E6
:1007200008DA401C41F1000192185B411A4301D1E3
:1007300020F0010010BD2DE9F04D92469B4611B10D
:10074000B1FA81F202E0B0FA80F220329046FFF76F
:100750007BFF04460F4640EA0A0041EA0B0153467C
:100760005A46084313D0114653EA010019D0C8F184
:1007700040025046FFF777FF05460E465046594661
:100780004246FFF761FF084305D0012004E0204600
:100790003946BDE8F08D0020054346EAE0762C435B
:1007A00037430A986305E40AA0EB08000022FD0A1B
:1007B00044EA47540A3002D500200146E9E7010522
:1007C00010196941DDE9084500196941BDE8F04D9E
:1007D000A2E72DE9F04D81EA030404F0004B21F07B
:1007E000004514464FF0000A23F0004150EA05028C
:1007F00020D054EA01021DD0C5F30A570246C5F3C2
:100800001303C1F31300C1F30A5640F4801543F4F7
:100810008013A7EB0608101BD64608F2FD3873EBD1
:10082000050002D308F1010801E092185B41B8F11C
:10083000000F03DA00200146BDE8F08D00204FF4E0
:100840008011064684460EE0171B73EB050705D39F
:10085000121B63EB050306434CEA010C49084FEAFF
:10086000300092185B4150EA0107EDD152EA0300D3
:1008700012D082EA040083EA0501084305D0101B68
:10088000AB4106D20122002306E000224FF00043D4
:1008900002E06FF0010253101AEB06004CEB085116
:1008A00010EB0A0041EB0B01BDE8F04DFFF734BF40
:1008B00070B521F0004303430CD0C1F30A55002466
:1008C000D5EB040564EB0403D617AD1AB34102DB84
:1008D0000020014670BD201841EB025170BD0000A0
:1008E00030B5041E71F1000404DB4FF000444042B7
:1008F00064EB0101141E73F1000405DB1C464FF08C
:100900000043524263EB04038B4208BF824230BD76
:1009100030B5041E71F1000404DB4FF00044404286
:1009200064EB0101141E73F1000405DB1C464FF05B
:100930000043524263EB0403994208BF904230BD2A
:10094000064C074D06E0E06840F0010394E807001C
:1009500098471034AC42F6D3FFF72CFCE08C00082B
:10096000008D00082DE9F04D00231A461B1A8A411C
:1009700003DB00200146BDE8F08DC1F30A52C1F34C
:10098000130141F480154FF0000BD10702D100187C
:100990006D41521E0027044640F2FF11384601EB1C
:1009A000620A3E468046024600204FF48011FFF75F
:1009B0005AFEC2197141BB1846EB0100B4EB030C9F
:1009C00075EB000C04D3E41A65EB000517460E46E0
:1009D000241908F101006D4180463428E3DDF9193E
:1009E00046EB0600091BA84103D24FF0FF32134625
:1009F00001E0002213461BEB070046EB0A51BDE85D
:100A0000F04DFFF789BE70B58D1810F8014B14F04A
:100A1000030201D110F8012B231106D110F8013B7C
:100A200003E010F8016B01F8016B521EF9D1ABB174
:100A300010F8012B04F00C048A1A0C2C03D0A2EB42
:100A400084129B1C08E010F8014BA2EB0422F8E78B
:100A500012F8014B01F8014B5B1EF9D5A942D4D322
:100A6000002070BD7FB5054606F0F8FB00F086F863
:100A7000002420A000F0AAFF0FE006F0EFFB012009
:100A800006F0D8F9601C84B20A2C03DD1DA000F02A
:100A90009DFF06E020A000F099FF04F099F80028DF
:100AA000EBD100BF1EA000F091FF06F0D7FB05F0D0
:100AB000DAFF20A000F08AFF0020039003A80321A2
:100AC00000234FF40062CDE9001020A1234806F076
:100AD00057FF0020029002A8022100238A02CDE9DC
:100AE00000101FA1224806F04BFF002006F0D0F9AD
:100AF0007FBD0000646D7020696E6974696E670A5D
:100B0000000000000A646D7020696E6974206572CF
:100B1000726F720A000000007265696E69740A00E3
:100B20000A646D7020696E69742073756363657300
:100B3000730A0000737364313330365F696E697411
:100B400020737563636573730A0000005461736BEF
:100B50005F4D505536303530000000002517000835
:100B60005461736B5F5353443133303600000000DF
:100B70005917000800BFFEE7704700001FB50121AC
:100B8000102000F0B1FB00200190029003902C2077
:100B9000ADF804000020ADF806000120029000200E
:100BA000ADF80C008DF80E0001A90C4800F078FD9E
:100BB00001221146094800F069FD0020009036200E
:100BC0008DF8000002208DF801008DF80200012050
:100BD0008DF80300684600F03BFB1FBD001000408D
:100BE00010B5012000F020F880B109A000F0EEFE61
:100BF0000948007808B9012000E000200649087083
:100C0000012004F01FFF012000F008F810BD0000D3
:100C100070726573730A00008C020020014908603D
:100C200070470000143C014001460020034A12684E
:100C30000A400AB1012000E000207047143C014046
:100C4000F0B50A4600210023002400BF3DE0012545
:100C500005FA01F3156805EA03049C4234D10568DE
:100C60004F000326BE40B543056015794E00B540E0
:100C70000668354305601579012D02D01579022DDE
:100C800016D185684F000326BE40B543856055796F
:100C90004E00B540866835438560456801268E4024
:100CA000B5434560456896798E40B6B23543456098
:100CB000C5684F000326BE40B543C560D5794E00D8
:100CC000B540C6683543C560491C1029BFD3F0BD87
:100CD000F0B5002300244D07ED0E02FA05F3CE1007
:100CE00000F1200555F826504E07F70E0F26BE409E
:100CF000B543CF1000F1200646F82750CE1000F182
:100D0000200555F8265045EA0304CE1000F12005D1
:100D100045F82640F0BD00BFFEE721B1028842F44D
:100D20008062028004E002884FF6FF331A4002809E
:100D3000704770B502460024002500230020958AE4
:100D4000138B1B0445EA030626F07F4404EA0106E0
:100D50008E4201D1012000E0002070BD21B1028847
:100D600042F00102028004E002884FF6FE731A404E
:100D70000280704710B504461348844209D101210E
:100D8000480500F0C1FA00214FF4001000F0BCFA51
:100D900018E00E48844209D10121880500F0B4FA18
:100DA00000214FF4800000F0AFFA0BE008488442C5
:100DB00008D10121C80500F0A7FA00214FF4000076
:100DC00000F0A2FA10BD000000540040005800409E
:100DD000005C004021B1028842F48072028004E08D
:100DE00002884FF6FF631A400280704721B10288E3
:100DF00042F40072028004E002884FF6FF531A406A
:100E0000028070470CB50246002000230193009336
:100E100000920B0F019321F07F41019B1BB1009BBE
:100E20001433009303E0090C009B18330093009BDC
:100E30001B680B400BB1012000E000200CBD00003E
:100E40002DE9FF4704460D460026B1460427DFF88A
:100E5000CC80A6884FF6C0700640684600F074FA51
:100E6000DDF808802E48B8FBF0F01FFA80F946EA5A
:100E70000906A68020884FF6FE71084020800026D3
:100E80002849286888420CD828684000B8FBF0F050
:100E900087B2042F00DA04273E4309F101002084C1
:100EA00027E0E8884BF6FF71884206D1286800EBFE
:100EB0004000B8FBF0F087B209E0286800EBC00101
:100EC00001EB0010B8FBF0F087B247F48047C7F39E
:100ED0000B0008B947F0010747F4004006434FF400
:100EE000967009FB00F04FF47A7190FBF1F0401C12
:100EF0002084A683208840F00100208026884FF6B9
:100F0000F5300640A8886989084306432680A889E9
:100F1000298908432081BDE8FF87000000127A007C
:100F200040420F00A08601000146088AC0B2704707
:100F300012B141F0010101E001F0FE0101827047B0
:100F40000182704700B587B00121022000F0BCF992
:100F50000121880500F0C8F92248FFF70BFF0020A7
:100F6000059006904FF44060059002208DF818001F
:100F700001208DF81A0003208DF8190001208DF84A
:100F80001B0005A91848FFF75BFE04220A2116483A
:100F9000FFF79EFE04220B211348FFF799FE002065
:100FA00001900290039004904FF48060ADF80E0021
:100FB0000001ADF810000D4801904BF6FF70ADF840
:100FC0000A000020ADF808000120ADF80C0001A9CE
:100FD0000448FFF735FF01210248FFF7BFFE07B0C5
:100FE00000BD00000058004000040240801A0600C6
:100FF0004CF6CC40014908607047000000300040CA
:101000004AF6AA20014908607047000000300040FD
:101010000149486070470000003000400149886085
:101020007047000000300040014908607047000030
:10103000003000402DE9F04104460F4615461E469B
:1010400000BF4FF400313248FFF7DCFE0128F8D032
:1010500001212F48FFF7BEFE00BF2E492C48FFF7A5
:1010600068FE0128F9D16006010E00222848FFF72A
:101070005FFF00BF28492648FFF75BFE0128F9D132
:1010800039462348FFF75CFF00BF2349891E2048EB
:10109000FFF74FFE0128F8D101211D48FFF79AFE06
:1010A00000BF1C491A48FFF744FE0128F9D1600629
:1010B000010E01221648FFF73BFF00BF1549491CEE
:1010C0001348FFF736FE0128F8D115E03DB900219D
:1010D0000F48FFF722FE01210D48FFF787FE00BFF2
:1010E0000C493F310A48FFF724FE0128F8D108488F
:1010F000FFF71AFF3070761C281EA5F10101CDB252
:10110000E4D101210248FFF708FE0020BDE8F0818C
:101110000058004001000300820007002DE9F04163
:101120000546884616461F4601211E48FFF752FE17
:1011300000BF1D491B48FFF7FCFD0128F9D16806D7
:10114000010E00221748FFF7F3FE00BF17491548AC
:10115000FFF7EFFD0128F9D141461248FFF7F0FEF5
:1011600000BF1249891E0F48FFF7E3FD0128F8D19F
:1011700000240DE0395D0B48FFF7E2FE00BF0B498C
:10118000891E0848FFF7D5FD0128F8D1601CC4B2BC
:10119000B442EFDB01210348FFF728FE0020BDE841
:1011A000F0810000005800400100030082000700A9
:1011B00000BFFEE710B586B004460121084600F0E6
:1011C00083F800200490059002208DF81400002080
:1011D0008DF816004FF4C060049000208DF81700C1
:1011E00002208DF8150004A91648FFF729FD0722F3
:1011F00009211448FFF76CFD07220A211148FFF767
:1012000067FD0121102000F08FF800200090019070
:10121000029003900094ADF80C000C20ADF80A0089
:101220000020ADF80800ADF80600ADF804006946EE
:10123000054800F055FB0121034800F00EFB06B005
:1012400010BD000000000240001001407047000087
:1012500070B5002100230F22C4781CB3174C2468FA
:1012600004F4E064C4F5E064C4F30721C1F10404AC
:10127000E3B20A4144789C40E1B2847814402143AF
:101280000C07210E0E4C05786155047804F01F05FB
:101290000124AC4005786D11AD0005F1E025C5F8DD
:1012A000004109E0047804F01F050124AC40054D1D
:1012B0000678761145F8264070BD00000CED00E080
:1012C00000E400E080E100E029B1064A1268024330
:1012D000044B1A6004E0034A12688243014B1A600F
:1012E000704700003038024029B1064A12680243B4
:1012F000044B1A6004E0034A12688243014B1A60EF
:10130000704700004038024029B1064A1268024383
:10131000044B1A6004E0034A12688243014B1A60CE
:10132000704700002038024029B1064A1268024383
:10133000044B1A6004E0034A12688243014B1A60AE
:101340007047000044380240F0B50021002200241C
:10135000022500260223324F3F6807F00C0121B11D
:10136000042905D0082937D105E02E4F076036E063
:101370002D4F076033E02A4F3F1F3F68C7F3805669
:10138000274F3F1F3F6807F03F036EB1264FB7FB63
:10139000F3F7DFF88CC0ACF1040CDCF800C0CCF340
:1013A000881C07FB0CF40CE01E4FB7FBF3F7DFF8CB
:1013B00070C0ACF1040CDCF800C0CCF3881C07FB57
:1013C0000CF4174F3F1F3F68C7F301477F1C7D0098
:1013D000B4FBF5F7076002E0124F076000BF00BFE3
:1013E0000F4F3F6807F0F0010909104F7A5C07685A
:1013F000D74047600A4F3F6807F4E051890A0B4F16
:101400007A5C4768D7408760054F3F6807F46041C2
:10141000490B064F7A5C4768D740C760F0BD0000B3
:10142000083802400024F40040787D0100000020CC
:1014300010B501460022002300204A11012A02D1E2
:101440000A4C236808E0022A03D1084C7034236850
:1014500002E0064C7434236801F01F02012494401A
:101460001C400CB1012000E0002010BD00380240FB
:101470000149086070470000800E47420CB500200B
:10148000019000904148006840F480303F49086076
:1014900000BF3E48006800F4003000900198401CF6
:1014A0000190009818B90198B0F5A04FF1D13748D4
:1014B000006800F4003010B10120009001E000202D
:1014C00000900098012860D130484030006840F01A
:1014D00080502E49403108602D48006840F440405B
:1014E0002B490860294808300068284908310860FD
:1014F0000846006840F4004008600846006840F470
:10150000A05008602348091F0860081F006840F0C9
:101510008070091F086000BF1C48006800F0007060
:101520000028F9D01A48006840F480301849086053
:1015300000BF1748406800F480300028F9D01448F4
:10154000006840F400301249086000BF104840684D
:1015500000F400300028F9D040F205700E49086010
:101560000A480830006820F0030008490831086084
:101570000846006840F00200086000BF03480830D9
:10158000006800F00C000828F8D10CBD00380240BB
:1015900000700040195A4007003C024010B500BFDF
:1015A000502080F31188BFF34F8FBFF36F8F00BFC0
:1015B00006F02CFA18B14FF080500449086000BFC3
:1015C000002080F3118800BF10BD000004ED00E092
:1015D00010B51548006840F47000134908601348BE
:1015E000006840F001001149086000200F490831EF
:1015F00008600E4800680E4908400C4908600D4814
:10160000091D0860081F006820F48020091F086079
:10161000002006490C310860FFF730FF4FF00060F2
:1016200001498039086010BD88ED00E000380240B3
:10163000FFFFF6FE1030002410B50121074800F02E
:1016400014F8012808D106480068401E04490860C3
:101650000121024800F006F810BD00000010004013
:1016600028000020CA430282704730B5024600209D
:1016700000230024158A05EA0103958905EA01047F
:1016800013B10CB1012000E0002030BD1AB18389F4
:101690000B43838102E083898B4383817047000081
:1016A00000220288184B98420ED0184B98420BD05B
:1016B000B0F1804F08D0164B984205D0154B984298
:1016C00002D0154B984204D14FF68F731A404B88C5
:1016D0001A43124B984207D0114B984204D04FF650
:1016E000FF431A400B891A4302804B68C3620B8880
:1016F0000385054B984202D0044B984201D18B7A66
:1017000003860123838270470000014000040140EA
:101710000004004000080040000C004000100040A1
:101720000014004005F09AFD06A000F04FF907E014
:1017300005F094FD074803F0CFF8012005F07AFB8F
:10174000F6E700005461736B5F4D5055363035300D
:101750000A000000003401201CB525A000F036F975
:10176000642005F067FB05F009FD202024491023C3
:101770001A46CDE900101821382004F0D1F906F0FE
:1017800099FA34E005F0FAFC1E48007810B31E48C0
:1017900090ED000ABDEEC00A10EE104A002C01DBED
:1017A000214600E0614208460222322102F01CFA82
:1017B000154890ED010ABDEEC00A10EE104A002C4B
:1017C00001DB214600E06142084602225A2102F074
:1017D0000BFA0AE00C4890ED011AF0EE410A90ED88
:1017E000001AB0EE410A02F03BF906F063FAC9E7CD
:1017F0005461736B5F535344313330360A00000039
:10180000CC0100208C0200200034012010B540F2F1
:101810002551084800F03AF8012809D1054800F0A0
:10182000C9F80549088040F22551024800F006F841
:1018300010BD0000001001402400002010B500225F
:10184000002340F66A14A14200D100BF0A1201240D
:101850009440A3B2DC43048010BD21B1828942F4DC
:101860000052828104E082894DF6FF731A40828122
:10187000704702460020B1F5007F00D100BF1388F9
:101880000B400BB1012000E00020704770B502460C
:10189000002400230025002040F66A16B14200D142
:1018A00000BFC1F3421501F01F03012606FA03F33E
:1018B000012D02D19689334006E0022D02D1168A0D
:1018C000334001E0968A33400C12012606FA04F4F4
:1018D0001688344013B10CB1012000E0002070BD27
:1018E0002DE9FF4705460E460024A14600BFA0464D
:1018F000B08900B100BF2C8A24F44054F08804431E
:101900002C82AC8941F20C608443B0883189084351
:10191000718908430443AC81AC8A24F44074B089D3
:101920000443AC826846FFF70FFD2048854202D091
:101930001F48854202D1DDF80C9001E0DDF80890E7
:10194000A88900F4004040B109EBC90000EB091080
:1019500031684900B0FBF1F707E009EBC90000EB83
:10196000091031688900B0FBF1F76420B7FBF0F093
:1019700004012009642101FB1078A88900F40040CB
:1019800040B1322000EBC800B0FBF1F000F00700DE
:10199000044308E0322000EB08106421B0FBF1F0B2
:1019A00000F00F0004432C81BDE8FF8700100140C8
:1019B0000014014001468888C0F308007047C1F355
:1019C00008028280704700BFFEE700000FB4054B9D
:1019D00010B503A9044A029801F0D0FD10BC5DF8CF
:1019E00014FB0000A9460008C802002003B40198B7
:1019F0004100009850EAC12018BF04204A0D18BFCA
:101A000040F0010040F2FF72B2EB515F08BF40F0BE
:101A10000200012808BF052002B070470000000046
:101A200070B5C1482DED020B2DED0E8B82B0119DCE
:101A300025F000449FEDBEDB9FEDBFEB84423EDB13
:101A4000A4F140511098A1F17F6108430FD0BC4828
:101A5000844202DC28D1109830B39DED100B02B007
:101A6000BDEC0E8B02B0BDE8704001F02DBD9DEDC8
:101A7000100B53EC1D2B51EC100BFEF7E9FC9DED08
:101A8000100B41EC180B53EC1E2B51EC100BFEF716
:101A9000DFFC53EC182BFEF734FC41EC100B02B0CA
:101AA000BDEC0E8B02B070BD012001F061FD02B0F3
:101AB000BDEC0E8B02B0BDE8704001F019BDA1482D
:101AC0009FEDA18B844256DA9DED100BB4F1795F46
:101AD0000ADA51EC100BFFF789FF042808BF01F068
:101AE00027FD9DED100BDAE753EC102B51EC100B9A
:101AF000FEF7AEFC41EC190B95480621B0EE490A01
:101B0000F0EE690A784401F04BFC53EC192B51ECD0
:101B1000100BFEF79DFC41EC1A0B8E48B0EE490A03
:101B2000F0EE690A0421784401F03AFC53EC192BD9
:101B300051EC100BFEF78CFC53EC182BFEF7E1FB7D
:101B400041EC100B51EC1A0B53EC102BFEF741FE3D
:101B5000CDE900019DED000B53EC102B9DED100B1A
:101B600051EC100BFEF774FC9DED101B53EC112B88
:101B7000FEF7C7FBD2E09DED100B51EC100B02F00D
:101B800087FD53EC182BFEF760FC9FED730BCDE93E
:101B9000000153EC102B9DED000B51EC100BFEF7E8
:101BA00057FC41EC190B6E480621B0EE490AF0EEE5
:101BB000690A784401F0F4FB53EC192B51EC100B3B
:101BC000FEF746FC41EC1B0B6648B0EE490AF0EE0E
:101BD000690A0421784401F0E3FB53EC192B51EC22
:101BE000100BFEF735FC53EC182BFEF78AFB41EC8B
:101BF0001C0B51EC190B04F0FFFE41EC180B5A487A
:101C00009FED5BABA04222DC53EC1C2B51EC1B0B79
:101C1000FEF7DFFDCDE900019DED000B51EC180B47
:101C200053EC102BFEF714FC53EC182BFEF769FB5A
:101C300053EC1A2BFEF70CFC53EC1D2BFEF702FCA9
:101C400053EC1E2BFEF701FC41EC100B5FE08DED19
:101C5000008B002000909DED000B51EC180B53EC15
:101C6000102BFEF74EFB9DED000B41EC1E0B53ECD1
:101C7000102B51EC100BFEF7EBFB53EC192BFEF77E
:101C8000E4FB53EC1E2BFEF7A4FD41EC190B53ECC7
:101C90001C2B51EC1B0BFEF79CFD41EC1B0B53EC7A
:101CA0001A2B51EC190BFEF7D3FB53EC1D2BFEF74F
:101CB000CCFB41EC190B53EC1A2B51EC180BFEF733
:101CC000C7FB53EC1B2BFEF7C3FB53EC192BFEF7A2
:101CD000B9FB9DED000B41EC180B53EC1A2B51ECAA
:101CE000100BFEF7B5FB9FED249B53EC192BFEF771
:101CF000ACFB41EC100B51EC180B53EC102BFEF726
:101D0000A1FB53EC192BFEF7A0FB41EC100B002DAF
:101D10003FF7C5AE51EC100B81F0004141EC100BC8
:101D2000BDE60000000000000000F03F00000000E1
:101D3000075C143326A6913C182D4454FB21F93F2F
:101D40000000F07F0000E03F000000000000F03FD6
:101D5000D86F0000E66F0000000000000000E03FC8
:101D60002A6F0000386F00003333EF3F000000009F
:101D70000000000000000040182D4454FB21E93F02
:101D800070B59B482DED020B2DED068B079D25F0C0
:101D90000044A04218DC9748844202DC0AD106982D
:101DA00040B19DED060BBDEC068B02B0BDE8704066
:101DB00001F08ABB002DCCBF9FED8F0B9FED900BE8
:101DC000BDEC068B02B070BD8F48A04215DD8F4878
:101DD000A042D8BF4FF0FF3458DD9DED060B51EC0B
:101DE000100BFFF703FE042808BF01F0A1FB9DEDD7
:101DF000060BBDEC068B02B070BD9DED060B51ECE1
:101E0000100B02F045FCCDE9060181489FED828B65
:101E1000A0423CDD8248A0421FDD00249FED82AB42
:101E20009DED060B53EC1A2B51EC100BFEF769FAE3
:101E30009DED060B41EC190B53EC1A2B51EC100BDA
:101E4000FEF706FB53EC182BFEF7FCFA53EC192BAC
:101E5000FEF7BFFCCDE9060149E09DED060B01242C
:101E600053EC182B51EC100BFEF74BFA9DED060BC3
:101E700041EC190B53EC182B51EC100BFEF7E2FA66
:101E800053EC192BFEF7A5FCCDE906012FE06848BD
:101E9000A0421FDD02249FED689B9DED060B53ECD5
:101EA000192B51EC100BFEF7D3FA53EC182BFEF75D
:101EB00028FA9DED060B41EC180B53EC192B51EC55
:101EC000100BFEF7BFFA53EC182BFEF782FCCDE99E
:101ED00006010CE09DED060B032453EC102B9FED47
:101EE000580B51EC100BFEF774FCCDE906019DED8B
:101EF000060B53EC102B51EC100BFEF7A9FA41EC3A
:101F0000180B53EC182BFEF7A3FA41EC190B4E48B3
:101F10000621B0EE490AF0EE690A784401F040FA71
:101F200053EC182B51EC100BFEF792FA41EC180B06
:101F30004648B0EE490AF0EE690A0521784401F0FE
:101F40002FFA53EC192B51EC100BFEF781FA41ECF0
:101F5000100B51EC180B53EC102B002C0EDAFEF783
:101F6000D0F99DED061B53EC112BFEF771FA9DED98
:101F7000061B53EC112BFEF768FA35E0FEF7C1F9AA
:101F80009DED061B53EC112BFEF762FA41EC100B92
:101F90002F48784400EBC40090ED001B51EC100B6F
:101FA00053EC112BFEF74EFA9DED061B53EC112B53
:101FB000FEF748FA41EC100B2648784400EBC400C9
:101FC00090ED001B51EC100B53EC112BFEF73DFA7A
:101FD00041EC100B002DA2BFBDEC068B02B070BD12
:101FE00051EC100B81F0004141EC100B01E70000B7
:101FF000000010440000F07F182D4454FB21F93FED
:10200000182D4454FB21F9BF0000DC3F0000203EA6
:102010000000F33F00000000000000000000F03F5F
:102020000000E63F0000000000000000000000404B
:102030000080034000000000000000000000F83FA6
:10204000000000000000F0BF026D0000B86C00004E
:10205000426C0000FA6B000070B56F4E2DED040B62
:102060002DED048B82B0DDF824C0DDE907235C424E
:102070002CF000411C4341EAD474069D22F000403C
:10208000B44205D86C422C4340EAD474B4420BD914
:102090009DED081B9DED060B02B0BDEC048B04B05A
:1020A000BDE8704001F01ABAACF14054A4F17F646D
:1020B0001C430BD0022404EAAC7444EAD2740543F6
:1020C0009FED578B9FED582B07D015E09DED060B2C
:1020D00051EC100B01F07DFC42E0002C11BF012CF3
:1020E0009DED060B02B0BDEC048B04BF04B070BDC7
:1020F000022C38D0032C3BD00B439FED4D1B9FEDA2
:102100004E0B0AD0B14218D1B04209D121F0804122
:1021100020F08040099107900FE0002A15DA10E0C6
:10212000474B7B44002C08BF93ED000B0DD0012CD6
:1021300010D0022C17D0032C1AD0B0421DD1002A87
:1021400003DAB0EE410AF0EE610A02B0BDEC048B96
:1021500004B070BD93ED000B51EC100B81F0004109
:1021600041EC100BF1E7B0EE480AF0EE680AECE73C
:10217000B0EE420AF0EE620AE7E7401A00159FED62
:10218000329B3C28C8BF8DED000B17DCBCF1000F63
:10219000BCBF10F13C0F8DED009B0FDB9DED080BDC
:1021A00053EC102B9DED060B51EC100BFEF711FBC1
:1021B00002F06EFA01F00DFCCDE90001B4B1012C82
:1021C00010D0022C9FED220B53EC102B9DED000B39
:1021D00051EC100B19D0FEF735F953EC182BFEF724
:1021E00031F9BDE7019880F0004001909DED000BB2
:1021F00053EC192B51EC100BFEF772FB04BF0220BD
:1022000001F0B6F99DED000B9FE7FEF71BF953ECCB
:10221000182BFEF71AF9A3E70000F07F000000007A
:10222000182D4454FB210940182D4454FB2109C0AA
:10223000182D4454FB21F9BF182D4454FB21F93FBC
:10224000626B0000000000000000000000000000C1
:10225000075C143326A6A13C70B5D94B00242DEDA4
:10226000020B2DED108BDDE91010984205DA20F0FD
:1022700000429A4201D809D141B19DED100BBDEC4D
:10228000108B02B0BDE8704001F01EB9B0F5801FA0
:1022900026DA11430BD0002813DA012001F068F987
:1022A000BDEC108B02B0BDE8704001F021B90220F6
:1022B00001F05EF901F0F0F851EC100B81F00041F3
:1022C0009EE06FF035049FEDC00B53EC102B9DED9D
:1022D000100B51EC100BFEF7BBF8CDE910010846CE
:1022E00004EB2051C0F31304B948A1F2FF3120449C
:1022F00000F4801080F07F6282F04052224301EBB4
:1023000020559FEDB50B119253EC102B9DED100B4A
:1023100051EC100BFEF796F841EC180BA01CC0F323
:1023200013009FEDAFDB9FEDB0EBB14E7E44032871
:102330006CD296ED000B51EC180B53EC102BFEF702
:10234000CFFA1DD1002D01BF96ED000BBDEC108B17
:1023500002B070BD2846FEF7EDF841EC180B53ECC7
:102360001D2BFEF775F841EC190B53EC1E2B51ECAD
:10237000180BFEF76DF853EC192BFDF7C2FF3FE089
:102380009FED9D0B51EC180B53EC102BFEF760F8F2
:102390009FED9B1B53EC112BFEF757F841EC190BEB
:1023A00053EC182B51EC180BFEF752F853EC192B89
:1023B000FEF74EF841EC190B002D04BF53EC192B1E
:1023C00051EC180B1AD02846FEF7B4F841EC1A0B62
:1023D00053EC1D2BFEF73CF853EC192BFEF735F8A8
:1023E00053EC182BFEF72EF841EC180B53EC1E2B78
:1023F00051EC1A0BFEF72CF853EC182BFEF722F8D1
:10240000BDEC108B02B041EC100B70BD9FED7E0B4C
:1024100051EC180B53EC102BFDF773FF41EC100B34
:1024200051EC180B53EC102BFEF7D3F941EC190BC0
:102430002846FEF77FF841EC1B0B53EC192B51ECAF
:10244000190BFEF705F841EC1A0B714853EC1A2BE7
:10245000261851EC1A0BFDF7FBFF41EC1F0B6D48E2
:10246000C4F1510404F5D724B0EE4F0AF0EE6F0A20
:102470000321784400F094FF53EC1F2B51EC100B18
:10248000FDF7E6FF41EC1C0B6348B0EE4F0AF0EE9F
:102490006F0A0421784400F083FF53EC1A2B51ECAF
:1024A000100BFDF7D5FF344353EC1C2BFDF729FF30
:1024B00041EC1C0B002C4CDD9FED510B51EC180B2B
:1024C00053EC102BFDF7C4FF53EC182BFDF7C0FFA6
:1024D00041EC1A0B55B353EC1D2B51EC1B0BFDF7C4
:1024E000B7FF41EC1D0B53EC1C2B51EC1A0BFDF705
:1024F00008FF53EC192BFDF7ABFF53EC1D2BFDF739
:1025000000FF53EC1A2BFDF7A0FF53EC182BFDF73F
:1025100099FF41EC180B53EC1E2B51EC1B0BFDF7F4
:1025200097FF53EC182BFDF78DFF69E753EC1C2B3D
:1025300051EC1A0BFDF7E5FE53EC192BFDF788FF64
:1025400053EC1A2BFDF781FF53EC182BFDF77DFFA1
:1025500056E735B353EC1D2B51EC1B0BFDF778FF01
:1025600041EC1A0B53EC1C2B51EC180BFDF76AFFD6
:1025700053EC192BFDF76CFF53EC1A2BFDF762FFA0
:1025800053EC182BFDF75EFF41EC180B53EC1E2BA0
:1025900051EC1B0BFDF75CFF53EC182BFDF752FFC2
:1025A0002EE753EC1C2B51EC180BFDF74BFF53ECB3
:1025B000192BFDF74DFF53EC182BFDF746FF1FE7D6
:1025C0000000F07F00000000000000000000504309
:1025D000645F090000000000000000000000F03F00
:1025E000763C7935EF39EA3D0000E0FE422EE63FC9
:1025F0005869000000000000555555555555D53F08
:10260000000000000000E03F00000000000000406B
:1026100086EBF9FFDA670000D067000000000000D9
:1026200070B5414A00252DED020B2DED048BDDE93F
:102630000404944205DA24F00041914201D809D102
:1026400040B19DED040BBDEC048B02B0BDE87040C1
:1026500000F03ABFB4F5801F26DA08430BD0002CF7
:1026600013DA012000F084FFBDEC048B02B0BDE85A
:10267000704000F03DBF022000F07AFF00F00CFF38
:1026800051EC100B81F0004146E09FED290B6FF0FB
:10269000350553EC102B9DED040B51EC100BFDF7A1
:1026A000D7FECDE904010C4605EB2450A0F2FF3023
:1026B000C10F40F2FF32521A62F31F540844FDF773
:1026C00039FF05949DED040B41EC180B51EC100BF8
:1026D00002F0C9F89FED181B53EC112BFDF7B8FE63
:1026E0009FED170B41EC190B53EC102B51EC180B11
:1026F000FDF7AEFE53EC192BFDF703FE9FED120B19
:1027000041EC190B53EC102B51EC180BFDF7A0FE0C
:1027100053EC192BFDF7F5FDBDEC048B02B041EC39
:10272000100B70BD000000000000F07F00000000F2
:1027300000000000000050430EE526157BCBDB3F78
:10274000362BF111F3FE593D00609F501344D33FE7
:102750002DE9F04D2DED040B2DED0E8B96B0DDE93E
:102760002550279CDDF890A025F0004624F0004875
:10277000BAF1000F14BF0121002101EB4502FC4911
:1027800053184A1093422AD3002814BF0123002370
:1027900003EB44030B44F7498B4220D358EA000172
:1027A0009FEDF59B76D0DFF8D8B35D4503D1BAF144
:1027B000000F05D188E0BAF1000F08BF002100D05A
:1027C000012101EB450111F5001F08D8002814BFB5
:1027D0000121002101EB440111F5001F0BD99DEDF2
:1027E000261B9DED240B16B0BDEC0E8B04B0BDE88E
:1027F000F04D00F073BE0027002DBCBFE1498845B5
:1028000021DAE1498845A8BF02271CDAC3451ADC52
:10281000DE4901EB2851142908DDC1F1340220FA08
:1028200002F101FA02F282420DD108E058B9C1F179
:10283000140228FA02F101FA02F2424503D101F032
:102840000101C1F1020756EA0A0124D1002C22DA63
:10285000002D18BF022F01D0012F0AD0022000F056
:1028600087FE16B0BDEC0E8B04B0BDE8F04D00F055
:1028700013BE022000F07CFE00F00EFE51EC100BA7
:1028800081F0004141EC100B16B0BDEC0E8B04B092
:10289000BDE8F08D18E09FEDBEAB9FEDBF8B00282B
:1028A00071D1B848804522D105F1804010F58010E3
:1028B00008BFBAF1000F07D0B3450ADC002CA8BF4F
:1028C0009DED260BE0DA0DE0B0EE490AF0EE690A64
:1028D000DAE7002C06DA9DED260B51EC100B81F0A7
:1028E00000416FE0AE48784490ED000BCCE7D8454E
:1028F0004DD1002C48DA2EB186423AD1BAF1000F00
:1029000042D126E0BAF1000F13D0022000F030FED1
:1029100000F0FEFD8DED020B9DED240B8DED000B07
:1029200010EE900A039961F31E0003909DED020BD7
:10293000AAE78DED02AB9DED240B1AEE901A10EE76
:10294000900A8DED000B61F31E0003909DED020BCC
:102950009AE78DED028B9DED240B18EE901A10EE88
:10296000900A8DED000B61F31E0003909DED020BAC
:102970008AE709DA9DED240B51EC190B53EC102B6F
:10298000FDF727FF1EE020E09DED240B7CE786424B
:102990001BDAB4F1804F0DD0A4F10050B0F1FF501C
:1029A00013D1002D11DB9DED240B51EC100B04F025
:1029B00023F807E09DED240B53EC102B51EC100B8A
:1029C00000F0C2BC41EC100B5EE79DED240B51EC16
:1029D000100B01F05DFEBAF1000FCDE90E0142D1FE
:1029E0009FED710B46B3A6F1E040B0F17F600CD0D3
:1029F0005E4538D1002D00DAA7B3022F0CBF0120AD
:102A00004FF0FF30FDF796FDDCE7002D01DD002CD7
:102A10000DDA002D01DD002C1FDB002D16DA002C55
:102A200014DB012F08BF9FED620B3FF42DAFB0EE1A
:102A30004A0AF0EE6A0A27E7022F18BF002D0CD0D1
:102A4000012F0AD1002DFFF61FAF06E0002DB8BF01
:102A5000002C08DA012F3FF417AFB0EE480AF0EE71
:102A6000680A11E71BE0012000EBE57050EA07015E
:102A700015D0791EB0EE498AF0EE698A084308BF86
:102A80009FED4D8B4E480025804570DD4D494E48E9
:102A9000884514DDB0420DDB002C19DB2FE001204E
:102AA00000F066FD16B0BDEC0E8B04B0BDE8F04D35
:102AB00000F01EBDB34502DC002C09DC1FE086429D
:102AC00002DA002C1BDA03E05E452BDD002C16DD5C
:102AD000022000F04DFD00F01BFD8DED020B53ECCC
:102AE0001A2B51EC180BFDF7B3FCCDE9000103994B
:102AF000019861F31E0003909DED020BC4E60220D5
:102B000000F036FD00F014FD10EE901A18EE900A59
:102B10008DED020B8DED008B61F31E0003909DED9A
:102B2000020BB1E69DED0E0B53EC192B51EC100B83
:102B3000FDF788FC9FED260BCDE9080153EC102B27
:102B40009DED080B51EC100BFDF782FC9FED221B55
:102B500053EC112BFDF779FC9DED081B53EC112B69
:102B6000FDF776FC9FED1E1B53EC112B3CE08CE037
:102B7000FFFF1F00FFFF0F00000000000000F03FFC
:102B80000000F03F0000F07F0000404301FCFFFF29
:102B9000000000000000F07F0000000000000000C6
:102BA0009E630000000000000000000000000080A4
:102BB000000000000000F0FF000000000000F0BF77
:102BC0000000E0410000F043FFFFEF3F0000000085
:102BD000000000000000D03F555555555555D53FD4
:102BE000000000000000E03FFDF72FFC9DED080B0A
:102BF00041EC1A0B53EC102B51EC100BFDF728FC99
:102C000053EC1A2BFDF724FC41EC1A0B9FEDFE0B45
:102C100053EC102B9DED080B51EC100BFDF718FC3D
:102C200041EC1B0B9FEDFA0B51EC1A0B53EC102BE4
:102C3000FDF70EFC41EC1A0B9FEDF70B53EC102B3C
:102C40009DED080B51EC100BFDF702FC53EC1A2B19
:102C5000FDF7F8FB41EC1A0B51EC1B0B53EC1A2B54
:102C6000FDF74FFB0690CDE906519DED060B53ECA9
:102C70001B2B51EC100BFDF7E5FB53EC1A2BFDF76A
:102C8000E4FB41EC100B00F0A1B90020B6F5801F69
:102C90000EDA9FEDE30B53EC102B9DED0E0B51EC78
:102CA000100BFDF7D5FBCDE90E016FF034000E4699
:102CB00000EB2650A0F2FF37C6F31300DA4940F0CC
:102CC0007F6646F040568842D8BF002408DDD749C9
:102CD0008142C8BF012403DC0024A6F580167F1CB6
:102CE000D348784400EBC4000F9690ED00CB9DEDE7
:102CF0000E0B53EC1C2B51EC100BFDF7A3FB9DEDC1
:102D00000E0B41EC1B0B53EC1C2B51EC100BFDF785
:102D1000F8FA41EC100B51EC190B53EC102BFDF7AA
:102D200058FD41EC1D0B51EC1B0B53EC1D2BFDF71B
:102D30008FFB41EC1A0BBF488DED10AB784410951A
:102D400090ED000B4FF0005040EA660000EB84402D
:102D50008DED080B00F5002009909DED080B53EC5C
:102D60001C2B51EC100BFDF76DFB9DED0E1B53EC76
:102D7000112BFDF76AFB41EC100B53EC102B9DED72
:102D8000100B51EC100BFDF763FB9DED080B41ECB4
:102D90001C0B53EC102B9DED100B51EC100BFDF7A1
:102DA00057FB53EC1B2BFDF750FB53EC1C2BFDF793
:102DB00049FB53EC1D2BFDF74BFB41EC1C0B53EC7B
:102DC0001A2B51EC1A0BFDF743FB41EC1B0B9A48F5
:102DD0000621B0EE4B0AF0EE6B0A784400F0E0FA00
:102DE000B0EE401AF0EE601AB0EE41DAF0EE61DAC1
:102DF00053EC1B2B51EC1B0BFDF72AFB53EC1D2B4B
:102E0000FDF726FB9DED100B41EC1B0B53EC1A2B31
:102E100051EC100BFDF775FA53EC1C2BFDF718FB6A
:102E200053EC1B2BFDF76DFA9DED100B41EC1B0BCA
:102E300053EC102B51EC100BFDF70AFB41EC1D0B72
:102E40009FED7FEB53EC1E2BFDF75BFA53EC1B2B36
:102E5000FDF757FA0890CDE908519DED080B53ECAA
:102E60001E2B51EC100BFDF7EDFA53EC1D2BFDF76B
:102E7000E9FA53EC1B2BFDF7E8FA9DED080B41EC4A
:102E80001D0B53EC102B9DED100B51EC100BFDF7AF
:102E9000DFFA41EC1B0B53EC1A2B51EC1D0BFDF729
:102EA000D7FA9DED080B41EC1A0B53EC102B51ECAB
:102EB0001C0BFDF7CDFA53EC1A2BFDF722FA41EC6F
:102EC0001A0B51EC1B0B53EC1A2BFDF71AFA0C9052
:102ED000CDE90C519DED0C0B53EC1B2B51EC100B61
:102EE000FDF7B0FA53EC1A2BFDF7AFFA41EC1B0BD0
:102EF0009FED550B53EC102B9DED0C0B51EC100B73
:102F0000FDF7A6FA41EC1A0B9FED510B51EC1B0B90
:102F100053EC102BFDF79CFA41EC1B0B9FED4E0B75
:102F200053EC102B9DED0C0B51EC100BFDF790FAB0
:102F300053EC1B2BFDF7E5F941EC100B48487844A6
:102F400000EBC40090ED001B51EC100B53EC112B67
:102F5000FDF7D7F941EC1B0B3846FDF7EBFACDE94D
:102F6000080153EC1B2B51EC1A0BFDF7CAF941EC8D
:102F7000100B3C48784400EBC40090ED00CB51ECC2
:102F8000100B53EC1C2BFDF7BCF99DED081B53EC0B
:102F9000112BFDF7B6F90690CDE906519DED080B12
:102FA00053EC102B9DED060B51EC100BFDF74AFA7C
:102FB00053EC1C2BFDF746FA53EC1A2BFDF742FAA3
:102FC00053EC1B2BFDF741FA41EC100B9DED261B3A
:102FD00053EC102B8DED001B00959DED260B51EC55
:102FE000100BFDF735FA9DED000B41EC1A0B53EC7D
:102FF000102B9DED260B51EC100BFDF723FA9DEDE8
:10300000061B53EC112B2FE0000000604715F73F23
:10301000FE822B654715F73F44DF5DF80BAE543E4B
:1030200000000000000040438E9803007AB60B00B9
:103030004A5E0000485F0000825D00000000000062
:103040000000000000000840000000E009C7EE3F5B
:10305000FD033ADC09C7EE3FF5015B14E02F3EBEED
:103060000E5C0000C85B0000FDF7F2F953EC1A2B70
:10307000FDF747F99DED060B41EC1A0B53EC102BB5
:103080009DED000B51EC100BFDF7E2F9CDE90C01C1
:103090009DED0C0B51EC1A0B53EC102BFDF731F995
:1030A000CDE902010C46AA498C422FDB611A084384
:1030B00018D19DED0C0B53EC102B9DED020B51EC38
:1030C000100BFDF7BFF941EC1B0B9FEDA30B51EC6F
:1030D0001A0B53EC102BFDF714F953EC1B2BFDF7D7
:1030E00017FC2DD2022000F043FA00F011FA10EE86
:1030F000901A18EE900A8DED020B8DED008B61F3A6
:103100001E0003909DED020BFFF7BEBB944A24F016
:103110000041914214D39349214408437FF4EFAC1A
:103120009DED0C0B53EC102B9DED020B51EC100B95
:10313000FDF788F953EC1A2BFDF7EAFB7FF6DFACBD
:1031400024F000408849894A002601EB2051824240
:103150002BDA481C4FF4801121FA00F02044844AF5
:10316000C0F30A517A44A1F2FF3192ED000B814A7B
:103170008DED080BCA4020EA0202C0F3130040F4B0
:103180008010C1F1140120FA01F60992002CB8BF99
:1031900076429DED080B53EC102B9DED0C0B51EC82
:1031A000100BFDF74FF9CDE90C019DED0C0B51EC27
:1031B0001A0B53EC102BFDF7A4F89FED6F0B089042
:1031C000CDE9085153EC102B9DED080B51EC100B81
:1031D000FDF73EF941EC1B0B9FED690B53EC102BF7
:1031E0009DED080B51EC100BFDF732F99DED0C0B2A
:1031F00041EC1C0B53EC102B9DED080B51EC100B0C
:10320000FDF720F953EC1A2BFDF71FF99FED5E1B1C
:1032100053EC112BFDF71CF953EC1C2BFDF771F847
:1032200041EC1A0B51EC1B0B53EC1A2BFDF769F810
:10323000CDE902019DED020B53EC1B2B51EC100B61
:10324000FDF700F953EC1A2BFDF7FFF89DED020B8B
:1032500041EC1A0B53EC102B51EC100BFDF7F8F866
:10326000CDE908014A489DED080B0521784400F09E
:1032700097F89DED081B51EC100B53EC112BFDF74B
:10328000E7F89DED021B53EC112BFDF7DEF8CDE9BD
:1032900006019DED020B53EC1A2B51EC100BFDF7C0
:1032A000D7F853EC1A2BFDF72CF89FED3B0B41ECB4
:1032B0001A0B53EC102B9DED060B51EC100BFDF788
:1032C000C1F89DED060B41EC1B0B53EC102B9DED53
:1032D000020B51EC100BFDF7BBF853EC1B2BFDF769
:1032E00078FA53EC1A2BFDF7ADF89DED021B53EC69
:1032F000112BFDF7A7F853EC192BFDF7A6F8CDE934
:10330000020101EB065001150029C8BF039015DC2E
:103310009DED020B324651EC100BFDF7C9FAFEF79A
:1033200065FB042808BF00F003F932469DED020B4F
:1033300051EC100BFDF7BCFACDE902019DED020B3B
:1033400051EC180B53EC102BFDF782F8FFF73ABB4A
:103350000000904000000000FE822B654715973C5E
:1033600000CC904000346F3F01FCFFFF0000E03FC5
:10337000205B0000FFFF0F0000000000432EE63F2F
:10338000396CA80C615C20BEEF39FAFE422EE63F94
:103390002059000000000000000000000000004074
:1033A00070B504462DED028B4D1E00EBC500B0EE4E
:1033B000408AF0EE608A90ED000B35F0060017D0E1
:1033C00053EC182B51EC100BFDF742F841EC100BAD
:1033D0006D1E04EBC50090ED001B51EC100B53EC7F
:1033E000112BFCF78EFF41EC100B35F00600E7D1F6
:1033F000022D36D0042D1CD0062D1CBFBDEC028B37
:1034000070BD53EC182B51EC100BFDF721F894ED27
:103410000A1B53EC112BFCF774FF53EC182BFDF730
:1034200017F894ED081B53EC112BFCF76AFF41ECE5
:10343000100B53EC182B51EC100BFDF709F894ED21
:10344000061B53EC112BFCF75CFF53EC182BFCF71D
:10345000FFFF94ED040B53EC102BFCF752FF41ECF3
:10346000100B53EC182B51EC100BFCF7F1FF94ED03
:10347000021B53EC112BFCF744FF53EC182BFCF709
:10348000E7FF94ED001B53EC112BFCF73AFFBDEC6A
:10349000028B41EC100B70BD9FED070B10B553EC88
:1034A000102B9FED070B51EC100BFDF792F941EC3F
:1034B000100B10BD00000000000000000000000024
:1034C000000000000000F03F10B553EC102B51EC51
:1034D000100BFCF716FF41EC100B10BD10B553ECB0
:1034E000112B51EC100BFCF70CFF41EC100B10BD35
:1034F0009FED050B10B553EC102B51EC100BFDF7A5
:1035000068F941EC100B10BD000000000000000045
:103510009FED050B10B553EC102B51EC100BFCF785
:1035200097FF41EC100B10BD000000000000007080
:103530009FED050B10B553EC102B51EC100BFCF765
:1035400087FF41EC100B10BD0000000000000010D0
:1035500002E008C8121F08C1002AFAD1704770475C
:10356000002001E001C1121F002AFBD170470000BA
:103570000149086070470000CC0200202DE9FF4F90
:103580008DB00F460546002606E025280BD0DDE964
:103590000F1290476D1C761C28780028F5D111B0C9
:1035A0003046BDE8F08F0024A246A1460122E94939
:1035B00000E0044315F8013F203B02FA03F0084203
:1035C000F7D128782A2810D06FF02F022878A0F1A0
:1035D0003001092914D80AEB8A0102EB410144F0B9
:1035E000020400EB010A6D1CF0E701CF5FEA000A5C
:1035F00003D544F40054CAF1000A44F002046D1CDF
:1036000028782E2817D115F8010F44F004042A2831
:103610000ED06FF02F022878A0F1300109290AD8C6
:1036200009EB890102EB410100EB01096D1CF2E796
:1036300057F8049B6D1C28786C280FD006DC4C28AA
:1036400017D068280DD06A2814D104E0742810D04F
:103650007A280FD10DE044F400140AE044F48014F9
:1036600001E044F440146978814202D104F58014E9
:103670006D1C6D1C28786E281ED00CDC632830D0A1
:1036800004DC00288BD0582811D19FE0642867D033
:1036900069280CD164E073282DD004DC6F2872D027
:1036A000702804D194E075286ED078286DD0DDE9BB
:1036B0000F129047761C4BE1C4F30250022806D04B
:1036C000032809D0042801CF09D0066040E101CFCA
:1036D000F117C0E900613BE101CF068038E10670D7
:1036E00036E117F8040B8DF8000000208DF801007A
:1036F000EB46012003E057F804BB4FF0FF306107B1
:103700004FF0000102D40DE008F10101884649455F
:103710000FDA8045F8DB1BF808100029F4D108E027
:1037200008F1010188468142FADB1BF808100029E4
:10373000F6D1DDE90F23AAEB08008146214600F00F
:1037400031F9304400EB080604E0DDE90F121BF804
:10375000010B9047B8F10108F7D221464846F2E044
:103760000A21C4F302524FF0000B0891022A04D040
:1037700001CFC117032A09D00AE0FF1D27F0070770
:10378000F7E8020108E02CE01EE01FE000B2C117DC
:10379000042A01D140B2C117021E71F1000206DAFB
:1037A0000023D0EB030063EB01012D2202E0220590
:1037B00004D52B228DF82420012203E0E20701D05A
:1037C0002022F7E7904653E00A210BE0102109E0A0
:1037D00010214FF0000B44F004044FF00809089149
:1037E00003E008214FF0000B0891C4F30252022AB3
:1037F00004D001CF0021032A06D006E0FF1D27F0E8
:103800000707F7E8020103E080B2042A00D1C0B242
:103810004FF0000822072BD52A78702A07D0DDF850
:1038200020C08CF0100C5CEA0B0C05D00EE040229E
:103830008DF82420012208E050EA010306D030234D
:103840008DF824308DF8252002229046089B83F0C5
:10385000080353EA0B030BD150EA010201D16207BE
:1038600006D530228DF824204FF00108A9F1010976
:103870002A78582A04D038A20B9208AA0A920BE0A0
:103880003AA2F9E75B46089AFCF7ADFE0B9B9B5CFE
:103890000A9A521E0A92137050EA0102F2D10A9853
:1038A000ADEB000000F1200B600702D524F480345A
:1038B00001E04FF00109D94502DDA9EB0B0000E062
:1038C000002000EB0B0141440890AAEB010AE00341
:1038D00006D4DDE90F232146504600F063F8064484
:1038E0004FF0000908E009A911F80900DDE90F12FD
:1038F000904709F10109761CC145F4DBE0030CD5C2
:10390000DDE90F232146504600F04CF8064404E060
:10391000DDE90F1230209047761C0899481E089068
:103920000029F5DC08E00A980A990078491C0A91F8
:10393000DDE90F129047761CBBF10001ABF1010BE2
:10394000F1DC21465046DDE90F2300F019F806446A
:103950006D1C21E609280100303132333435363709
:1039600038396162636465660000000030313233CB
:10397000343536373839414243444546000000006B
:103980002DE9F041044600251E461746880404D45C
:1039900005E039462020B0476D1C641EF9D5284645
:1039A000BDE8F0812DE9F041044600251E46904611
:1039B000C80301D5302700E02027880404D505E09E
:1039C00041463846B0476D1C641EF9D52846BDE80F
:1039D000F08110B541EC100BFEF7D2F951EC100B51
:1039E00010BD0246282A07DB482A05DC082903DB2C
:1039F000282901DC012070470020FCE72DE9F04177
:103A00000446E07800F0C006E07800F03F056078FA
:103A100000F0010098B1EF102846E91705EB51714D
:103A2000C910A5EBC101491C01F0FF080B48006853
:103A300020B10A48414602683846904700BF607886
:103A400000F0080030B10548406818B1B011034AD1
:103A5000516888470020BDE8F0810000183401203B
:103A600010B52DED028B82B0B0EE408AF0EE608A88
:103A70009FED550AC8EE800A9FED541A9FED530A38
:103A800000EEC10ABCEEC00A10EE100A50490870E0
:103A90009FED4D0AC8EE000AB3EE081AB3EE080A0D
:103AA00000EE810ABCEEC00A10EE100A4949087007
:103AB0004748007848490978884209D14548007844
:103AC00046490978884203D102B0BDEC028B10BD93
:103AD000404801783E480078FFF783FF60B300203C
:103AE0003E4A00901478E21704EB5272D1103A4A21
:103AF0001278521E002A03D4374A1278521E01E06F
:103B0000354A1278D0B20323122202F0A9F83448C1
:103B10000223102203210090382002F0A1F8202077
:103B2000304910231A46CDE900102A480178284868
:103B3000007802F0D3F82DE00020284A0090147895
:103B4000E21704EB5272D110234A1278521E002A57
:103B500003D4214A1278521E01E01F4A1278D0B2D3
:103B60000323122202F07CF820201D4910231A465C
:103B7000CDE900101821382001F0D2FF202019498A
:103B800010231A46CDE90010124801781048007839
:103B900001F0C6FF0E4800780F4908700D48007804
:103BA0000E4908700A480078382807D1094800787B
:103BB000182803D1012000F0A3F802E0002000F053
:103BC0009FF800BF80E7000000003443000060421F
:103BD0003301002034010020310100203201002097
:103BE0006400002044000020F0B52DED068B83B06A
:103BF00004460D4616467CB910213A4800EB0410E5
:103C00000B460822CDE900013146284601F088FF25
:103C100003B0BDEC068BF0BD271E01DB394600E08A
:103C200079420846FCF786FC41EC1A0BB0EE4A0AD2
:103C3000F0EE6A0AFEF7F4FCB0EE409AF0EE609AFD
:103C40009FED290B53EC102B51EC190BFCF759FB92
:103C500041EC180BFCF77FFC254908700978481ED9
:103C6000FCF768FC41EC190BB0EE491AF0EE691A4A
:103C70009FED200BFEF76CFDB0EE408AF0EE608AFF
:103C800051EC180BFCF767FC1C49088024E01B482A
:103C90000088B4FBF0F0134901EB00171020034635
:103CA00008223146CDE90070284601F039FF13485B
:103CB0000088B4FBF0F100FB1144104800880A2191
:103CC00090FBF1F00D49088005F10800C5B20848E5
:103CD0000078401E06490870054800780028D6DCA8
:103CE00000BF95E784000020000000000000F03FC6
:103CF0002901002000000000000024402A010020CB
:103D000010B5044624B10021A72000F033FD03E0E4
:103D10000021A62000F02EFD10BD38B5044664B188
:103D200020208DF8000028208DF8010030208DF82B
:103D3000020038208DF8030004E0A3220421684625
:103D4000FCF7C0FA6A46042140F69E2001F03AFED4
:103D500001F0B2FA38BD00003EB5044602208DF8ED
:103D60000000CA208DF80100E3208DF80200092030
:103D70008DF803006A460421682001F023FEA32089
:103D80008DF8000004F0400048B1C0208DF801001B
:103D9000C8208DF80200C2208DF8030006E0A320A1
:103DA0008DF801008DF802008DF8030004F4C07056
:103DB00048B1C4208DF80400CC208DF80500C62041
:103DC0008DF8060006E0A3208DF804008DF80500AC
:103DD0008DF80600A3208DF807008DF808008DF8F7
:103DE00009006A460A2140F6A72001F0EBFD04F025
:103DF000030018B120208DF8000002E0D8208DF8D3
:103E000000006A46012140F6B62001F0DBFD04F017
:103E1000200018B1012000F0ADF802E0002000F011
:103E2000A9F804F4C07008B304F4807060B1B22043
:103E30008DF800008B208DF80100B6208DF802006F
:103E40009B208DF803000BE0B0208DF8000080204F
:103E50008DF80100B4208DF8020090208DF8030049
:103E60006A46042140F6A22001F0ACFD04F00100F6
:103E700020B3F8208DF800006A4601214FF40B6052
:103E800001F0A0FDFA21072000F0FCFA072000F065
:103E9000C3FA012000F0E3FA642000F0D3FB4FF4F2
:103EA000FA7000F0E2FBC821304800F073FA2820D5
:103EB00000F08CFA0A2000F09CFA08E0D8208DF877
:103EC00000006A4601214FF40B6001F07BFD04F015
:103ED000020018B1D9208DF8000002E0D8208DF83A
:103EE00000006A46012140F23D7001F06BFD04F0D4
:103EF000040018B1012000F069F802E0002000F091
:103F000065F804F0100018B10120FFF706FF02E089
:103F10000020FFF702FF44F008001549488101F036
:103F2000CBF900201249887304F0400018B108460C
:103F3000807B801D887304F4C07020B10C48807BA6
:103F4000801D0B49887304F0140020B10848807B61
:103F500010300749887304F0030020B10448807BC7
:103F6000001D0349887300203EBD000009E3CA021A
:103F7000183401203EB504466CB10EA1D1E90020F1
:103F80008968CDE9002002916A4609214FF49760C3
:103F900001F018FD3EBD0AA2D2E900109268CDE9F9
:103FA000010200916A4609214FF4976001F00AFD71
:103FB000F0E70000B8AAB38DB4980D355D0000009D
:103FC000B8AAAAAAB088C3C5C700000038B504467D
:103FD00064B1C0208DF80000C2208DF80100C4201B
:103FE0008DF80200C6208DF8030004E08B22042126
:103FF0006846FCF767F96A46042140F6982001F00C
:10400000E1FC01F059F938BD10B5C8234FF48062C6
:10401000024940F6F63000F0E3FF10BDE47E0008F0
:104020002DE9F04F8DB00746884615469946DDE9E3
:10403000166B0024002030806B49887B5A4605A906
:1040400001F09AF818B1601E0DB0BDE8F08F664817
:10405000807A00F01400002867D09DF81400000654
:104060009DF8151040EA01409DF8161040EA012025
:104070009DF81710084328609DF8180000069DF869
:10408000191040EA01409DF81A1040EA01209DF8FD
:104090001B10084368609DF81C0000069DF81D1069
:1040A00040EA01409DF81E1040EA01209DF81F10D3
:1040B0000843A8609DF8200000069DF8211040EA02
:1040C00001409DF8221040EA01209DF8231008438A
:1040D000E86004F11000C4B2286800140190686818
:1040E00000140290A86800140390E868001404907B
:1040F00001984043029901FB0100039901FB010073
:10410000049901FB010ABAF1706F02DBBAF1885F12
:1041100005DD01F0D1F800203080401E94E7B6F9AB
:10412000000040F48070308000BF2F48807A00F09B
:10413000400020B305A9601C085C095D40EA01202D
:1041400000B2A8F8000005A9E01C095C05AAA01CA3
:10415000105C41EA002000B2A8F8020005A9601D29
:10416000095C201D105C41EA002000B2A8F80400A0
:10417000A01DC4B2B6F9000040F0080030801A4813
:10418000408900F4C07008B305A9601C085C095D93
:1041900040EA012000B2388005A9E01C095C05AAAC
:1041A000A01C105C41EA002000B2788005A9601DC7
:1041B000095C201D105C41EA002000B2B880A01DFF
:1041C000C4B2B6F9000040F0700030800648807A32
:1041D00000F0030018B105A90819FFF70FFC4846C5
:1041E00000F078FB00202FE71834012030B585B0AF
:1041F000044616A207CA02AB07C3C82C03DD4FF062
:10420000FF3005B030BDC82090FBF4F0401E85B2F1
:10421000280A8DF80000E8B28DF801006A460221F4
:1042200040F2162001F0CEFB10B14FF0FF30E8E76E
:1042300002AA0C2140F6C12001F0C4FB10B14FF0DE
:10424000FF30DEE7044884810020DAE7FEF2ABC4E9
:10425000AAF1DFDFBBAFDFDF1834012010B586B075
:10426000044647A00068039046A00068029046A05C
:104270000068019045A00068009004F0030003A9C5
:10428000085C8DF8140003A8C4F3C101405C8DF8EC
:10429000150003A8C4F38111405C8DF8160004F0EA
:1042A000030002A9085C8DF8100002A8C4F3C10144
:1042B000405C8DF8110002A8C4F38111405C8DF8B8
:1042C000120005AA032140F2264001F07BFB18B141
:1042D0004FF0FF3006B010BD04AA032140F22A407F
:1042E00001F070FB10B14FF0FF30F3E7019805903B
:1042F0000098049004F0040058B19DF8140040F0B8
:1043000001008DF814009DF8100040F001008DF8B8
:10431000100004F0200058B19DF8150040F0010095
:104320008DF815009DF8110040F001008DF8110086
:1043300004F4807058B19DF8160040F001008DF82B
:1043400016009DF8120040F001008DF8120005AA39
:1043500003214FF4886001F035FB10B14FF0FF30BE
:10436000B8E704AA032140F2314001F02BFB10B161
:104370004FF0FF30AEE7064804810020AAE70000B6
:104380004CCD6C000CC92C003656760026466600D3
:1043900018340120F8B505460E464FF47A7095FBA7
:1043A000F0F000FB06F4200E8DF80000200C8DF8D4
:1043B0000100200A8DF80200E0B28DF803006A4681
:1043C00004214FF4AE7001F0FDFAF8BD38B5044693
:1043D000052094FBF0F084B220128DF80000E0B2CA
:1043E0008DF801006A4602214FF4AD7001F0EAFA3F
:1043F00038BD38B50446052094FBF0F084B2201295
:104400008DF80000E0B28DF801006A4602214FF4F9
:10441000AC7001F0D7FA38BD38B5044600200090E2
:1044200004F0010020B19DF8000040F03000009041
:1044300004F0020020B19DF8000040F00C00009054
:1044400004F0040020B19DF8000040F0030000904B
:104450006A4601214FF4A47001F0B4FA38BD38B5B2
:104460000446012C01DA012402E0042C00DD0424BE
:10447000601EC0B200906A46012140F24F1001F068
:10448000A1FA38BDF0B52DED028B83B006460F467C
:1044900006F0070010B1B7F5C86F05DD4FF0FF302B
:1044A00003B0BDEC028BF0BD00EE107AB8EE400A0E
:1044B000DFED5B0A80EE208A01A800F073FC9DF816
:1044C0000400022806D0042817D0082828D0102875
:1044D0004CD138E09FED530A28EE000ABCEEC00A2A
:1044E00010EE100A84B29FED500A28EE000ABCEECE
:1044F000C00A10EE100A85B23BE09FED4C0A28EE90
:10450000000ABCEEC00A10EE100A84B29FED480A01
:1045100028EE000ABCEEC00A10EE100A85B228E0B0
:104520009FED440A28EE000ABCEEC00A10EE100A05
:1045300084B29FED410A28EE000ABCEEC00A10EEDC
:10454000100A85B215E09FED3D0A28EE000ABCEE88
:10455000C00A10EE100A84B29FED390A28EE000A54
:10456000BCEEC00A10EE100A85B202E04FF0FF3038
:1045700096E700BF20128DF80800E0B28DF8090020
:1045800028128DF80A00E8B28DF80B0006F0010041
:10459000A0B102AA02214FF4EA7001F013FA10B19F
:1045A0004FF0FF307CE70DF10A0202214FF49270C8
:1045B00001F008FA10B14FF0FF3071E706F0020089
:1045C000A0B102AA02214FF4EC7001F0FBF910B186
:1045D0004FF0FF3064E70DF10A0202214FF49470AE
:1045E00001F0F0F910B14FF0FF3059E706F0040088
:1045F000A0B102AA02214FF4EE7001F0E3F910B16C
:104600004FF0FF304CE70DF10A0202214FF4967093
:1046100001F0D8F910B14FF0FF3041E700203FE73B
:10462000000048430000804600004046000000466D
:104630000000C045000080450000404500000045E6
:104640000000C04438B50446052094FBF0F085B264
:1046500028128DF80000E8B28DF801006A460221A8
:104660004FF4EF7001F0AEF938BD38B504460520BF
:1046700094FBF0F085B228128DF80000E8B28DF8B6
:1046800001006A4602214FF4ED7001F09BF938BD3C
:1046900082B0CDE9000121F0004001909DED000BBA
:1046A00002B051EC100B704770B504460D46E1B2F4
:1046B0000548FDF784F900BF80210348FDF7D9F8CC
:1046C0000128F9D1002070BD0010014000B587B06D
:1046D00001210220FCF7F8FD01214805FCF704FE4A
:1046E0002148FCF747FB002005900690C02005906C
:1046F00002208DF8180001208DF81A0003208DF893
:10470000190001208DF81B0005A91848FCF798FA3C
:10471000042206211548FCF7DBFA0422072113487E
:10472000FCF7D6FA002001900290039004904FF419
:104730008060ADF80E000001ADF810000C4801904B
:104740004BF6FF70ADF80A000020ADF8080001201C
:10475000ADF80C0001A90448FCF772FB01210248E6
:10476000FCF7FCFA07B000BD005400400004024012
:10477000801A060070B504460D4601211948FCF761
:1047800029FB00BF18491748FCF7D3FA0128F9D1D3
:10479000002278211348FCF7CBFB00BF13491148D6
:1047A000FCF7C7FA0128F9D129460E48FCF7C8FBE7
:1047B00000BF0E49891E0B48FCF7BBFA0128F8D14F
:1047C00021460848FCF7BCFB00BF0849891E054884
:1047D000FCF7AFFA0128F8D101210248FCF706FBEB
:1047E00070BD00000054004001000300820007007B
:1047F00010B50446204600F00FF80346E01C00F018
:104800000BF843EAC00083B2A01D00F005F843EAAC
:10481000801083B2184610BD014691F90020002A8D
:1048200001DD00201EE091F90020002A01DA0420B9
:1048300018E091F90120002A01DD012012E091F930
:104840000120002A01DA05200CE091F90220002A5B
:1048500001DD022006E091F90220002A01DA06209B
:1048600000E00720704710B541EC100BFDF7F4FC99
:1048700051EC100B10BD00000EB54FF41650FCF7B4
:1048800099FC0BA0FDF7A2F842F2107002F0C4FCF4
:104890000020029002A8042100230A02CDE90010A2
:1048A00008A10B4803F06CF802F01EFC00BFFEE705
:1048B00073746172742061667465722074686174C7
:1048C0000A000000616C6C5F696E69740000000092
:1048D000650A0008704700007CB504469FED1E0A7B
:1048E00084ED000A9FED1C0A84ED010A002520E0FA
:1048F00000BF1A481A491B4B1B4ACDE900101B493F
:104900001B4800F06FF80028F3D194ED000A184816
:10491000D0ED000A30EE200A84ED000A94ED010A81
:104920001248D0ED000A30EE200A84ED010A681C1E
:10493000C5B2142DDCDB94ED000AF3EE040A80EE20
:10494000201A84ED001A94ED010AF3EE040A80EEB9
:10495000201A84ED011A7CBD0000000040000020F8
:104960003C000020380000203400002030000020EF
:104970002C00002070B50446002624F001041848DD
:1049800090F8240008B1002070BD1548807A10B955
:104990004FF0FF30F8E71248057C807A204010493C
:1049A00008740846007CA04202D04FF0FF3600E0B9
:1049B000002614B90A48007D18B1012001F0D4FF87
:1049C00002E0002001F0D0FF3CB100F075FC20B106
:1049D000034805744FF0FF30D6E73046D4E70000B7
:1049E000900200202DE9F0432DED0C8B8DB0044694
:1049F0000D4691461E46DDE92078B7EE000AB0EE7E
:104A0000409A9FED6F0AB0EE408A9FED6D0AF0EE7E
:104A1000408A9FED6B0AF0EE409A06A807A90CABFE
:104A200002AACDE9001008A90AA8FFF7F9FA28B1EF
:104A300001200DB0BDEC0C8BBDE8F083BDF81C006F
:104A400000F00800B8B1BDF9200000EE100AB8EE81
:104A5000C00A86ED000ABDF9220000EE100AB8EE89
:104A6000C00A87ED000ABDF9240000EE100AB8EE76
:104A7000C00A88ED000ABDF81C0000F48070002810
:104A80007ED09DED020AB8EEC00ADFED4E0A80EE40
:104A9000201AB0EE419A9DED030AB8EEC00ADFED90
:104AA000490A80EE201AB0EE418A9DED040AB8EE64
:104AB000C00ADFED440A80EE201AF0EE418A9DED37
:104AC000050AB8EEC00ADFED3F0A80EE201AF0EECC
:104AD000419AB8EE000A28EE000A20EE290AF0EE0C
:104AE000000A69EE200A00EEA80A10EE101A084625
:104AF000FBF74AFD41EC1C0BB0EE4C0AF0EE6C0AE1
:104B0000FCF78EFFB0EE40BAF0EE60BA9FED2E0BD0
:104B100053EC102B51EC1B0BFBF79AFC41EC1A0BDE
:104B2000FBF745FD2060B8EE000A28EE000A20EEF3
:104B3000080AF0EE000A68EEA00A00EEE80AF7EEB6
:104B4000000A30EE200A10EE101A0846FBF71CFD92
:104B500041EC1C0BB0EE000A28EE800A20EE290A78
:104B6000F0EE000A69EE200A00EE880A10EE101A34
:104B70000846FBF709FD41EC1D0BB0EE4C1A00E0B6
:104B800019E0F0EE6C1AB0EE4D0AF0EE6D0AFDF78A
:104B900063FAB0EE40BAF0EE60BA9FED0B0B53EC47
:104BA000102B51EC1B0BFBF753FC41EC1A0BFBF7E2
:104BB000FEFC286001E002203BE7002039E700000E
:104BC000000000000000804E6666666666A64C40E7
:104BD00070B50024FCF7B6F931A0FCF7F7FE00F041
:104BE00007F9002859D1782000F084FEC4B20CB136
:104BF000012070BD2FA0FCF7E9FE7820FFF7BAFE78
:104C0000C4B20CB10220F4E730A0FCF7DFFE642050
:104C100000F022FEC4B20CB10320EAE732A0FCF798
:104C2000D5FEFFF7F1F9C4B20CB10420E1E735A0DD
:104C3000FCF7CCFE3C48FFF7DBFD0546FFF70EFB1B
:104C4000C4B20CB10520D4E738A0FCF7BFFE40F297
:104C50007310FFF781F8C4B20CB10620C9E73AA07F
:104C6000FCF7B4FE6420FFF7C1FAC4B20CB1072010
:104C7000BFE73BA0FCF7AAFE3FA0FCF7A7FE012080
:104C800000F0E6FCC4B24FF47A7002F0D3F80CB135
:104C90000920AEE73DA0FCF799FE0020A9E700003F
:104CA00069696320696E69742073756363657373E2
:104CB0000A0000007365742073656E736F72732051
:104CC000737563636573730A000000007365742075
:104CD000636F6E666967757265206669666F2073BB
:104CE0007563636573730A007365742073616D7017
:104CF0006C65207261746520737563636573730AF4
:104D0000000000006C6F6164206D6F74696F6E202D
:104D10006472697665722066697277617265207364
:104D20007563636573730A00BC02002073657420A9
:104D30006F7269656E746174696F6E2073756363F9
:104D40006573730A00000000736574206665617402
:104D500075726520737563636573730A00000000E4
:104D6000736574206669666F20726174652073755F
:104D700063636573730A000073656C662074657302
:104D80007420737563636573730A00007365742020
:104D9000646D7020737461746520737563636573EB
:104DA000730A000001461148407A30B1012807D04B
:104DB000022808D003280CD108E0022008700BE07C
:104DC0000420087008E00820087005E01020087032
:104DD00002E04FF0FF30704700BF0448C07C18B1BC
:104DE00008784006000E08700020F4E790020020CA
:104DF0001CB580208DF80000654A1268917C644AD9
:104E0000526810786B460122FCF788F910B14FF018
:104E1000FF301CBD642002F00DF800208DF800006A
:104E20005B4A1268917C5A4A526810786B4601229C
:104E3000FCF774F910B14FF0FF30EAE7544A1268FA
:104E4000917D534A526810786B460622FCF7F2F8BF
:104E500010B14FF0FF30DCE79DF80500C007400FB0
:104E60009DF8031001F0010140EA41009DF8011096
:104E700001F0010140EA010494B1012C03D10121A8
:104E80004348C17431E0022C03D100214048C17471
:104E90002BE021463FA0FCF799FD4FF0FF30B8E72B
:104EA0003B4A1268D1783A4A526810786B46012220
:104EB000FCF7C0F810B14FF0FF30AAE79DF80000F2
:104EC00000F00F042CB93D48FCF780FD4FF0FF3097
:104ED0009FE7042C06D13AA0FCF778FD01212C486D
:104EE000C17402E000212A48C174FF212848817260
:104EF000FF2027490872FF2125484172C1724FF6F1
:104F0000FF71C181FF21017481740121017380F857
:104F10002210002180F823104175017516300160C0
:104F200041608160163880F8241080F82510C18413
:104F30004FF4FA6000F0D4FB10B14FF0FF3068E797
:104F4000022000F09DFA10B14FF0FF3061E72A20F7
:104F500000F040FC10B14FF0FF305AE7322000F073
:104F60007BFC10B14FF0FF3053E70020FFF702FD4C
:104F700010B14FF0FF304CE7002000F0C3FA10B141
:104F80004FF0FF3045E7002000F0B4FC002040E780
:104F900090020020556E737570706F727465642096
:104FA000736F6674776172652070726F6475637475
:104FB000207265762025642E0A000000908C00087F
:104FC00048616C662073656E73697469766974797B
:104FD000207061727420666F756E642E0A00000086
:104FE0002DE9F04385B005460E469046994629487E
:104FF00090F8250020B14FF0FF3005B0BDE8F083F8
:1050000016B94FF0FF30F8E7002423E0281B1028E2
:1050100001DD102000E0281B87B2321939462046F6
:1050200000F0D0FC10B14FF0FF30E6E701AA39469E
:10503000204600F001F910B14FF0FF30DDE73019E4
:105040003A4601A9FBF750F910B16FF00100D4E71F
:10505000E01984B2AC42D9DB4FEA28208DF8000079
:1050600008F0FF008DF801000A4A1268917E094A93
:10507000526810786B460222FCF750F810B14FF0DE
:10508000FF30BAE70121034880F82510A0F82690E8
:105090000020B2E79002002038B50446282C02DD3B
:1050A0004FF0FF3038BDDCB9002000F05DFB002080
:1050B0008DF8000007208DF801002E4A1268917CBF
:1050C0002C4A526810786B460222FCF727F810B180
:1050D0004FF0FF30E6E70021264801750020E1E7A8
:1050E000012000F041FB20208DF80000012C06D1AA
:1050F00000208DF80100052000F06CFB17E0052C66
:1051000006DC01208DF80100052000F063FB0EE0B5
:10511000142C06DC02208DF801000A2000F05AFB56
:1051200005E003208DF80100142000F053FB9DF8EA
:105130000100072101EB8010C0B28DF801000D4A7B
:105140001268917C0B4A526810786B460222FBF77A
:10515000E5FF10B14FF0FF30A4E708210548817248
:1051600000210173012101750020FFF703FC0020DD
:1051700098E7000090020020F8B504460F46164656
:105180002C4890F8240010B94FF0FF30F8BD2948A2
:10519000807A10B94FF0FF30F8E7264A1268917A0A
:1051A000244A526810786B460222FBF743FF10B185
:1051B0004FF0FF30EAE79DF801009DF8001040EA4B
:1051C0000125A54203DA00203070401EDEE71948B1
:1051D00040684088B5EB600F17DD164A1268517CB5
:1051E000144A526810786B460122FBF723FF10B176
:1051F0004FF0FF30CAE79DF8000000F0100020B12A
:1052000000F05AF86FF00100C0E7E2B2094B1B68EA
:10521000D97A084B5B6818783B46FBF70BFF10B157
:105220004FF0FF30B2E795FBF4F0401E30700020E5
:10523000ACE7000090020020F8B504460D46164683
:1052400016B94FF0FF30F8BD1A48807A10B94FF008
:10525000FF30F8E720128DF80000E0B28DF8010071
:105260009DF801002844134949684989884202DDB4
:105270004FF0FF30E7E70F4A1268117E0D4A52687F
:1052800010786B460222FBF749FF10B14FF0FF3058
:10529000D9E7EAB2074B1B68597D064B5B68187863
:1052A0003346FBF7C7FE10B14FF0FF30CBE70020CD
:1052B000C9E700009002002008B57048807A10B954
:1052C0004FF0FF3008BD002000906C4A1268D17B7F
:1052D0006A4A526810786B460122FBF71FFF10B133
:1052E0004FF0FF30EEE7654A12685179634A526821
:1052F00010786B460122FBF711FF10B14FF0FF3021
:10530000E0E75E4A126811795C4A526810786B4691
:105310000122FBF703FF10B14FF0FF30D2E75748EF
:1053200090F82400002853D00C200090534A1268B3
:105330001179524A526810786B460122FBF7EEFE53
:1053400010B14FF0FF30BDE7322001F073FDC020F7
:1053500000904A48807A00F0010020B19DF80000DA
:1053600040F020000090454A12681179434A526883
:1053700010786B460122FBF7D1FE10B14FF0FF30E1
:10538000A0E73E48407C10B10220009001E00020E0
:1053900000903A4A1268D17B384A526810786B46BE
:1053A0000122FBF7BBFE10B14FF0FF308AE700206F
:1053B0000090324A12685179304A526810786B4630
:1053C0000122FBF7ABFE002855D04FF0FF3079E704
:1053D00004200090294A12681179284A52681078EE
:1053E0006B460122FBF79AFE10B14FF0FF3069E7E0
:1053F0002248807C20B92148807A00F0010010B951
:105400004020009001E0602000901C4A1268117951
:105410001A4A526810786B460122FBF77FFE10B1E2
:105420004FF0FF304EE7322001F004FD1348407C7E
:1054300010B10120009001E0002000900F4A126896
:10544000D17B0E4A526810786B460122FBF766FE4C
:1054500010B14FF0FF3035E7084A12685179074A1A
:1054600052681078054B10330122FBF757FE10B13C
:105470004FF0FF3026E7002024E7000090020020D4
:1054800038B504461E48807A10B94FF0FF3038BD59
:10549000022C06D0042C07D0082C08D0102C0CD1DC
:1054A00008E0002000900BE00820009008E01020A9
:1054B000009005E01820009002E04FF0FF30E6E792
:1054C00000BF0F48407A9DF80010B0EBE10F01D10A
:1054D0000020DCE70A4A1268D179094A526810783C
:1054E0006B460122FBF71AFE10B14FF0FF30CEE7FA
:1054F0009DF80000C110024841720020C7E700007B
:105500009002002038B504465048807CA04201D16A
:10551000002038BD002C46D04C4A126811794B4A05
:10552000526810786B460122FBF784FD10B14FF0F2
:10553000FF30EEE79DF8000020F020000090434A85
:1055400012681179414A526810786B460122FBF7C4
:10555000E5FD10B14FF0FF30DBE7032001F06AFCFE
:1055600002200090394890F8220020B19DF80000F8
:1055700040F080000090354890F8230020B19DF85D
:10558000000040F030000090304A1268117D2F4A30
:10559000526810786B460122FBF7C0FD002851D0FD
:1055A0004FF0FF30B5E7294A12681179274A52684F
:1055B00010786B460122FBF73DFD10B14FF0FF3034
:1055C000A7E72248807A00F0010028B19DF800008A
:1055D00040F02000009004E09DF8000020F0200042
:1055E00000901A4A12681179184A526810786B466E
:1055F0000122FBF793FD10B14FF0FF3089E7032044
:1056000001F018FC114890F8220010B180200090A1
:1056100001E0002000900D4890F8230020B19DF893
:10562000000040F030000090084A1268117D074ADF
:10563000526810786B460122FBF770FD10B14FF0F5
:10564000FF3066E701488474002062E79002002082
:1056500038B50446214890F82400A04201D100202A
:1056600038BD24B31D4890F8250010B94FF0FF3025
:10567000F6E7002001F078F90020FFF743FF174913
:10568000C88C00F0E9F800200090144949680878B7
:105690006B4601222321FBF741FD01210F4880F8D1
:1056A0002410012001F060F9FFF706FE13E000204E
:1056B00001F05AF90948007C0090084949680878C7
:1056C0006B4601222321FBF729FD0021034880F8C6
:1056D0002410FFF7F1FD0020C2E700009002002037
:1056E00038B504461F48807A10B94FF0FF3038BDF6
:1056F000FA2C09D0B4F5FA7F09D0B4F57A7F09D035
:10570000B4F5FA6F0CD108E0002000900BE00820FF
:10571000009008E01020009005E01820009002E0C2
:105720004FF0FF30E3E700BF0E48007A9DF800100D
:10573000B0EBE10F01D10020D9E70A4A1268917954
:10574000084A526810786B460122FBF7E7FC10B15B
:105750004FF0FF30CBE79DF80000C0100149087200
:105760000020C4E79002002038B50446184890F89D
:105770002300A04201D1002038BD14B13020009098
:1057800001E0002000901248807C20B19DF80000CC
:1057900040F0020000900E4890F8220020B19DF8E1
:1057A000000040F080000090094A1268117D084A0C
:1057B000526810786B460122FBF7B0FC10B14FF035
:1057C000FF30D9E7024880F823400020D4E70000EA
:1057D0009002002038B504461E48807A10B94FF078
:1057E000FF3038BDBC2C02DB0120009015E0622C9C
:1057F00002DB0220009010E02A2C02DB0320009044
:105800000BE0142C02DB0420009006E00A2C02DBE3
:105810000520009001E0062000900E48C07A9DF817
:105820000010884201D10020DBE70A4A1268917813
:10583000084A526810786B460122FBF76FFC10B1E2
:105840004FF0FF30CDE79DF800100248C1720020F4
:10585000C7E700009002002038B504462448807A4B
:1058600010B94FF0FF3038BD214890F8240010B136
:105870004FF0FF30F7E71E48007D50B134B1282CBF
:1058800004DCE0B2FFF708FC0020ECE70020FFF7A3
:1058900003FC042C01DA042404E0B4F57A7F01DD72
:1058A0004FF47A744FF47A7090FBF4F0401EC0B25B
:1058B00000900F4A126851780D4A526810786B4672
:1058C0000122FBF72BFC10B14FF0FF30CBE79DF826
:1058D0000000401C4FF47A7191FBF0F081B2044853
:1058E000C1810146C9894810FFF774FF0020BAE75B
:1058F0009002002038B5044604F0700010B1012079
:10590000009005E014B10020009001E040200090DC
:105910002B4A1268917C2A4A526810786B46012201
:10592000FBF7FCFB20B1002125488172481E38BDE1
:105930009DF8000020F040012148017300200090F4
:1059400004F0400020B99DF8000040F004000090F1
:1059500004F0200020B99DF8000040F00200009003
:1059600004F0100020B99DF8000040F00100009004
:1059700004F0080020B99DF8000040F038000090C5
:105980000F4A1268D17C0E4A526810786B46012289
:10599000FBF7C4FB20B1002109488172481EC6E70D
:1059A00024B1082C02D00020FFF7DEFE04488472E8
:1059B00000210175322001F03DFA0020B7E7000018
:1059C00090020020F8B504460D46164616B94FF071
:1059D000FF30F8BD1A48807A10B94FF0FF30F8E771
:1059E00020128DF80000E0B28DF801009DF8010052
:1059F0002844134949684989884202DD4FF0FF3045
:105A0000E7E70F4A1268117E0D4A526810786B461C
:105A10000222FBF783FB10B14FF0FF30D9E7EAB267
:105A2000074B1B68597D064B5B6818783346FBF7BC
:105A300075FB10B14FF0FF30CBE70020C9E7000045
:105A40009002002010B504462CB14FF48061074845
:105A5000FAF73FFC06E04FF0FF324FF48061034855
:105A6000FAF730FC00F004F810BD0000D00200206E
:105A700070B500241CE004F1B001C8B20021FEF7AB
:105A800079FE00210846FEF775FE00211020FEF782
:105A900071FE002508E0084901EBC411485D402172
:105AA000FEF768FE681CC5B2802DF4DB601CC4B232
:105AB000082CE0DB70BD0000D00200202DE9F0478B
:105AC00004460E4690469946002522E006F1B001B4
:105AD0002944C8B20021FEF74DFE04F00F0000215A
