:020000040800F2
:10000000283801207D020008C5130008130E0008DF
:1000100029130008DD0B0008F71B00080000000092
:10002000000000000000000000000000C501000802
:10003000E10B000800000000190200086917000821
:10004000970200089702000897020008970200082C
:100050009702000897020008490C00089702000860
:10006000970200089702000897020008970200080C
:1000700097020008970200089702000897020008FC
:1000800097020008970200089702000897020008EC
:1000900097020008970200089702000897020008DC
:1000A00097020008970200089702000897020008CC
:1000B00097020008970200089702000897020008BC
:1000C00097020008970200089702000897020008AC
:1000D00097020008E5190008151A000897020008A1
:1000E000970200089702000897020008970200088C
:1000F000970200089702000897020008970200087C
:10010000970200089702000897020008970200086B
:1001100097020008970200080518000897020008D7
:10012000970200089702000897020008970200084B
:10013000970200089702000897020008970200083B
:10014000970200089702000897020008970200082B
:10015000970200089702000897020008970200081B
:10016000970200089702000897020008970200080B
:1001700097020008970200089702000897020008FB
:1001800097020008970200089702000897020008EB
:1001900097020008970200089702000897020008DB
:1001A000970200089702000897020008DFF810D0B5
:1001B00000F0F4FB00480047E14D0008AFF3008079
:1001C000283801202A4B19680868B0E8F04F80F3FE
:1001D0000988BFF36F8F4FF0000080F311887047DC
:1001E0000000000006480068006880F3088862B6D6
:1001F00061B6BFF34F8FBFF36F8F00DF00BF00BF4B
:1002000008ED00E0DFF80C00016841F470010160C6
:10021000704700BF88ED00E0EFF30980BFF36F8FF8
:10022000134B1A681EF0100F08BF20ED108A20E94A
:10023000F04F106008B44FF0500080F31188BFF306
:100240004F8FBFF36F8F07F01FFB4FF0000080F35D
:10025000118808BC19680868B0E8F04F1EF0100F4C
:1002600008BFB0EC108A80F30988BFF36F8F704726
:1002700034010020EFF305807047000006488047F6
:1002800006480047FEE7FEE7FEE7FEE7FEE7FEE77B
:10029000FEE7FEE7FEE7FEE79D170008AD01000858
:1002A00040EA01039B0703D009E008C9121F08C0F8
:1002B000042AFAD203E011F8013B00F8013B521E78
:1002C000F9D27047D2B201E000F8012B491EFBD2EF
:1002D00070470022F6E710B513460A460446194651
:1002E000FFF7F0FF204610BD30B50446002003465E
:1002F00000E05B1C934203D2E05CCD5C401BF8D075
:1003000030BD2DE9FE4F804681EA0300C00F0C4648
:10031000009021F0004123F00045B8EB0200A94114
:1003200005D24046214690461C460B46024623F025
:100330000040104347D0270DC7F30A00C3F30A510A
:100340000290401A019040286BDAC3F3130040F486
:10035000801B0098924620B10023D2EB030A63EB86
:100360000B0B01985946C0F14002504600F082F94B
:1003700006460D4650465946019A00F09AF910EB90
:1003800008006141002487EA115284EAE7731A43A6
:1003900040D0009A62B3019A012A4FEA075215DC55
:1003A000001B61EB02014FF0004202EA0752CDE967
:1003B0000042001C41F5801132462B4600F0D1F975
:1003C00003B0BDE8F08F40462146F9E7001B61EB22
:1003D0000201001C41F5801300185B412018A2F5B2
:1003E000001747EB030140EAD570B6196D4111E0E3
:1003F0006D084FEA360645EAC0754FEA0752001B02
:1004000061EB0201001C41F5801149084FEA300000
:100410000019514132462B4603B0BDE8F04F00F0C1
:1004200091B90098012240000023D0EB020263EB57
:10043000E073009821464FEAE074B8EB000061EBEE
:100440000401E9E783F000435BE781F0004158E7EE
:100450002DE9FE4F81EA030404F0004421F000413D
:1004600000944FF0000B23F0004350EA01045ED0EB
:1004700052EA03045BD0C3F30A54C1F30A552C4477
:10048000A4F2F3340194A0FB0254C1F3130141F42C
:100490008011C3F3130343F4801301FB024400FBF8
:1004A000034E840A970A44EA815447EA8357A4FB1F
:1004B000076802958D0A05FB07854FEA932C04FB1C
:1004C0000C542705029D4FEA065847EA1637B5EB4C
:1004D00008056EEB070C870E920E47EA811742EA79
:1004E0008312A7FB0201B6EB0B0164EB00042B0D9A
:1004F00043EA0C335E1844EB1C50DA465146E7FBE6
:100500000201C5F313044FEA0B3343EA14534FEAD5
:100510000432019C43EA0603A4F10C040294009CFB
:10052000CDE900B400F01DF903B0BDE8F08F002064
:100530000146F9E70EB5C10F80EAE0700844CA072A
:10054000002140F233438DE80E000A460B4600F0CE
:1005500008F903B000BDC1F30A5210B5C1F313018D
:1005600040F2FF3341F480119A4201DA002010BDBD
:1005700040F233439A42A2F2334203DC524200F08B
:1005800088F810BD904010BD00F0004230F00040EF
:100590000AD0C10D01F56071C0F3160042EA0151A5
:1005A000C20840071143704700200146704701F020
:1005B000004330B421F0004150EA010206D00A0D98
:1005C000A2F56072C1F31301002A02DC30BC0020E6
:1005D0007047440F44EAC104C100E01830BC00EB8E
:1005E000C25000F078B830B50B46014600202022FA
:1005F000012409E021FA02F59D4205D303FA02F530
:10060000491B04FA02F52844151EA2F10102F1DC8F
:1006100030BD2DE9F05F0546002092469B46884696
:100620000646814640241BE028464146474622466E
:1006300000F02FF853465A46C01A914110D3114684
:100640001846224600F016F82D1A67EB01084F46AF
:1006500022460120002100F00DF817EB00094E4161
:10066000201EA4F10104DFDC484631462A464346F9
:10067000BDE8F09F202A04DB203A00FA02F10020B6
:1006800070479140C2F1200320FA03F319439040D0
:100690007047202A04DB203A21FA02F0002170473B
:1006A00021FA02F3D040C2F12002914008431946DA
:1006B0007047202A06DBCB17203A41FA02F043EAC2
:1006C000E07306E041FA02F3D040C2F1200291400B
:1006D0000843194670470029A8BF7047401C4900CD
:1006E00008BF20F00100704710B4B0FA80FC00FA97
:1006F0000CF050EA010404BF10BC704749B1CCF1C2
:10070000200421FA04F411FA0CF118BF012121434D
:100710000843A3EB0C01CB1D4FEA00614FEA102008
:1007200042BF002010BC704700EBC35010440029AA
:10073000A4BF10BC7047401C490008BF20F0010056
:1007400010BC704710B5141E73F1000408DA401C89
:1007500041F1000192185B411A4301D120F00100E0
:1007600010BD2DE9F04D92469B4611B1B1FA81F2D0
:1007700002E0B0FA80F220329046FFF77BFF044699
:100780000F4640EA0A0041EA0B0153465A46084325
:1007900013D0114653EA010019D0C8F14002504667
:1007A000FFF777FF05460E46504659464246FFF78B
:1007B00061FF084305D0012004E020463946BDE82A
:1007C000F08D0020054346EAE0762C4337430A9833
:1007D0006305E40AA0EB08000022FD0A44EA47543E
:1007E0000A3002D500200146E9E7010510196941E8
:1007F000DDE9084500196941BDE8F04DA2E72DE9A2
:10080000F04D81EA030404F0004B21F0004514464A
:100810004FF0000A23F0004150EA050220D054EACC
:1008200001021DD0C5F30A570246C5F31303C1F3F5
:100830001300C1F30A5640F4801543F48013A7EB6C
:100840000608101BD64608F2FD3873EB050002D3EC
:1008500008F1010801E092185B41B8F1000F03DADA
:1008600000200146BDE8F08D00204FF480110646BF
:1008700084460EE0171B73EB050705D3121B63EBD1
:10088000050306434CEA010C49084FEA3000921870
:100890005B4150EA0107EDD152EA030012D082EA2F
:1008A000040083EA0501084305D0101BAB4106D2C2
:1008B0000122002306E000224FF0004302E06FF027
:1008C000010253101AEB06004CEB085110EB0A0022
:1008D00041EB0B01BDE8F04DFFF734BF70B521F0DF
:1008E000004303430CD0C1F30A550024D5EB0405A3
:1008F00064EB0403D617AD1AB34102DB00200146B6
:1009000070BD201841EB025170BDC1F30A52C1F312
:10091000130140F2FF3341F480119A4202DA0020C1
:100920000146704740F233439A42A2F2334202DC5E
:100930005242FFF7AEBEFFF79DBE000030B5041E69
:1009400071F1000404DB4FF00044404264EB01010C
:10095000141E73F1000405DB1C464FF000435242A5
:1009600063EB04038B4208BF824230BD30B5041EE6
:1009700071F1000404DB4FF00044404264EB0101DC
:10098000141E73F1000405DB1C464FF00043524275
:1009900063EB0403994208BF904230BD064C074DFB
:1009A00006E0E06840F0010394E80700984710343F
:1009B000AC42F6D3FFF7FEFBD8930008F89300088B
:1009C0002DE9F04D00231A461B1A8A4103DB002053
:1009D0000146BDE8F08DC1F30A52C1F3130141F4A1
:1009E00080154FF0000BD10702D100186D41521E47
:1009F0000027044640F2FF11384601EB620A3E46EA
:100A00008046024600204FF48011FFF742FEC219D3
:100A10007141BB1846EB0100B4EB030C75EB000C05
:100A200004D3E41A65EB000517460E46241908F1B5
:100A300001006D4180463428E3DDF91946EB0600DC
:100A4000091BA84103D24FF0FF32134601E00022F8
:100A500013461BEB070046EB0A51BDE8F04DFFF7CC
:100A600071BE70B58D1810F8014B14F0030201D15E
:100A700010F8012B231106D110F8013B03E010F808
:100A8000016B01F8016B521EF9D1ABB110F8012BCB
:100A900004F00C048A1A0C2C03D0A2EB84129B1CC9
:100AA00008E010F8014BA2EB0422F8E712F8014B22
:100AB00001F8014B5B1EF9D5A942D4D3002070BDCB
:100AC0007FB5054606F048FF00F08CF84FF4A060B3
:100AD00000F0B6FC002421A001F090F80FE006F031
:100AE0003BFF012006F024FD601C84B20A2C03DDCC
:100AF0001EA001F083F806E021A001F07FF804F0C9
:100B0000E5FA0028EBD100BF1FA001F077F806F04E
:100B100023FF06F023FB21A001F070F800F008FB92
:100B20000020039003A8032100234FF40062CDE9C5
:100B3000001020A1234807F0A1FA0020029002A88B
:100B4000022100238A02CDE900101FA1224807F0EC
:100B500095FA002006F01AFD7FBD0000646D70203C
:100B6000696E6974696E670A000000000A646D703E
:100B700020696E6974206572726F720A000000004D
:100B80007265696E69740A000A646D7020696E6925
:100B90007420737563636573730A00007373643143
:100BA0003330365F696E6974207375636365737380
:100BB0000A0000005461736B5F4D5055363035307C
:100BC00000000000F11800085461736B5F53534438
:100BD00031333036000000004D19000800BFFEE739
:100BE000704700001FB50121102000F043FC0020D9
:100BF0000190029003902C20ADF804000020ADF885
:100C00000600012002900020ADF80C008DF80E00C7
:100C100001A90C4800F02AFE01221146094800F003
:100C20001BFE0020009036208DF8000002208DF879
:100C300001008DF8020001208DF80300684600F0E5
:100C4000C3FB1FBD0010004010B5012000F020F8CC
:100C500080B109A000F0D2FF0948007808B901204E
:100C600000E0002006490870012005F09DF90120F0
:100C700000F008F810BD000070726573730A000080
:100C8000880200200149086070470000143C0140C0
:100C900001460020034A12680A400AB1012000E020
:100CA00000207047143C0140002123498279002A2A
:100CB0003AD00A46126803689A430B461A600A1D26
:100CC000126803689A430B1D1A60027911440A687E
:100CD00003681A430A60184A0832126803689A4384
:100CE000154B08331A601A1D126803689A43124B99
:100CF0000C331A604279102A0ED11A1F1268036849
:100D00001A430D4B08331A601A1D126803681A4300
:100D1000094B0C331A600DE00749427911440A6807
:100D200003681A430A6005E0027911440A680368FF
:100D30009A430A6070470000003C0140F0B50A4643
:100D400000210023002400BF3DE0012505FA01F346
:100D5000156805EA03049C4234D105684F00032658
:100D6000BE40B543056015794E00B5400668354371
:100D700005601579012D02D01579022D16D18568EF
:100D80004F000326BE40B543856055794E00B540FF
:100D9000866835438560456801268E40B5434560C9
:100DA000456896798E40B6B235434560C5684F00B8
:100DB0000326BE40B543C560D5794E00B540C66830
:100DC0003543C560491C1029BFD3F0BDF0B50023E1
:100DD00000244D07ED0E02FA05F3CE1000F12005B8
:100DE00055F826504E07F70E0F26BE40B543CF10DC
:100DF00000F1200646F82750CE1000F1200555F8E6
:100E0000265045EA0304CE1000F1200545F826409F
:100E1000F0BD00BFFEE721B1028842F4806202808B
:100E200004E002884FF6FF331A400280704770B525
:100E300002460024002500230020958A138B1B0402
:100E400045EA030626F07F4404EA01068E4201D1FA
:100E5000012000E0002070BD21B1028842F00102B3
:100E6000028004E002884FF6FE731A400280704749
:100E700010B504461348844209D10121480500F009
:100E800009FB00214FF4001000F004FB18E00E48AD
:100E9000844209D10121880500F0FCFA00214FF4B9
:100EA000800000F0F7FA0BE00848844208D10121E5
:100EB000C80500F0EFFA00214FF4000000F0EAFA54
:100EC00010BD00000054004000580040005C00408D
:100ED00021B1028842F48072028004E002884FF659
:100EE000FF631A400280704721B1028842F4007209
:100EF000028004E002884FF6FF531A4002807047D8
:100F00000CB50246002000230193009300920B0FC2
:100F1000019321F07F41019B1BB1009B143300938F
:100F200003E0090C009B18330093009B1B680B40E7
:100F30000BB1012000E000200CBD00002DE9FF47AF
:100F400004460D460026B1460427DFF8CC80A6886B
:100F50004FF6C0700640684600F0BCFADDF8088025
:100F60002E48B8FBF0F01FFA80F946EA0906A68081
:100F700020884FF6FE710840208000262849286806
:100F800088420CD828684000B8FBF0F087B2042FE4
:100F900000DA04273E4309F10100208427E0E888B5
:100FA0004BF6FF71884206D1286800EB4000B8FB81
:100FB000F0F087B209E0286800EBC00101EB0010F7
:100FC000B8FBF0F087B247F48047C7F30B0008B9CD
:100FD00047F0010747F4004006434FF4967009FBC1
:100FE00000F04FF47A7190FBF1F0401C2084A6834E
:100FF000208840F00100208026884FF6F53006401A
:10100000A8886989084306432680A8892989084356
:101010002081BDE8FF87000000127A0040420F00E7
:10102000A08601000146088AC0B2704712B141F0A3
:10103000010101E001F0FE01018270470182704769
:1010400000B587B00121022000F004FA01218805D3
:1010500000F010FA2248FFF70BFF002005900690E1
:101060004FF44060059002208DF8180001208DF8A3
:101070001A0003208DF8190001208DF81B0005A926
:101080001848FFF75BFE04220A211648FFF79EFE70
:1010900004220B211348FFF799FE002001900290D3
:1010A000039004904FF48060ADF80E000001ADF89D
:1010B00010000D4801904BF6FF70ADF80A000020BB
:1010C000ADF808000120ADF80C0001A90448FFF7B5
:1010D00035FF01210248FFF7BFFE07B000BD000049
:1010E0000058004000040240801A06004CF6CC4034
:1010F0000149086070470000003000404AF6AA200D
:101100000149086070470000003000400149486014
:1011100070470000003000400149886070470000BF
:101120000030004001490860704700000030004076
:1011300000B585B00121084600F08CF90121880333
:1011400000F0B8F90120039000208DF81000022073
:101150008DF8130003208DF8110003A91248FFF742
:10116000EDFD0021084600F04FFA0120019000201B
:101170008DF8080008208DF8090001208DF80A007C
:1011800001A8FFF791FD06208DF8000002208DF8E0
:1011900001008DF8020001208DF80300684600F080
:1011A00013F905B000BD0000000002402DE9F04138
:1011B00004460F4615461E4600BF4FF40031324824
:1011C000FFF79EFE0128F8D001212F48FFF780FE8F
:1011D00000BF2E492C48FFF72AFE0128F9D16006EE
:1011E000010E00222848FFF721FF00BF28492648AA
:1011F000FFF71DFE0128F9D139462348FFF71EFFEE
:1012000000BF2349891E2048FFF711FE0128F8D1AD
:1012100001211D48FFF75CFE00BF1C491A48FFF77B
:1012200006FE0128F9D16006010E01221648FFF7DB
:10123000FDFE00BF1549491C1348FFF7F8FD0128C2
:10124000F8D115E03DB900210F48FFF7E4FD012179
:101250000D48FFF749FE00BF0C493F310A48FFF730
:10126000E6FD0128F8D10848FFF7DCFE3070761C57
:10127000281EA5F10101CDB2E4D101210248FFF7FA
:10128000CAFD0020BDE8F0810058004001000300C5
:10129000820007002DE9F0410546884616461F46A4
:1012A00001211E48FFF714FE00BF1D491B48FFF730
:1012B000BEFD0128F9D16806010E00221748FFF78C
:1012C000B5FE00BF17491548FFF7B1FD0128F9D158
:1012D00041461248FFF7B2FE00BF1249891E0F486F
:1012E000FFF7A5FD0128F8D100240DE0395D0B487A
:1012F000FFF7A4FE00BF0B49891E0848FFF797FDC2
:101300000128F8D1601CC4B2B442EFDB01210348CC
:10131000FFF7EAFD0020BDE8F08100000058004022
:10132000010003008200070000BFFEE710B586B091
:1013300004460121084600F08DF800200490059035
:1013400002208DF8140000208DF816004FF4C060C4
:10135000049000208DF8170002208DF8150004A9D4
:101360001648FFF7EBFC072209211448FFF72EFD72
:1013700007220A211148FFF729FD0121102000F062
:1013800099F8002000900190029003900094ADF82D
:101390000C000C20ADF80A000020ADF80800ADF8F4
:1013A0000600ADF804006946054800F0B1FB0121D4
:1013B000034800F06AFB06B010BD000000000240C8
:1013C000001001407047000070B5002100230F227B
:1013D000C4781CB3174C246804F4E064C4F5E064DA
:1013E000C4F30721C1F10404E3B20A4144789C40EC
:1013F000E1B28478144021430C07210E0E4C05788D
:101400006155047804F01F050124AC4005786D1186
:10141000AD0005F1E025C5F8004109E0047804F0CD
:101420001F050124AC40054D0678761145F826408D
:1014300070BD00000CED00E000E400E080E100E0A1
:1014400002490143024A1160704700000000FA059A
:101450000CED00E029B1064A12680243044B1A6001
:1014600004E0034A12688243014B1A60704700008F
:101470003038024029B1064A12680243044B1A6010
:1014800004E0034A12688243014B1A60704700006F
:101490004038024029B1064A12680243044B1A60E0
:1014A00004E0034A12688243014B1A60704700004F
:1014B0002038024029B1064A12680243044B1A60E0
:1014C00004E0034A12688243014B1A60704700002F
:1014D00044380240F0B500210022002402250026F5
:1014E0000223324F3F6807F00C0121B1042905D0D7
:1014F000082937D105E02E4F076036E02D4F0760F1
:1015000033E02A4F3F1F3F68C7F38056274F3F1FE6
:101510003F6807F03F036EB1264FB7FBF3F7DFF8E4
:101520008CC0ACF1040CDCF800C0CCF3881C07FBC9
:101530000CF40CE01E4FB7FBF3F7DFF870C0ACF112
:10154000040CDCF800C0CCF3881C07FB0CF4174F2C
:101550003F1F3F68C7F301477F1C7D00B4FBF5F7D1
:10156000076002E0124F076000BF00BF0F4F3F68E7
:1015700007F0F0010909104F7A5C0768D74047600F
:101580000A4F3F6807F4E051890A0B4F7A5C4768BD
:10159000D7408760054F3F6807F46041490B064F0D
:1015A0007A5C4768D740C760F0BD00000838024049
:1015B0000024F40040787D010000002010B50146B1
:1015C0000022002300204A11012A02D10A4C23687C
:1015D00008E0022A03D1084C7034236802E0064C6C
:1015E0007434236801F01F02012494401C400CB1A4
:1015F000012000E0002010BD0038024001490860D1
:1016000070470000800E474230B500228B071C0F48
:101610000F2303FA04F20B4B8C1053F8243093433E
:10162000084C8D1044F8253023468C1053F8243094
:101630008C07240F00FA04F42343024C8D1044F865
:10164000253030BD083801400CB5002001900090D5
:101650004148006840F480303F49086000BF3E4880
:10166000006800F4003000900198401C0190009840
:1016700018B90198B0F5A04FF1D13748006800F4CF
:10168000003010B10120009001E00020009000988F
:10169000012860D130484030006840F080502E4929
:1016A000403108602D48006840F440402B490860F4
:1016B0002948083000682849083108600846006851
:1016C00040F4004008600846006840F4A0500860FC
:1016D0002348091F0860081F006840F08070091F38
:1016E000086000BF1C48006800F000700028F9D0B6
:1016F0001A48006840F480301849086000BF174855
:10170000406800F480300028F9D01448006840F4A4
:1017100000301249086000BF1048406800F40030F3
:101720000028F9D040F205700E4908600A480830D8
:10173000006820F003000849083108600846006886
:1017400040F00200086000BF03480830006800F065
:101750000C000828F8D10CBD003802400070004091
:10176000195A4007003C024010B500BF502080F3DA
:101770001188BFF34F8FBFF36F8F00BF06F0C4FC1B
:1017800018B14FF080500449086000BF002080F37A
:10179000118800BF10BD000004ED00E010B5154831
:1017A000006840F47000134908601348006840F076
:1017B00001001149086000200F49083108600E48F7
:1017C00000680E4908400C4908600D48091D086072
:1017D000081F006820F48020091F086000200649C7
:1017E0000C310860FFF730FF4FF00060014980398D
:1017F000086010BD88ED00E000380240FFFFF6FEF3
:101800001030002410B50121074800F014F8012819
:1018100008D106480068401E0449086001210248BA
:1018200000F006F810BD0000001000402800002065
:10183000CA430282704730B50246002000230024CC
:10184000158A05EA0103958905EA010413B10CB173
:10185000012000E0002030BD1AB183890B43838151
:1018600002E083898B438381704700000022028855
:10187000184B98420ED0184B98420BD0B0F1804FC5
:1018800008D0164B984205D0154B984202D0154B04
:10189000984204D14FF68F731A404B881A43124B6B
:1018A000984207D0114B984204D04FF6FF431A409C
:1018B0000B891A4302804B68C3620B880385054B72
:1018C000984202D0044B984201D18B7A03860123BF
:1018D0008382704700000140000401400004004082
:1018E00000080040000C00400010004000140040C0
:1018F00006F032F80FA000F081F919E006F02CF89C
:101900000620012181400F4A430942F8231000BFFD
:101910000D4803F095FA062001218140420992000A
:1019200002F1E022C2F8001100BF012005F000FE24
:10193000E4E700005461736B5F4D5055363035302D
:101940000A00000080E100E0FC3301201FA000F04D
:1019500055F9642005F0ECFD36E005F08DFF1F48D9
:10196000007820BB1E4890ED000ABDEEC00A10EEC4
:10197000104A002C01DB214600E0614208460222A9
:10198000322102F02FFC164890ED010ABDEEC00A8C
:1019900010EE104A002C01DB214600E061420846AF
:1019A00002225A2102F01EFC04F014FB0AE00C484B
:1019B00090ED011AF0EE410A90ED001AB0EE410AE6
:1019C00002F080FB06F0F4FCC7E700005461736B83
:1019D0005F535344313330360A0000008802002040
:1019E000FC33012010B540F22551084800F066F89C
:1019F000012809D1054800F0F5F80549088040F2B2
:101A00002551024800F032F810BD000000100140DE
:101A10002400002010B50DA000F0F0F840F2255190
:101A20000D4800F04BF801280FD10B4800F0DAF810
:101A30000A49087008460278017809A000F0DEF82B
:101A400040F22551044800F011F810BD726563653D
:101A50006976653A00000000004400403001002033
:101A60002578202D2025630A0000000010B50022F3
:101A7000002340F66A14A14200D100BF0A120124DB
:101A80009440A3B2DC43048010BD21B1828942F4AA
:101A90000052828104E082894DF6FF731A408281F0
:101AA000704702460020B1F5007F00D100BF1388C7
:101AB0000B400BB1012000E00020704770B50246DA
:101AC000002400230025002040F66A16B14200D110
:101AD00000BFC1F3421501F01F03012606FA03F30C
:101AE000012D02D19689334006E0022D02D1168ADB
:101AF000334001E0968A33400C12012606FA04F4C2
:101B00001688344013B10CB1012000E0002070BDF4
:101B10002DE9FF4705460E460024A14600BFA0461A
:101B2000B08900B100BF2C8A24F44054F0880443EB
:101B30002C82AC8941F20C608443B088318908431F
:101B4000718908430443AC81AC8A24F44074B089A1
:101B50000443AC826846FFF7BDFC2048854202D0B2
:101B60001F48854202D1DDF80C9001E0DDF80890B5
:101B7000A88900F4004040B109EBC90000EB09104E
:101B800031684900B0FBF1F707E009EBC90000EB51
:101B9000091031688900B0FBF1F76420B7FBF0F061
:101BA00004012009642101FB1078A88900F4004099
:101BB00040B1322000EBC800B0FBF1F000F00700AC
:101BC000044308E0322000EB08106421B0FBF1F080
:101BD00000F00F0004432C81BDE8FF870010014096
:101BE0000014014001468888C0F308007047C1F323
:101BF00008028280704700BFFEE700000FB4054B6B
:101C000010B503A9044A029801F092FE10BC5DF8D9
:101C100014FB0000B94C0008C402002003B4019872
:101C20004100009850EAC12018BF04204A0D18BF97
:101C300040F0010040F2FF72B2EB515F08BF40F08C
:101C40000200012808BF052002B070470000000014
:101C500070B5C1482DED020B2DED0E8B82B0119D9C
:101C600025F000449FEDBEDB9FEDBFEB84423EDBE1
:101C7000A4F140511098A1F17F6108430FD0BC48F6
:101C8000844202DC28D1109830B39DED100B02B0D5
:101C9000BDEC0E8B02B0BDE8704001F02DBD9DED96
:101CA000100B53EC1D2B51EC100BFEF7D1FB9DEDEF
:101CB000100B41EC180B53EC1E2B51EC100BFEF7E4
:101CC000C7FB53EC182BFEF71CFB41EC100B02B0CA
:101CD000BDEC0E8B02B070BD012001F061FD02B0C1
:101CE000BDEC0E8B02B0BDE8704001F019BDA148FB
:101CF0009FEDA18B844256DA9DED100BB4F1795F14
:101D00000ADA51EC100BFFF789FF042808BF01F035
:101D100027FD9DED100BDAE753EC102B51EC100B67
:101D2000FEF796FB41EC190B95480621B0EE490AE7
:101D3000F0EE690A784401F04BFC53EC192B51EC9E
:101D4000100BFEF785FB41EC1A0B8E48B0EE490AEA
:101D5000F0EE690A0421784401F03AFC53EC192BA7
:101D600051EC100BFEF774FB53EC182BFEF7C9FA7D
:101D700041EC100B51EC1A0B53EC102BFEF73FFD0E
:101D8000CDE900019DED000B53EC102B9DED100BE8
:101D900051EC100BFEF75CFB9DED101B53EC112B6F
:101DA000FEF7AFFAD2E09DED100B51EC100B02F0F4
:101DB00077FF53EC182BFEF748FB9FED730BCDE933
:101DC000000153EC102B9DED000B51EC100BFEF7B6
:101DD0003FFB41EC190B6E480621B0EE490AF0EECC
:101DE000690A784401F0F4FB53EC192B51EC100B09
:101DF000FEF72EFB41EC1B0B6648B0EE490AF0EEF5
:101E0000690A0421784401F0E3FB53EC192B51ECEF
:101E1000100BFEF71DFB53EC182BFEF772FA41EC8A
:101E20001C0B51EC190B05F00DF941EC180B5A483D
:101E30009FED5BABA04222DC53EC1C2B51EC1B0B47
:101E4000FEF7DDFCCDE900019DED000B51EC180B18
:101E500053EC102BFEF7FCFA53EC182BFEF751FA5B
:101E600053EC1A2BFEF7F4FA53EC1D2BFEF7EAFAAB
:101E700053EC1E2BFEF7E9FA41EC100B5FE08DED01
:101E8000008B002000909DED000B51EC180B53ECE3
:101E9000102BFEF736FA9DED000B41EC1E0B53ECB8
:101EA000102B51EC100BFEF7D3FA53EC192BFEF765
:101EB000CCFA53EC1E2BFEF7A2FC41EC190B53ECB1
:101EC0001C2B51EC1B0BFEF79AFC41EC1B0B53EC4B
:101ED0001A2B51EC190BFEF7BBFA53EC1D2BFEF736
:101EE000B4FA41EC190B53EC1A2B51EC180BFEF71A
:101EF000AFFA53EC1B2BFEF7ABFA53EC192BFEF7A2
:101F0000A1FA9DED000B41EC180B53EC1A2B51EC90
:101F1000100BFEF79DFA9FED249B53EC192BFEF757
:101F200094FA41EC100B51EC180B53EC102BFEF70C
:101F300089FA53EC192BFEF788FA41EC100B002DAF
:101F40003FF7C5AE51EC100B81F0004141EC100B96
:101F5000BDE60000000000000000F03F00000000AF
:101F6000075C143326A6913C182D4454FB21F93FFD
:101F70000000F07F0000E03F000000000000F03FA4
:101F8000A0740000AE740000000000000000E03FFC
:101F9000F2730000007400003333EF3F00000000D4
:101FA0000000000000000040182D4454FB21E93FD0
:101FB00070B59B482DED020B2DED068B079D25F08E
:101FC0000044A04218DC9748844202DC0AD10698FB
:101FD00040B19DED060BBDEC068B02B0BDE8704034
:101FE00001F08ABB002DCCBF9FED8F0B9FED900BB6
:101FF000BDEC068B02B070BD8F48A04215DD8F4846
:10200000A042D8BF4FF0FF3458DD9DED060B51ECD8
:10201000100BFFF703FE042808BF01F0A1FB9DEDA4
:10202000060BBDEC068B02B070BD9DED060B51ECAE
:10203000100B02F035FECDE9060181489FED828B41
:10204000A0423CDD8248A0421FDD00249FED82AB10
:102050009DED060B53EC1A2B51EC100BFEF751F9CA
:102060009DED060B41EC190B53EC1A2B51EC100BA8
:10207000FEF7EEF953EC182BFEF7E4F953EC192BAD
:10208000FEF7BDFBCDE9060149E09DED060B0124FD
:1020900053EC182B51EC100BFEF733F99DED060BAA
:1020A00041EC190B53EC182B51EC100BFEF7CAF94D
:1020B00053EC192BFEF7A3FBCDE906012FE068488E
:1020C000A0421FDD02249FED689B9DED060B53ECA3
:1020D000192B51EC100BFEF7BBF953EC182BFEF744
:1020E00010F99DED060B41EC180B53EC192B51EC3C
:1020F000100BFEF7A7F953EC182BFEF780FBCDE988
:1021000006010CE09DED060B032453EC102B9FED14
:10211000580B51EC100BFEF772FBCDE906019DED5B
:10212000060B53EC102B51EC100BFEF791F941EC20
:10213000180B53EC182BFEF78BF941EC190B4E489A
:102140000621B0EE490AF0EE690A784401F040FA3F
:1021500053EC182B51EC100BFEF77AF941EC180BED
:102160004648B0EE490AF0EE690A0521784401F0CC
:102170002FFA53EC192B51EC100BFEF769F941ECD7
:10218000100B51EC180B53EC102B002C0EDAFEF751
:10219000B8F89DED061B53EC112BFEF759F99DED98
:1021A000061B53EC112BFEF750F935E0FEF7A9F8AA
:1021B0009DED061B53EC112BFEF74AF941EC100B79
:1021C0002F48784400EBC40090ED001B51EC100B3D
:1021D00053EC112BFEF736F99DED061B53EC112B3A
:1021E000FEF730F941EC100B2648784400EBC400B0
:1021F00090ED001B51EC100B53EC112BFEF725F961
:1022000041EC100B002DA2BFBDEC068B02B070BDDF
:1022100051EC100B81F0004141EC100B01E7000084
:10222000000010440000F07F182D4454FB21F93FBA
:10223000182D4454FB21F9BF0000DC3F0000203E74
:102240000000F33F00000000000000000000F03F2D
:102250000000E63F00000000000000000000004019
:102260000080034000000000000000000000F83F74
:10227000000000000000F0BFCA7100008071000083
:102280000A710000C270000070B56F4E2DED040B96
:102290002DED048B82B0DDF824C0DDE907235C421C
:1022A0002CF000411C4341EAD474069D22F000400A
:1022B000B44205D86C422C4340EAD474B4420BD9E2
:1022C0009DED081B9DED060B02B0BDEC048B04B028
:1022D000BDE8704001F01ABAACF14054A4F17F643B
:1022E0001C430BD0022404EAAC7444EAD2740543C4
:1022F0009FED578B9FED582B07D015E09DED060BFA
:1023000051EC100B01F097FE42E0002C11BF012CA4
:102310009DED060B02B0BDEC048B04BF04B070BD94
:10232000022C38D0032C3BD00B439FED4D1B9FED6F
:102330004E0B0AD0B14218D1B04209D121F08041F0
:1023400020F08040099107900FE0002A15DA10E094
:10235000474B7B44002C08BF93ED000B0DD0012CA4
:1023600010D0022C17D0032C1AD0B0421DD1002A55
:1023700003DAB0EE410AF0EE610A02B0BDEC048B64
:1023800004B070BD93ED000B51EC100B81F00041D7
:1023900041EC100BF1E7B0EE480AF0EE680AECE70A
:1023A000B0EE420AF0EE620AE7E7401A00159FED30
:1023B000329B3C28C8BF8DED000B17DCBCF1000F31
:1023C000BCBF10F13C0F8DED009B0FDB9DED080BAA
:1023D00053EC102B9DED060B51EC100BFEF70FFA92
:1023E00002F05EFC01F027FECDE90001B4B1012C42
:1023F00010D0022C9FED220B53EC102B9DED000B07
:1024000051EC100B19D0FEF71DF853EC182BFEF70A
:1024100019F8BDE7019880F0004001909DED000B98
:1024200053EC192B51EC100BFEF788FA04BF022075
:1024300001F0B6F99DED000B9FE7FEF703F853ECB2
:10244000182BFEF702F8A3E70000F07F0000000061
:10245000182D4454FB210940182D4454FB2109C078
:10246000182D4454FB21F9BF182D4454FB21F93F8A
:102470002A700000000000000000000000000000C2
:10248000075C143326A6A13C70B5D94B00242DED72
:10249000020B2DED108BDDE91010984205DA20F0CB
:1024A00000429A4201D809D141B19DED100BBDEC1B
:1024B000108B02B0BDE8704001F01EB9B0F5801F6E
:1024C00026DA11430BD0002813DA012001F068F955
:1024D000BDEC108B02B0BDE8704001F021B90220C4
:1024E00001F05EF901F0F0F851EC100B81F00041C1
:1024F0009EE06FF035049FEDC00B53EC102B9DED6B
:10250000100B51EC100BFDF7A3FFCDE910010846AD
:1025100004EB2051C0F31304B948A1F2FF31204469
:1025200000F4801080F07F6282F04052224301EB81
:1025300020559FEDB50B119253EC102B9DED100B18
:1025400051EC100BFDF77EFF41EC180BA01CC0F303
:1025500013009FEDAFDB9FEDB0EBB14E7E4403283F
:102560006CD296ED000B51EC180B53EC102BFEF7D0
:10257000E5F91DD1002D01BF96ED000BBDEC108BD0
:1025800002B070BD2846FDF7D5FF41EC180B53ECA7
:102590001D2BFDF75DFF41EC190B53EC1E2B51EC8D
:1025A000180BFDF755FF53EC192BFDF7AAFE3FE082
:1025B0009FED9D0B51EC180B53EC102BFDF748FFD2
:1025C0009FED9B1B53EC112BFDF73FFF41EC190BCB
:1025D00053EC182B51EC180BFDF73AFF53EC192B69
:1025E000FDF736FF41EC190B002D04BF53EC192BFE
:1025F00051EC180B1AD02846FDF79CFF41EC1A0B42
:1026000053EC1D2BFDF724FF53EC192BFDF71DFF99
:1026100053EC182BFDF716FF41EC180B53EC1E2B57
:1026200051EC1A0BFDF714FF53EC182BFDF70AFFC2
:10263000BDEC108B02B041EC100B70BD9FED7E0B1A
:1026400051EC180B53EC102BFDF75BFE41EC100B1B
:1026500051EC180B53EC102BFEF7D1F841EC190B91
:102660002846FDF767FF41EC1B0B53EC192B51EC8F
:10267000190BFDF7EDFE41EC1A0B714853EC1A2BC8
:10268000261851EC1A0BFDF7E3FE41EC1F0B6D48C9
:10269000C4F1510404F5D724B0EE4F0AF0EE6F0AEE
:1026A0000321784400F094FF53EC1F2B51EC100BE6
:1026B000FDF7CEFE41EC1C0B6348B0EE4F0AF0EE86
:1026C0006F0A0421784400F083FF53EC1A2B51EC7D
:1026D000100BFDF7BDFE344353EC1C2BFDF711FE30
:1026E00041EC1C0B002C4CDD9FED510B51EC180BF9
:1026F00053EC102BFDF7ACFE53EC182BFDF7A8FEA6
:1027000041EC1A0B55B353EC1D2B51EC1B0BFDF791
:102710009FFE41EC1D0B53EC1C2B51EC1A0BFDF7EB
:10272000F0FD53EC192BFDF793FE53EC1D2BFDF739
:10273000E8FD53EC1A2BFDF788FE53EC182BFDF740
:1027400081FE41EC180B53EC1E2B51EC1B0BFDF7DB
:102750007FFE53EC182BFDF775FE69E753EC1C2B3D
:1027600051EC1A0BFDF7CDFD53EC192BFDF770FE64
:1027700053EC1A2BFDF769FE53EC182BFDF765FEA1
:1027800056E735B353EC1D2B51EC1B0BFDF760FEE8
:1027900041EC1A0B53EC1C2B51EC180BFDF752FEBD
:1027A00053EC192BFDF754FE53EC1A2BFDF74AFEA0
:1027B00053EC182BFDF746FE41EC180B53EC1E2B87
:1027C00051EC1B0BFDF744FE53EC182BFDF73AFEC2
:1027D0002EE753EC1C2B51EC180BFDF733FE53EC9A
:1027E000192BFDF735FE53EC182BFDF72EFE1FE7D6
:1027F0000000F07F000000000000000000005043D7
:10280000645F090000000000000000000000F03FCD
:10281000763C7935EF39EA3D0000E0FE422EE63F96
:10282000206E000000000000555555555555D53F08
:10283000000000000000E03F000000000000004039
:1028400086EBF9FFA26C0000986C0000000000000D
:1028500070B5414A00252DED020B2DED048BDDE90D
:102860000404944205DA24F00041914201D809D1D0
:1028700040B19DED040BBDEC048B02B0BDE870408F
:1028800000F03ABFB4F5801F26DA08430BD0002CC5
:1028900013DA012000F084FFBDEC048B02B0BDE828
:1028A000704000F03DBF022000F07AFF00F00CFF06
:1028B00051EC100B81F0004146E09FED290B6FF0C9
:1028C000350553EC102B9DED040B51EC100BFDF76F
:1028D000BFFDCDE904010C4605EB2450A0F2FF300A
:1028E000C10F40F2FF32521A62F31F540844FDF741
:1028F00021FE05949DED040B41EC180B51EC100BDF
:1029000002F065FA9FED181B53EC112BFDF7A0FDAB
:102910009FED170B41EC190B53EC102B51EC180BDE
:10292000FDF796FD53EC192BFDF7EBFC9FED120B19
:1029300041EC190B53EC102B51EC180BFDF788FDF3
:1029400053EC192BFDF7DDFCBDEC048B02B041EC20
:10295000100B70BD000000000000F07F00000000C0
:1029600000000000000050430EE526157BCBDB3F46
:10297000362BF111F3FE593D00609F501344D33FB5
:102980002DE9F04D2DED040B2DED0E8B96B0DDE90C
:102990002550279CDDF890A025F0004624F0004843
:1029A000BAF1000F14BF0121002101EB4502FC49DF
:1029B00053184A1093422AD3002814BF012300233E
:1029C00003EB44030B44F7498B4220D358EA000140
:1029D0009FEDF59B76D0DFF8D8B35D4503D1BAF112
:1029E000000F05D188E0BAF1000F08BF002100D028
:1029F000012101EB450111F5001F08D8002814BF83
:102A00000121002101EB440111F5001F0BD99DEDBF
:102A1000261B9DED240B16B0BDEC0E8B04B0BDE85B
:102A2000F04D00F073BE0027002DBCBFE149884582
:102A300021DAE1498845A8BF02271CDAC3451ADC20
:102A4000DE4901EB2851142908DDC1F1340220FAD6
:102A500002F101FA02F282420DD108E058B9C1F147
:102A6000140228FA02F101FA02F2424503D101F000
:102A70000101C1F1020756EA0A0124D1002C22DA31
:102A8000002D18BF022F01D0012F0AD0022000F024
:102A900087FE16B0BDEC0E8B04B0BDE8F04D00F023
:102AA00013BE022000F07CFE00F00EFE51EC100B75
:102AB00081F0004141EC100B16B0BDEC0E8B04B060
:102AC000BDE8F08D18E09FEDBEAB9FEDBF8B0028F9
:102AD00071D1B848804522D105F1804010F58010B1
:102AE00008BFBAF1000F07D0B3450ADC002CA8BF1D
:102AF0009DED260BE0DA0DE0B0EE490AF0EE690A32
:102B0000DAE7002C06DA9DED260B51EC100B81F074
:102B100000416FE0AE48784490ED000BCCE7D8451B
:102B20004DD1002C48DA2EB186423AD1BAF1000FCD
:102B300042D126E0BAF1000F13D0022000F030FE9F
:102B400000F0FEFD8DED020B9DED240B8DED000BD5
:102B500010EE900A039961F31E0003909DED020BA5
:102B6000AAE78DED02AB9DED240B1AEE901A10EE44
:102B7000900A8DED000B61F31E0003909DED020B9A
:102B80009AE78DED028B9DED240B18EE901A10EE56
:102B9000900A8DED000B61F31E0003909DED020B7A
:102BA0008AE709DA9DED240B51EC190B53EC102B3D
:102BB000FDF725FE1EE020E09DED240B7CE786421C
:102BC0001BDAB4F1804F0DD0A4F10050B0F1FF50EA
:102BD00013D1002D11DB9DED240B51EC100B04F0F3
:102BE00031FA07E09DED240B53EC102B51EC100B48
:102BF00000F0C2BC41EC100B5EE79DED240B51ECE4
:102C0000100B02F04DF8BAF1000FCDE90E0142D1E0
:102C10009FED710B46B3A6F1E040B0F17F600CD0A0
:102C20005E4538D1002D00DAA7B3022F0CBF01207A
:102C30004FF0FF30FDF77EFCDCE7002D01DD002CBE
:102C40000DDA002D01DD002C1FDB002D16DA002C23
:102C500014DB012F08BF9FED620B3FF42DAFB0EEE8
:102C60004A0AF0EE6A0A27E7022F18BF002D0CD09F
:102C7000012F0AD1002DFFF61FAF06E0002DB8BFCF
:102C8000002C08DA012F3FF417AFB0EE480AF0EE3F
:102C9000680A11E71BE0012000EBE57050EA07012C
:102CA00015D0791EB0EE498AF0EE698A084308BF54
:102CB0009FED4D8B4E480025804570DD4D494E48B7
:102CC000884514DDB0420DDB002C19DB2FE001201C
:102CD00000F066FD16B0BDEC0E8B04B0BDE8F04D03
:102CE00000F01EBDB34502DC002C09DC1FE086426B
:102CF00002DA002C1BDA03E05E452BDD002C16DD2A
:102D0000022000F04DFD00F01BFD8DED020B53EC99
:102D10001A2B51EC180BFDF79BFBCDE90001039931
:102D2000019861F31E0003909DED020BC4E60220A2
:102D300000F036FD00F014FD10EE901A18EE900A27
:102D40008DED020B8DED008B61F31E0003909DED68
:102D5000020BB1E69DED0E0B53EC192B51EC100B51
:102D6000FDF770FB9FED260BCDE9080153EC102B0E
:102D70009DED080B51EC100BFDF76AFB9FED221B3C
:102D800053EC112BFDF761FB9DED081B53EC112B50
:102D9000FDF75EFB9FED1E1B53EC112B3CE08CE01E
:102DA000FFFF1F00FFFF0F00000000000000F03FCA
:102DB0000000F03F0000F07F0000404301FCFFFFF7
:102DC000000000000000F07F000000000000000094
:102DD00066680000000000000000000000000080A5
:102DE000000000000000F0FF000000000000F0BF45
:102DF0000000E0410000F043FFFFEF3F0000000053
:102E0000000000000000D03F555555555555D53FA1
:102E1000000000000000E03FFDF717FB9DED080BF0
:102E200041EC1A0B53EC102B51EC100BFDF710FB7F
:102E300053EC1A2BFDF70CFB41EC1A0B9FEDFE0B2C
:102E400053EC102B9DED080B51EC100BFDF700FB24
:102E500041EC1B0B9FEDFA0B51EC1A0B53EC102BB2
:102E6000FDF7F6FA41EC1A0B9FEDF70B53EC102B24
:102E70009DED080B51EC100BFDF7EAFA53EC1A2B01
:102E8000FDF7E0FA41EC1A0B51EC1B0B53EC1A2B3B
:102E9000FDF737FA0690CDE906519DED060B53EC90
:102EA0001B2B51EC100BFDF7CDFA53EC1A2BFDF751
:102EB000CCFA41EC100B00F0A1B90020B6F5801F50
:102EC0000EDA9FEDE30B53EC102B9DED0E0B51EC46
:102ED000100BFDF7BDFACDE90E016FF034000E4680
:102EE00000EB2650A0F2FF37C6F31300DA4940F09A
:102EF0007F6646F040568842D8BF002408DDD74997
:102F00008142C8BF012403DC0024A6F580167F1C83
:102F1000D348784400EBC4000F9690ED00CB9DEDB4
:102F20000E0B53EC1C2B51EC100BFDF78BFA9DEDA7
:102F30000E0B41EC1B0B53EC1C2B51EC100BFDF753
:102F4000E0F941EC100B51EC190B53EC102BFDF791
:102F500056FC41EC1D0B51EC1B0B53EC1D2BFDF7EC
:102F600077FA41EC1A0BBF488DED10AB7844109501
:102F700090ED000B4FF0005040EA660000EB8440FB
:102F80008DED080B00F5002009909DED080B53EC2A
:102F90001C2B51EC100BFDF755FA9DED0E1B53EC5D
:102FA000112BFDF752FA41EC100B53EC102B9DED59
:102FB000100B51EC100BFDF74BFA9DED080B41EC9B
:102FC0001C0B53EC102B9DED100B51EC100BFDF76F
:102FD0003FFA53EC1B2BFDF738FA53EC1C2BFDF793
:102FE00031FA53EC1D2BFDF733FA41EC1C0B53EC7B
:102FF0001A2B51EC1A0BFDF72BFA41EC1B0B9A48DC
:103000000621B0EE4B0AF0EE6B0A784400F0E0FACD
:10301000B0EE401AF0EE601AB0EE41DAF0EE61DA8E
:1030200053EC1B2B51EC1B0BFDF712FA53EC1D2B31
:10303000FDF70EFA9DED100B41EC1B0B53EC1A2B18
:1030400051EC100BFDF75DF953EC1C2BFDF700FA6A
:1030500053EC1B2BFDF755F99DED100B41EC1B0BB1
:1030600053EC102B51EC100BFDF7F2F941EC1D0B5A
:103070009FED7FEB53EC1E2BFDF743F953EC1B2B1D
:10308000FDF73FF90890CDE908519DED080B53EC91
:103090001E2B51EC100BFDF7D5F953EC1D2BFDF752
:1030A000D1F953EC1B2BFDF7D0F99DED080B41EC4A
:1030B0001D0B53EC102B9DED100B51EC100BFDF77D
:1030C000C7F941EC1B0B53EC1A2B51EC1D0BFDF710
:1030D000BFF99DED080B41EC1A0B53EC102B51EC92
:1030E0001C0BFDF7B5F953EC1A2BFDF70AF941EC6F
:1030F0001A0B51EC1B0B53EC1A2BFDF702F90C9039
:10310000CDE90C519DED0C0B53EC1B2B51EC100B2E
:10311000FDF798F953EC1A2BFDF797F941EC1B0BCF
:103120009FED550B53EC102B9DED0C0B51EC100B40
:10313000FDF78EF941EC1A0B9FED510B51EC1B0B77
:1031400053EC102BFDF784F941EC1B0B9FED4E0B5C
:1031500053EC102B9DED0C0B51EC100BFDF778F997
:1031600053EC1B2BFDF7CDF841EC100B484878448D
:1031700000EBC40090ED001B51EC100B53EC112B35
:10318000FDF7BFF841EC1B0B3846FDF7D3F9CDE94D
:10319000080153EC1B2B51EC1A0BFDF7B2F841EC74
:1031A000100B3C48784400EBC40090ED00CB51EC90
:1031B000100B53EC1C2BFDF7A4F89DED081B53ECF2
:1031C000112BFDF79EF80690CDE906519DED080BF9
:1031D00053EC102B9DED060B51EC100BFDF732F963
:1031E00053EC1C2BFDF72EF953EC1A2BFDF72AF9A3
:1031F00053EC1B2BFDF729F941EC100B9DED261B21
:1032000053EC102B8DED001B00959DED260B51EC22
:10321000100BFDF71DF99DED000B41EC1A0B53EC63
:10322000102B9DED260B51EC100BFDF70BF99DEDCE
:10323000061B53EC112B2FE0000000604715F73FF1
:10324000FE822B654715F73F44DF5DF80BAE543E19
:1032500000000000000040438E9803007AB60B0087
:1032600012630000106400004A62000000000000C9
:103270000000000000000840000000E009C7EE3F29
:10328000FD033ADC09C7EE3FF5015B14E02F3EBEBB
:10329000D660000090600000FDF7DAF853EC1A2BBE
:1032A000FDF72FF89DED060B41EC1A0B53EC102B9C
:1032B0009DED000B51EC100BFDF7CAF8CDE90C01A8
:1032C0009DED0C0B51EC1A0B53EC102BFDF719F87C
:1032D000CDE902010C46AA498C422FDB611A084352
:1032E00018D19DED0C0B53EC102B9DED020B51EC06
:1032F000100BFDF7A7F841EC1B0B9FEDA30B51EC56
:103300001A0B53EC102BFCF7FCFF53EC1B2BFDF7B7
:103310002DFB2DD2022000F043FA00F011FA10EE3E
:10332000901A18EE900A8DED020B8DED008B61F373
:103330001E0003909DED020BFFF7BEBB944A24F0E4
:103340000041914214D39349214408437FF4EFACE8
:103350009DED0C0B53EC102B9DED020B51EC100B63
:10336000FDF770F853EC1A2BFDF700FB7FF6DFAC8E
:1033700024F000408849894A002601EB205182420E
:103380002BDA481C4FF4801121FA00F02044844AC3
:10339000C0F30A517A44A1F2FF3192ED000B814A49
:1033A0008DED080BCA4020EA0202C0F3130040F47E
:1033B0008010C1F1140120FA01F60992002CB8BF67
:1033C00076429DED080B53EC102B9DED0C0B51EC50
:1033D000100BFDF737F8CDE90C019DED0C0B51EC0E
:1033E0001A0B53EC102BFCF78CFF9FED6F0B089022
:1033F000CDE9085153EC102B9DED080B51EC100B4F
:10340000FDF726F841EC1B0B9FED690B53EC102BDD
:103410009DED080B51EC100BFDF71AF89DED0C0B10
:1034200041EC1C0B53EC102B9DED080B51EC100BD9
:10343000FDF708F853EC1A2BFDF707F89FED5E1B1C
:1034400053EC112BFDF704F853EC1C2BFCF759FF40
:1034500041EC1A0B51EC1B0B53EC1A2BFCF751FFF0
:10346000CDE902019DED020B53EC1B2B51EC100B2F
:10347000FCF7E8FF53EC1A2BFCF7E7FF9DED020B7E
:1034800041EC1A0B53EC102B51EC100BFCF7E0FF46
:10349000CDE908014A489DED080B0521784400F06C
:1034A00097F89DED081B51EC100B53EC112BFCF71A
:1034B000CFFF9DED021B53EC112BFCF7C6FFCDE9AE
:1034C00006019DED020B53EC1A2B51EC100BFCF78F
:1034D000BFFF53EC1A2BFCF714FF9FED3B0B41ECA5
:1034E0001A0B53EC102B9DED060B51EC100BFCF757
:1034F000A9FF9DED060B41EC1B0B53EC102B9DED32
:10350000020B51EC100BFCF7A3FF53EC1B2BFDF748
:1035100076F953EC1A2BFCF795FF9DED021B53EC4B
:10352000112BFCF78FFF53EC192BFCF78EFFCDE925
:10353000020101EB065001150029C8BF039015DCFC
:103540009DED020B324651EC100BFDF7C7F9FEF76B
:1035500065FB042808BF00F003F932469DED020B1D
:1035600051EC100BFDF7BAF9CDE902019DED020B0C
:1035700051EC180B53EC102BFCF76AFFFFF73ABB2A
:103580000000904000000000FE822B654715973C2C
:1035900000CC904000346F3F01FCFFFF0000E03F93
:1035A000E85F0000FFFF0F0000000000432EE63F31
:1035B000396CA80C615C20BEEF39FAFE422EE63F62
:1035C000E85D000000000000000000000000004076
:1035D00070B504462DED028B4D1E00EBC500B0EE1C
:1035E000408AF0EE608A90ED000B35F0060017D0AF
:1035F00053EC182B51EC100BFCF72AFF41EC100B8D
:103600006D1E04EBC50090ED001B51EC100B53EC4C
:10361000112BFCF776FE41EC100B35F00600E7D1DC
:10362000022D36D0042D1CD0062D1CBFBDEC028B04
:1036300070BD53EC182B51EC100BFCF709FF94ED07
:103640000A1B53EC112BFCF75CFE53EC182BFCF718
:10365000FFFE94ED081B53EC112BFCF752FE41ECDE
:10366000100B53EC182B51EC100BFCF7F1FE94ED02
:10367000061B53EC112BFCF744FE53EC182BFCF704
:10368000E7FE94ED040B53EC102BFCF73AFE41ECF3
:10369000100B53EC182B51EC100BFCF7D9FE94EDEA
:1036A000021B53EC112BFCF72CFE53EC182BFCF7F0
:1036B000CFFE94ED001B53EC112BFCF722FEBDEC6A
:1036C000028B41EC100B70BD9FED070B10B553EC56
:1036D000102B9FED070B51EC100BFDF790F841EC10
:1036E000100B10BD000000000000000000000000F2
:1036F000000000000000F03F10B553EC102B51EC1F
:10370000100BFCF7FEFD41EC100B10BD10B553EC97
:10371000112B51EC100BFCF7F4FD41EC100B10BD1C
:103720009FED050B10B553EC102B51EC100BFDF772
:1037300066F841EC100B10BD000000000000000016
:103740009FED050B10B553EC102B51EC100BFCF753
:103750007FFE41EC100B10BD000000000000007067
:103760009FED050B10B553EC102B51EC100BFCF733
:103770006FFE41EC100B10BD0000000000000010B7
:1037800002E008C8121F08C1002AFAD1704770472A
:10379000002001E001C1121F002AFBD17047000088
:1037A0000149086070470000C80200202DE9FF5F52
:1037B00082B00021DDE90430020DDDF840B00343A2
:1037C00018D044F61050A2F2FF324243151411985B
:1037D00001281FD0A5EB0B00401C5FEA000A4FF048
:1037E00000064E4FDFF83891B046504615D5CAF165
:1037F000000413E0119801244AA3012801D16FEAC3
:103800000B010298119AC0E90031C0E9024206B0EA
:10381000BDE8F09FCBF10000DFE704460021404AFD
:10382000491842EB0450CDE9001012E0E00707D040
:1038300032463B4640464946FCF70AFE80468946EA
:1038400032463B4610461946FCF702FE06460F4636
:103850006410002CEAD1DDE90401DDE90023BAF1AE
:10386000000F06DAFCF7F4FD42464B46FCF7F0FD8C
:1038700005E0FCF7C4FF42464B46FCF7C0FF044698
:103880000E460022284BFDF771F803D84FF0FF30A9
:10389000014607E00022254B20463146FCF731FD6A
:1038A000FDF733F8102409E0002C0ADB0A2200237C
:1038B000FCF7AFFE039B30321A55641E50EA01023A
:1038C000F2D1641C039AC4F111031444119A012A21
:1038D00003D0012208430DD10AE0084304D00020A0
:1038E0004FF0110B119072E7A3EB0B056D1E0DE06D
:1038F0005B4504DD4FF0000205F1010504E003DA49
:103900004FF00002A5F10105002AECD002981199B0
:10391000C0E90231C0E9004579E700000000144029
:103920000000F03F300000000000F0430000E03FE6
:103930002DE9FF4F95B09A46884606460025EEE1F0
:10394000252877D100242746F94A0121039400E075
:10395000044316F8013F203B01FA03F01042F7D16F
:1039600030782A2811D06FF02F033078A0F1300280
:10397000092A16D8039A44F0020402EB820203EBF0
:1039800042021044761C0390EFE758F8042B039290
:10399000002A03DA504244F40054039044F0020435
:1039A000761C30782E2816D116F8010F44F0040446
:1039B0002A280DD06FF02F023078A0F13003092BA8
:1039C00009D807EB870302EB4303C718761CF3E71C
:1039D00058F8047B761C30786C280FD006DC4C2815
:1039E00017D068280DD06A2814D104E0742810D0AC
:1039F0007A280FD10DE044F400140AE044F4801456
:103A000001E044F440147278824202D104F580143B
:103A1000761C761C307866280BD013DC582877D0BB
:103A200009DC002875D04528F6D04628F4D0472870
:103A30001AD193E118E0632835D0642879D065283D
:103A400012D18BE1702873D008DC6728F1D0692887
:103A50006FD06E280DD06F2806D1ACE073282CD023
:103A6000752874D0782853D05246179990476D1C0A
:103A700054E1C4F30250022809D003280DD0D8F82D
:103A8000001004280DD00D6008F1040846E1D8F8B4
:103A90000010EA17C1E90052F6E7D8F800100D80CF
:103AA000F2E70D70F0E718F8041B8DF80010002005
:103AB0008DF80100EB46012003E058F804BB4FF0FD
:103AC000FF3061074FF0000102D40DE009F1010160
:103AD0008946B9420FDA8145F8DB1BF80910002945
:103AE000F4D108E009F1010189468142FADB1BF8B3
:103AF00009100029F6D103985346A0EB0907214687
:103B00003846179A00F080FA284400EB090507E0D0
:103B100044E008E10DE01BF8010B5246179990476D
:103B2000B9F10109F7D2534621463846179AF2E017
:103B300039E00A21C4F302524FF0000B0091022A2F
:103B400006D058F8040BC117032A09D00AE023E075
:103B500008F1070020F00702F2E80201904605E0B4
:103B600000B2C117042A01D140B2C117002906DAF8
:103B70000A460021404261EB02012D2202E02205AB
:103B800004D52B228DF80420012203E0E20701D0A6
:103B90002022F7E7914657E00A2100E010214FF07C
:103BA000000B00910BE010214FF0000B44F00404D7
:103BB0000827009103E008204FF0000B0090C4F3A9
:103BC0000252022A05D058F8040B0021032A08D01B
:103BD00008E008F1070020F00702F2E80201904631
:103BE00003E080B2042A00D1C0B24FF000092207DE
:103BF0002AD53278702A07D0DDF800C08CF0100C7E
:103C00005CEA0B0C05D00EE040228DF80420012266
:103C100008E050EA010306D030238DF804308DF817
:103C2000052002229146009B83F0080353EA0B0310
:103C30000AD150EA010201D1620705D530228DF880
:103C400004204FF001097F1E3278582A04D039A28F
:103C50000C920CAA02920BE03BA2F9E75B46009A99
:103C6000FCF7D7FC0C9B9B5C029A521E02921370CD
:103C700050EA0102F2D1029804A9081A00F1200BBF
:103C8000600702D524F4803400E001275F4502DD9F
:103C9000A7EB0B0000E0002000EB0B010090039865
:103CA0004944401A0390E00306D453462146179A2C
:103CB000039800F0A9F90544002706E001A8524640
:103CC000C05D179990476D1C7F1C4F45F6DBE003E4
:103CD0000CD553462146179A039800F095F90544F0
:103CE00004E030205246179990476D1C0099481EF9
:103CF00000900029F5DC08E002980299524600780D
:103D0000491C0291179990476D1CBBF10001ABF162
:103D1000010BF1DC5BE100F065F90544761C3078BD
:103D200000287FF40DAE19B02846BDE8F08F0000E2
:103D30000928010030313233343536373839616281
:103D40006364656600000000303132333435363745
:103D5000383941424344454600000000600700D422
:103D6000062708F1070020F00700F0E8022380464C
:103D700003F0004C5FEA0C0001D097A009E0200599
:103D800001D596A005E0E00701D095A001E0AFF2D3
:103D90004C001390307823F0004365280CD006DCEB
:103DA000452809D046281DD047287FD13BE066280A
:103DB00018D067287AD136E00021112F01DB1120BD
:103DC00000E0781CCDE9000104A90CA8FFF7EEFC87
:103DD000DDE90D010C9A4FF0000B07F1010910927B
:103DE00000914EE04FF000400097CDE9011004A98A
:103DF0000CA8FFF7DBFCDDE90D020C9B0F994FF0DF
:103E0000000B91461093009211B9791C00EB010947
:103E1000B7EB090003D4C0F1FF3B07F10109A9EB9F
:103E20000700019042E0012F00DA01270021112F45
:103E300001DD112000E03846CDE9000104A90CA8FD
:103E4000FFF7B4FCDDE90D010C9A00914FF0000B77
:103E5000B946109221070FD4009A4A4503DA9146D9
:103E600001E0A9F10109B9F1010F05DD109AA9F1ED
:103E70000101515C3029F4D0B84202DA10F1040F8C
:103E800003DA0121CDE9011010E0002803DC8344AE
:103E9000A9EB000102E0411C494500DD8946A0EB89
:103EA0000B00401C01904FF000400290200705D409
:103EB0000198484502DB4FF0FF30019000208DF85B
:103EC0004B0002980DF14B07B0F1004F25D00220B6
:103ED0000C902B200D90029800280CDA40420290A2
:103EE0002D200D9007E00A210298FCF77CFB303171
:103EF000029007F8011D0C99481E0C900029F2DC75
:103F000002980028EFD1791E0D980870307800F0E3
:103F1000200040F0450007F8020D11A8C01BC01D8D
:103F200002901398007800B1012000EB090101987C
:103F300001EBE071029801440398401A401E03907F
:103F4000E00306D453462146179A039800F05CF824
:103F500005441398007818B15246179990476D1C84
:103F6000E00323D553462146179A039800F04CF8F6
:103F700005441BE0BBF1000F07DB0098584504DD4A
:103F80001098179910F80B0001E01799302052464D
:103F9000904701980BF1010B401E05F101050190BE
:103FA00004D12E205246179990476D1CB9F100019B
:103FB000A9F10109DEDC05E017F8010B524617995B
:103FC00090476D1C0299481E02900029F4DC53466C
:103FD0002146179A03989EE62D0000002B00000052
:103FE000200000002DE9F041044600251E4617463A
:103FF000880404D405E039462020B0476D1C641EB7
:10400000F9D52846BDE8F0812DE9F04104460025A8
:104010001E469046C80301D5302700E020278804BB
:1040200004D505E041463846B0476D1C641EF9D5FD
:104030002846BDE8F08110B541EC100BFDF7B8FF44
:1040400051EC100B10BD0246282A07DB482A05DC7C
:10405000082903DB282901DC012070470020FCE748
:104060002DE9F0410446E07800F0C006E07800F069
:104070003F05607800F0010098B1EF102846E9177D
:1040800005EB5171C910A5EBC101491C01F0FF08F6
:104090000B48006820B10A484146026838469047FC
:1040A00000BF607800F0080030B10548406818B1E2
:1040B000B011034A516888470020BDE8F081000034
:1040C0001434012000B52DED028B83B0B0EE408A90
:1040D000F0EE608A9FED3C0AC8EE800A9FED3B1A25
:1040E0009FED3A0A00EEC10ABCEEC00A10EE100ABB
:1040F000374908709FED340AC8EE000AB3EE081A7B
:10410000B3EE080A00EE810ABCEEC00A10EE100AF7
:10411000304908702E4800782F490978884209D123
:104120002C4800782D490978884203D103B0BDECB2
:10413000028B00BD2020002110231A46CDE900107B
:10414000264801782448007801F0BAFF01F0F8FE13
:10415000204801781E480078FFF775FF60B12020E5
:104160001F4910231A46CDE900101A480178184853
:10417000007802F0C3F80BE02020194910231A46FA
:10418000CDE90010134801781148007801F098FF3C
:1041900001F020FF0E4800780F4908700D480078A4
:1041A0000E4908700A480078382807D10948007875
:1041B000182803D1012000F0ABF802E0002000F045
:1041C000A7F800BFB2E700000000344300006042DF
:1041D0002E0100202F0100202C0100202D010020A5
:1041E0003C000020F0B52DED068B83B004460D4653
:1041F00016463020002110231822CDE90010314648
:10420000284601F05DFF7CB910213A4800EB04100C
:104210000B460822CDE900013146284601F050FF47
:1042200003B0BDEC068BF0BD271E01DB394600E074
:1042300079420846FCF77EF941EC1A0BB0EE4A0AC7
:10424000F0EE6A0AFEF704FBB0EE409AF0EE609AD8
:104250009FED290B53EC102B51EC190BFCF751F887
:1042600041EC180BFCF777F9254908700978481ECE
:10427000FCF760F941EC190BB0EE491AF0EE691A3F
:104280009FED200BFEF77CFBB0EE408AF0EE608ADB
:1042900051EC180BFCF75FF91C49088024E01B481F
:1042A0000088B4FBF0F0134901EB0017102003461F
:1042B00008223146CDE90070284601F001FF13487D
:1042C0000088B4FBF0F100FB1144104800880A217B
:1042D00090FBF1F00D49088005F10800C5B20848CF
:1042E0000078401E06490870054800780028D6DC92
:1042F00000BF95E77C000020000000000000F03FB8
:1043000023010020000000000000244024010020C0
:1043100010B5044624B10021A72000F0DFFC03E023
:104320000021A62000F0DAFC10BD38B5044664B1C7
:1043300020208DF8000028208DF8010030208DF815
:10434000020038208DF8030004E0A322042168460F
:10435000FBF7B8FF6A46042140F69E2001F0B0FD4D
:1043600001F028FA38BD00003EB5044602208DF861
:104370000000CA208DF80100E3208DF8020009201A
:104380008DF803006A460421682001F099FDA320FE
:104390008DF8000004F0400048B1C0208DF8010005
:1043A000C8208DF80200C2208DF8030006E0A3208B
:1043B0008DF801008DF802008DF8030004F4C07040
:1043C00048B1C4208DF80400CC208DF80500C6202B
:1043D0008DF8060006E0A3208DF804008DF8050096
:1043E0008DF80600A3208DF807008DF808008DF8E1
:1043F00009006A460A2140F6A72001F061FD04F099
:10440000030018B120208DF8000002E0D8208DF8BC
:1044100000006A46012140F6B62001F051FD04F08B
:10442000200018B1012000F0ADF802E0002000F0FB
:10443000A9F804F4C07008B304F4807060B1B2202D
:104440008DF800008B208DF80100B6208DF8020059
:104450009B208DF803000BE0B0208DF80000802039
:104460008DF80100B4208DF8020090208DF8030033
:104470006A46042140F6A22001F022FD04F001006A
:1044800020B3F8208DF800006A4601214FF40B603C
:1044900001F016FDFA21072000F0FCFA072000F0D9
:1044A000C3FA012000F0E3FA642000F0D3FB4FF4DC
:1044B000FA7000F0E2FBC821304800F073FA2820BF
:1044C00000F08CFA0A2000F09CFA08E0D8208DF861
:1044D00000006A4601214FF40B6001F0F1FC04F08A
:1044E000020018B1D9208DF8000002E0D8208DF824
:1044F00000006A46012140F23D7001F0E1FC04F049
:10450000040018B1012000F069F802E0002000F07A
:1045100065F804F0100018B10120FFF706FF02E073
:104520000020FFF702FF44F008001549488101F020
:1045300041F900201249887304F0400018B1084680
:10454000807B801D887304F4C07020B10C48807B90
:10455000801D0B49887304F0140020B10848807B4B
:1045600010300749887304F0030020B10448807BB1
:10457000001D0349887300203EBD000009E3CA0204
:10458000143401203EB504466CB10EA1D1E90020DF
:104590008968CDE9002002916A4609214FF49760AD
:1045A00001F08EFC3EBD0AA2D2E900109268CDE96E
:1045B000010200916A4609214FF4976001F080FCE6
:1045C000F0E70000B8AAB38DB4980D355D00000087
:1045D000B8AAAAAAB088C3C5C700000038B5044667
:1045E00064B1C0208DF80000C2208DF80100C42005
:1045F0008DF80200C6208DF8030004E08B22042110
:104600006846FBF75FFE6A46042140F6982001F0F9
:1046100057FC01F0CFF838BD10B5C8234FF48062C5
:10462000024940F6F63000F059FF10BDE085000861
:104630002DE9F04F8DB00746884615469946DDE9CD
:10464000166B0024002030806B49887B5A4605A9F0
:1046500001F010F818B1601E0DB0BDE8F08F66488B
:10466000807A00F01400002867D09DF8140000063E
:104670009DF8151040EA01409DF8161040EA01200F
:104680009DF81710084328609DF8180000069DF853
:10469000191040EA01409DF81A1040EA01209DF8E7
:1046A0001B10084368609DF81C0000069DF81D1053
:1046B00040EA01409DF81E1040EA01209DF81F10BD
:1046C0000843A8609DF8200000069DF8211040EAEC
:1046D00001409DF8221040EA01209DF82310084374
:1046E000E86004F11000C4B2286800140190686802
:1046F00000140290A86800140390E8680014049065
:1047000001984043029901FB0100039901FB01005C
:10471000049901FB010ABAF1706F02DBBAF1885FFC
:1047200005DD01F047F800203080401E94E7B6F91F
:10473000000040F48070308000BF2F48807A00F085
:10474000400020B305A9601C085C095D40EA012017
:1047500000B2A8F8000005A9E01C095C05AAA01C8D
:10476000105C41EA002000B2A8F8020005A9601D13
:10477000095C201D105C41EA002000B2A8F804008A
:10478000A01DC4B2B6F9000040F0080030801A48FD
:10479000408900F4C07008B305A9601C085C095D7D
:1047A00040EA012000B2388005A9E01C095C05AA96
:1047B000A01C105C41EA002000B2788005A9601DB1
:1047C000095C201D105C41EA002000B2B880A01DE9
:1047D000C4B2B6F9000040F0700030800648807A1C
:1047E00000F0030018B105A90819FFF739FC484685
:1047F00000F024FB00202FE71434012030B585B0F1
:10480000044616A207CA02AB07C3C82C03DD4FF04B
:10481000FF3005B030BDC82090FBF4F0401E85B2DB
:10482000280A8DF80000E8B28DF801006A460221DE
:1048300040F2162001F044FB10B14FF0FF30E8E7E2
:1048400002AA0C2140F6C12001F03AFB10B14FF052
:10485000FF30DEE7044884810020DAE7FEF2ABC4D3
:10486000AAF1DFDFBBAFDFDF1434012010B586B063
:10487000044647A00068039046A00068029046A046
:104880000068019045A00068009004F0030003A9AF
:10489000085C8DF8140003A8C4F3C101405C8DF8D6
:1048A000150003A8C4F38111405C8DF8160004F0D4
:1048B000030002A9085C8DF8100002A8C4F3C1012E
:1048C000405C8DF8110002A8C4F38111405C8DF8A2
:1048D000120005AA032140F2264001F0F1FA18B1B6
:1048E0004FF0FF3006B010BD04AA032140F22A4069
:1048F00001F0E6FA10B14FF0FF30F3E701980590B0
:104900000098049004F0040058B19DF8140040F0A1
:1049100001008DF814009DF8100040F001008DF8A2
:10492000100004F0200058B19DF8150040F001007F
:104930008DF815009DF8110040F001008DF8110070
:1049400004F4807058B19DF8160040F001008DF815
:1049500016009DF8120040F001008DF8120005AA23
:1049600003214FF4886001F0ABFA10B14FF0FF3033
:10497000B8E704AA032140F2314001F0A1FA10B1D6
:104980004FF0FF30AEE7064804810020AAE70000A0
:104990004CCD6C000CC92C003656760026466600BD
:1049A00014340120F8B505460E464FF47A7095FB95
:1049B000F0F000FB06F4200E8DF80000200C8DF8BE
:1049C0000100200A8DF80200E0B28DF803006A466B
:1049D00004214FF4AE7001F073FAF8BD38B5044607
:1049E000052094FBF0F084B220128DF80000E0B2B4
:1049F0008DF801006A4602214FF4AD7001F060FAB3
:104A000038BD38B50446052094FBF0F084B220127E
:104A10008DF80000E0B28DF801006A4602214FF4E3
:104A2000AC7001F04DFA38BD38B504460020009056
:104A300004F0010020B19DF8000040F0300000902B
:104A400004F0020020B19DF8000040F00C0000903E
:104A500004F0040020B19DF8000040F00300009035
:104A60006A4601214FF4A47001F02AFA38BD38B526
:104A70000446012C01DA012402E0042C00DD0424A8
:104A8000601EC0B200906A46012140F24F1001F052
:104A900017FA38BDF0B52DED028B83B006460F46F0
:104AA00006F0070010B1B7F5C86F05DD4FF0FF3015
:104AB00003B0BDEC028BF0BD00EE107AB8EE400AF8
:104AC000DFED5B0A80EE208A01A800F0E9FB9DF88B
:104AD0000400022806D0042817D0082828D010285F
:104AE0004CD138E09FED530A28EE000ABCEEC00A14
:104AF00010EE100A84B29FED500A28EE000ABCEEB8
:104B0000C00A10EE100A85B23BE09FED4C0A28EE79
:104B1000000ABCEEC00A10EE100A84B29FED480AEB
:104B200028EE000ABCEEC00A10EE100A85B228E09A
:104B30009FED440A28EE000ABCEEC00A10EE100AEF
:104B400084B29FED410A28EE000ABCEEC00A10EEC6
:104B5000100A85B215E09FED3D0A28EE000ABCEE72
:104B6000C00A10EE100A84B29FED390A28EE000A3E
:104B7000BCEEC00A10EE100A85B202E04FF0FF3022
:104B800096E700BF20128DF80800E0B28DF809000A
:104B900028128DF80A00E8B28DF80B0006F001002B
:104BA000A0B102AA02214FF4EA7001F089F910B114
:104BB0004FF0FF307CE70DF10A0202214FF49270B2
:104BC00001F07EF910B14FF0FF3071E706F00200FE
:104BD000A0B102AA02214FF4EC7001F071F910B1FA
:104BE0004FF0FF3064E70DF10A0202214FF4947098
:104BF00001F066F910B14FF0FF3059E706F00400FC
:104C0000A0B102AA02214FF4EE7001F059F910B1DF
:104C10004FF0FF304CE70DF10A0202214FF496707D
:104C200001F04EF910B14FF0FF3041E700203FE7AF
:104C30000000484300008046000040460000004657
:104C40000000C045000080450000404500000045D0
:104C50000000C04438B50446052094FBF0F085B24E
:104C600028128DF80000E8B28DF801006A46022192
:104C70004FF4EF7001F024F938BD38B50446052033
:104C800094FBF0F085B228128DF80000E8B28DF8A0
:104C900001006A4602214FF4ED7001F011F938BDB0
:104CA00082B0CDE9000121F0004001909DED000BA4
:104CB00002B051EC100B704770B504460D46E1B2DE
:104CC0000548FCF794FF00BF80210348FCF7E9FE8C
:104CD0000128F9D1002070BD0010014070B50446D4
:104CE0000D4601211948FCF7F3F800BF1849174891
:104CF000FCF79DF80128F9D1002278211348FCF730
:104D000095F900BF13491148FCF791F80128F9D132
:104D100029460E48FCF792F900BF0E49891E0B4840
:104D2000FCF785F80128F8D121460848FCF786F9F8
:104D300000BF0849891E0548FCF779F80128F8D119
:104D400001210248FCF7D0F870BD0000005400407B
:104D5000010003008200070010B50446204600F061
:104D60000FF80346E01C00F00BF843EAC00083B2E2
:104D7000A01D00F005F843EA801083B2184610BD6C
:104D8000014691F90020002A01DD00201EE091F982
:104D90000020002A01DA042018E091F90120002AFD
:104DA00001DD012012E091F90120002A01DA05203D
:104DB0000CE091F90220002A01DD022006E091F9C1
:104DC0000220002A01DA062000E00720704710B513
:104DD00041EC100BFDF758FB51EC100B10BD00001F
:104DE0000EB54FF41650FCF7A1FA0BA0FCF706FF26
:104DF00042F2107002F08EFD0020029002A8042101
:104E000000230A02CDE9001008A10B4803F036F98F
:104E100002F0E8FC00BFFEE7737461727420616603
:104E200074657220746861740A000000616C6C5FC4
:104E3000696E697400000000C10A00087047000034
:104E40001CB5044600BF06480649074B074ACDE992
:104E50000010211D204600F043F80028F3D11CBDAE
:104E60003800002034000020300000202C000020FA
:104E700070B50446002624F00104184890F8240078
:104E800008B1002070BD1548807A10B94FF0FF308E
:104E9000F8E71248057C807A2040104908740846DB
:104EA000007CA04202D04FF0FF3600E0002614B98B
:104EB0000A48007D18B1012002F07CF802E00020D1
:104EC00002F078F83CB100F075FC20B1034805749D
:104ED0004FF0FF30D6E73046D4E700008C020020C8
:104EE0002DE9F0432DED0C8B8DB004460D46914617
:104EF0001E46DDE92078B7EE000AB0EE409A9FED3D
:104F00006F0AB0EE408A9FED6D0AF0EE408A9FED89
:104F10006B0AF0EE409A06A807A90CAB02AACDE9ED
:104F2000001008A90AA8FFF783FB28B101200DB0E3
:104F3000BDEC0C8BBDE8F083BDF81C0000F0080050
:104F4000B8B1BDF9200000EE100AB8EEC00A86ED37
:104F5000000ABDF9220000EE100AB8EEC00A87ED83
:104F6000000ABDF9240000EE100AB8EEC00A88ED70
:104F7000000ABDF81C0000F4807000287ED09DED72
:104F8000020AB8EEC00ADFED4E0A80EE201AB0EE3B
:104F9000419A9DED030AB8EEC00ADFED490A80EEA2
:104FA000201AB0EE418A9DED040AB8EEC00ADFED8A
:104FB000440A80EE201AF0EE418A9DED050AB8EE13
:104FC000C00ADFED3F0A80EE201AF0EE419AB8EEFB
:104FD000000A28EE000A20EE290AF0EE000A69EE27
:104FE000200A00EEA80A10EE101A0846FBF7CCFAC9
:104FF00041EC1C0BB0EE4C0AF0EE6C0AFCF728FEFC
:10500000B0EE40BAF0EE60BA9FED2E0B53EC102BD1
:1050100051EC1B0BFBF71CFA41EC1A0BFBF7C7FA20
:105020002060B8EE000A28EE000A20EE080AF0EE32
:10503000000A68EEA00A00EEE80AF7EE000A30EE79
:10504000200A10EE101A0846FBF79EFA41EC1C0BE2
:10505000B0EE000A28EE800A20EE290AF0EE000ADF
:1050600069EE200A00EE880A10EE101A0846FBF7D7
:105070008BFA41EC1D0BB0EE4C1A00E019E0F0EE9B
:105080006C1AB0EE4D0AF0EE6D0AFDF7FDF8B0EEC9
:1050900040BAF0EE60BA9FED0B0B53EC102B51ECC5
:1050A0001B0BFBF7D5F941EC1A0BFBF780FA2860D4
:1050B00001E002203BE7002039E70000000000008B
:1050C0000000804E6666666666A64C4070B5002499
:1050D000FBF7B6FF31A0FCF791FD00F007F90028BF
:1050E00059D1782000F084FEC4B20CB1012070BD0B
:1050F0002FA0FCF783FD7820FFF7BAFEC4B20CB1F5
:105100000220F4E730A0FCF779FD642000F022FED5
:10511000C4B20CB10320EAE732A0FCF76FFDFFF741
:105120007BFAC4B20CB10420E1E735A0FCF766FDC0
:105130003C48FFF711FE0546FFF798FBC4B20CB1DF
:105140000520D4E738A0FCF759FD40F27310FFF7B3
:105150000BF9C4B20CB10620C9E73AA0FCF74EFD2A
:105160006420FFF74BFBC4B20CB10720BFE73BA0A4
:10517000FCF744FD3FA0FCF741FD012000F0E6FCF8
:10518000C4B24FF47A7002F0D3F90CB10920AEE743
:105190003DA0FCF733FD0020A9E70000696963200A
:1051A000696E697420737563636573730A00000028
:1051B0007365742073656E736F72732073756363A8
:1051C0006573730A0000000073657420636F6E6678
:1051D0006967757265206669666F207375636365BC
:1051E00073730A007365742073616D706C6520724F
:1051F00061746520737563636573730A0000000052
:105200006C6F6164206D6F74696F6E206472697673
:105210006572206669727761726520737563636574
:1052200073730A00B8020020736574206F72696599
:105230006E746174696F6E20737563636573730A4E
:1052400000000000736574206665617475726520E6
:10525000737563636573730A0000000073657420DF
:105260006669666F20726174652073756363657328
:10527000730A000073656C6620746573742073751F
:1052800063636573730A000073657420646D702036
:10529000737461746520737563636573730A0000CA
:1052A00001461148407A30B1012807D0022808D0C1
:1052B00003280CD108E0022008700BE004200870DD
:1052C00008E00820087005E01020087002E04FF0A8
:1052D000FF30704700BF0448C07C18B10878400612
:1052E000000E08700020F4E78C0200201CB580201E
:1052F0008DF80000654A1268917C644A5268107803
:105300006B460122FBF7C6FF10B14FF0FF301CBD0A
:10531000642002F00DF900208DF800005B4A12684D
:10532000917C5A4A526810786B460122FBF7B2FF13
:1053300010B14FF0FF30EAE7544A1268917D534AAA
:10534000526810786B460622FBF730FF10B14FF021
:10535000FF30DCE79DF80500C007400F9DF8031003
:1053600001F0010140EA41009DF8011001F0010146
:1053700040EA010494B1012C03D101214348C174D6
:1053800031E0022C03D100214048C1742BE02146BA
:105390003FA0FCF733FC4FF0FF30B8E73B4A126800
:1053A000D1783A4A526810786B460122FBF7FEFE2C
:1053B00010B14FF0FF30AAE79DF8000000F00F0495
:1053C0002CB93D48FCF71AFC4FF0FF309FE7042C46
:1053D00006D13AA0FCF712FC01212C48C17402E06E
:1053E00000212A48C174FF2128488172FF202749E3
:1053F0000872FF2125484172C1724FF6FF71C181C9
:10540000FF21017481740121017380F822100021B1
:1054100080F823104175017516300160416081608C
:10542000163880F8241080F82510C1844FF4FA60F3
:1054300000F0D4FB10B14FF0FF3068E7022000F01D
:105440009DFA10B14FF0FF3061E72A2000F040FCD8
:1054500010B14FF0FF305AE7322000F07BFC10B162
:105460004FF0FF3053E70020FFF702FD10B14FF07F
:10547000FF304CE7002000F0C3FA10B14FF0FF30CE
:1054800045E7002000F0B4FC002040E78C0200203B
:10549000556E737570706F7274656420736F667487
:1054A000776172652070726F6475637420726576BF
:1054B0002025642E0A0000008893000848616C666D
:1054C0002073656E7369746976697479207061728E
:1054D0007420666F756E642E0A0000002DE9F0439B
:1054E00085B005460E4690469946294890F8250015
:1054F00020B14FF0FF3005B0BDE8F08316B94FF092
:10550000FF30F8E7002423E0281B102801DD1020DD
:1055100000E0281B87B232193946204600F0D0FC43
:1055200010B14FF0FF30E6E701AA3946204600F0FF
:1055300001F910B14FF0FF30DDE730193A4601A90B
:10554000FAF7D2FE10B16FF00100D4E7E01984B28F
:10555000AC42D9DB4FEA28208DF8000008F0FF00AC
:105560008DF801000A4A1268917E094A5268107843
:105570006B460222FBF78EFE10B14FF0FF30BAE708
:105580000121034880F82510A0F826900020B2E7FA
:105590008C02002038B50446282C02DD4FF0FF3085
:1055A00038BDDCB9002000F05DFB00208DF8000064
:1055B00007208DF801002E4A1268917C2C4A52680F
:1055C00010786B460222FBF765FE10B14FF0FF30FA
:1055D000E6E70021264801750020E1E7012000F000
:1055E00041FB20208DF80000012C06D100208DF811
:1055F0000100052000F06CFB17E0052C06DC012003
:105600008DF80100052000F063FB0EE0142C06DC91
:1056100002208DF801000A2000F05AFB05E003206B
:105620008DF80100142000F053FB9DF801000721C4
:1056300001EB8010C0B28DF801000D4A1268917C18
:105640000B4A526810786B460222FBF723FE10B11A
:105650004FF0FF30A4E70821054881720021017353
:10566000012101750020FFF703FC002098E70000EE
:105670008C020020F8B504460F4616462C4890F8D8
:10568000240010B94FF0FF30F8BD2948807A10B9D6
:105690004FF0FF30F8E7264A1268917A244A5268A0
:1056A00010786B460222FBF781FD10B14FF0FF30FE
:1056B000EAE79DF801009DF8001040EA0125A542A7
:1056C00003DA00203070401EDEE719484068408849
:1056D000B5EB600F17DD164A1268517C144A526808
:1056E00010786B460122FBF761FD10B14FF0FF30DF
:1056F000CAE79DF8000000F0100020B100F05AF851
:105700006FF00100C0E7E2B2094B1B68D97A084B81
:105710005B6818783B46FBF749FD10B14FF0FF304E
:10572000B2E795FBF4F0401E30700020ACE70000BB
:105730008C020020F8B504460D46164616B94FF007
:10574000FF30F8BD1A48807A10B94FF0FF30F8E703
:1057500020128DF80000E0B28DF801009DF80100E4
:105760002844134949684989884202DD4FF0FF30D7
:10577000E7E70F4A1268117E0D4A526810786B46AF
:105780000222FBF787FD10B14FF0FF30D9E7EAB2F4
:10579000074B1B68597D064B5B6818783346FBF74F
:1057A00005FD10B14FF0FF30CBE70020C9E7000046
:1057B0008C02002008B57048807A10B94FF0FF3095
:1057C00008BD002000906C4A1268D17B6A4A52687A
:1057D00010786B460122FBF75DFD10B14FF0FF30F2
:1057E000EEE7654A12685179634A526810786B4651
:1057F0000122FBF74FFD10B14FF0FF30E0E75E4AAA
:10580000126811795C4A526810786B460122FBF7E6
:1058100041FD10B14FF0FF30D2E7574890F8240017
:10582000002853D00C200090534A12681179524A34
:10583000526810786B460122FBF72CFD10B14FF037
:10584000FF30BDE7322001F073FEC02000904A48CF
:10585000807A00F0010020B19DF8000040F02000A7
:105860000090454A12681179434A526810786B4695
:105870000122FBF70FFD10B14FF0FF30A0E73E48CB
:10588000407C10B10220009001E0002000903A4AD4
:105890001268D17B384A526810786B460122FBF7B8
:1058A000F9FC10B14FF0FF308AE700200090324A37
:1058B00012685179304A526810786B460122FBF722
:1058C000E9FC002855D04FF0FF3079E70420009024
:1058D000294A12681179284A526810786B460122C9
:1058E000FBF7D8FC10B14FF0FF3069E72248807C0D
:1058F00020B92148807A00F0010010B940200090C2
:1059000001E0602000901C4A126811791A4A52681E
:1059100010786B460122FBF7BDFC10B14FF0FF3051
:105920004EE7322001F004FE1348407C10B1012004
:10593000009001E0002000900F4A1268D17B0E4ACF
:10594000526810786B460122FBF7A4FC10B14FF0AF
:10595000FF3035E7084A12685179074A52681078D3
:10596000054B10330122FBF795FC10B14FF0FF30CF
:1059700026E7002024E700008C02002038B504460A
:105980001E48807A10B94FF0FF3038BD022C06D087
:10599000042C07D0082C08D0102C0CD108E00020D3
:1059A00000900BE00820009008E01020009005E037
:1059B0001820009002E04FF0FF30E6E700BF0F48EC
:1059C000407A9DF80010B0EBE10F01D10020DCE738
:1059D0000A4A1268D179094A526810786B46012246
:1059E000FBF758FC10B14FF0FF30CEE79DF80000F8
:1059F000C110024841720020C7E700008C0200205D
:105A000038B504465048807CA04201D1002038BD02
:105A1000002C46D04C4A126811794B4A52681078D3
:105A20006B460122FBF7C2FB10B14FF0FF30EEE7EF
:105A30009DF8000020F020000090434A1268117980
:105A4000414A526810786B460122FBF723FC10B1E3
:105A50004FF0FF30DBE7032001F06AFD02200090E9
:105A6000394890F8220020B19DF8000040F08000F5
:105A70000090354890F8230020B19DF8000040F0D8
:105A800030000090304A1268117D2F4A5268107819
:105A90006B460122FBF7FEFB002851D04FF0FF3090
:105AA000B5E7294A12681179274A526810786B467F
:105AB0000122FBF77BFB10B14FF0FF30A7E7224834
:105AC000807A00F0010028B19DF8000040F020002D
:105AD000009004E09DF8000020F0200000901A4A99
