:020000040800F2
:10000000483A01207D0200085D1100088F0C0008AD
:10001000C11000084D0B0008671800080000000020
:10002000000000000000000000000000C501000802
:10003000510B000800000000190200088D14000890
:10004000970200089702000897020008970200082C
:10005000970200089702000897020008970200081C
:10006000970200089702000897020008970200080C
:1000700097020008970200089702000897020008FC
:1000800097020008970200089702000897020008EC
:1000900097020008970200089702000897020008DC
:1000A00097020008970200089702000897020008CC
:1000B00097020008970200089702000897020008BC
:1000C00097020008970200089702000897020008AC
:1000D00097020008AD160008970200089702000872
:1000E000970200089702000897020008970200088C
:1000F000970200089702000897020008970200087C
:10010000970200089702000897020008970200086B
:1001100097020008970200082915000897020008B6
:10012000970200089702000897020008970200084B
:10013000970200089702000897020008970200083B
:10014000970200089702000897020008970200082B
:10015000970200089702000897020008970200081B
:10016000970200089702000897020008970200080B
:1001700097020008970200089702000897020008FB
:1001800097020008970200089702000897020008EB
:1001900097020008970200089702000897020008DB
:1001A000970200089702000897020008DFF810D0B5
:1001B00000F0B2FB00480047A13A0008AFF300800E
:1001C000483A01202A4B19680868B0E8F04F80F3DC
:1001D0000988BFF36F8F4FF0000080F311887047DC
:1001E0000000000006480068006880F3088862B6D6
:1001F00061B6BFF34F8FBFF36F8F00DF00BF00BF4B
:1002000008ED00E0DFF80C00016841F470010160C6
:10021000704700BF88ED00E0EFF30980BFF36F8FF8
:10022000134B1A681EF0100F08BF20ED108A20E94A
:10023000F04F106008B44FF0500080F31188BFF306
:100240004F8FBFF36F8F06F005F84FF0000080F37B
:10025000118808BC19680868B0E8F04F1EF0100F4C
:1002600008BFB0EC108A80F30988BFF36F8F704726
:1002700034010020EFF305807047000006488047F6
:1002800006480047FEE7FEE7FEE7FEE7FEE7FEE77B
:10029000FEE7FEE7FEE7FEE7C1140008AD01000837
:1002A00040EA01039B0703D009E008C9121F08C0F8
:1002B000042AFAD203E011F8013B00F8013B521E78
:1002C000F9D27047D2B201E000F8012B491EFBD2EF
:1002D00070470022F6E710B513460A460446194651
:1002E000FFF7F0FF204610BD30B50446002003465E
:1002F00000E05B1C934203D2E05CCD5C401BF8D075
:1003000030BD2DE9FE4F804681EA0300C00F0C4648
:10031000009021F0004123F00045B8EB0200A94114
:1003200005D24046214690461C460B46024623F025
:100330000040104347D0270DC7F30A00C3F30A510A
:100340000290401A019040286BDAC3F3130040F486
:10035000801B0098924620B10023D2EB030A63EB86
:100360000B0B01985946C0F14002504600F058F975
:1003700006460D4650465946019A00F070F910EBBA
:1003800008006141002487EA115284EAE7731A43A6
:1003900040D0009A62B3019A012A4FEA075215DC55
:1003A000001B61EB02014FF0004202EA0752CDE967
:1003B0000042001C41F5801132462B4600F0A7F99F
:1003C00003B0BDE8F08F40462146F9E7001B61EB22
:1003D0000201001C41F5801300185B412018A2F5B2
:1003E000001747EB030140EAD570B6196D4111E0E3
:1003F0006D084FEA360645EAC0754FEA0752001B02
:1004000061EB0201001C41F5801149084FEA300000
:100410000019514132462B4603B0BDE8F04F00F0C1
:1004200067B90098012240000023D0EB020263EB81
:10043000E073009821464FEAE074B8EB000061EBEE
:100440000401E9E783F000435BE781F0004158E7EE
:100450002DE9FE4F81EA030404F0004421F000413D
:1004600000944FF0000B23F0004350EA01045ED0EB
:1004700052EA03045BD0C3F30A54C1F30A552C4477
:10048000A4F2F3340194A0FB0254C1F3130141F42C
:100490008011C3F3130343F4801301FB024400FBF8
:1004A000034E840A970A44EA815447EA8357A4FB1F
:1004B000076802958D0A05FB07854FEA932C04FB1C
:1004C0000C542705029D4FEA065847EA1637B5EB4C
:1004D00008056EEB070C870E920E47EA811742EA79
:1004E0008312A7FB0201B6EB0B0164EB00042B0D9A
:1004F00043EA0C335E1844EB1C50DA465146E7FBE6
:100500000201C5F313044FEA0B3343EA14534FEAD5
:100510000432019C43EA0603A4F10C040294009CFB
:10052000CDE900B400F0F3F803B0BDE8F08F00208F
:100530000146F9E700F0004230F000400AD0C10D5A
:1005400001F56071C0F3160042EA0151C20840078C
:100550001143704700200146704701F0004330B45A
:1005600021F0004150EA010206D00A0DA2F56072A6
:10057000C1F31301002A02DC30BC00207047440F95
:1005800044EAC104C100E01830BC00EBC25000F0E6
:1005900078B830B50B46014600202022012409E03E
:1005A00021FA02F59D4205D303FA02F5491B04FA2C
:1005B00002F52844151EA2F10102F1DC30BD2DE93F
:1005C000F05F0546002092469B46884606468146D7
:1005D00040241BE0284641464746224600F02FF8BB
:1005E00053465A46C01A914110D311461846224626
:1005F00000F016F82D1A67EB01084F46224601203D
:10060000002100F00DF817EB00094E41201EA4F167
:100610000104DFDC484631462A464346BDE8F09FE8
:10062000202A04DB203A00FA02F1002070479140B2
:10063000C2F1200320FA03F3194390407047202AA7
:1006400004DB203A21FA02F00021704721FA02F37C
:10065000D040C2F120029140084319467047202A39
:1006600006DBCB17203A41FA02F043EAE07306E0DA
:1006700041FA02F3D040C2F12002914008431946EA
:1006800070470029A8BF7047401C490008BF20F0F0
:100690000100704710B4B0FA80FC00FA0CF050EA88
:1006A000010404BF10BC704749B1CCF1200421FA09
:1006B00004F411FA0CF118BF012121430843A3EB04
:1006C0000C01CB1D4FEA00614FEA102042BF002011
:1006D00010BC704700EBC35010440029A4BF10BCED
:1006E0007047401C490008BF20F0010010BC704753
:1006F00010B5141E73F1000408DA401C41F100012A
:1007000092185B411A4301D120F0010010BD2DE980
:10071000F04D92469B4611B1B1FA81F202E0B0FA77
:1007200080F220329046FFF77BFF04460F4640EAF6
:100730000A0041EA0B0153465A46084313D01146BA
:1007400053EA010019D0C8F140025046FFF777FF85
:1007500005460E46504659464246FFF761FF08439C
:1007600005D0012004E020463946BDE8F08D002088
:10077000054346EAE0762C4337430A986305E40ACA
:10078000A0EB08000022FD0A44EA47540A3002D5D3
:1007900000200146E9E7010510196941DDE9084536
:1007A00000196941BDE8F04DA2E72DE9F04D81EA5D
:1007B000030404F0004B21F0004514464FF0000AFA
:1007C00023F0004150EA050220D054EA01021DD076
:1007D000C5F30A570246C5F31303C1F31300C1F36F
:1007E0000A5640F4801543F48013A7EB0608101B4B
:1007F000D64608F2FD3873EB050002D308F1010874
:1008000001E092185B41B8F1000F03DA00200146C5
:10081000BDE8F08D00204FF48011064684460EE0BE
:10082000171B73EB050705D3121B63EB0503064388
:100830004CEA010C49084FEA300092185B4150EA3B
:100840000107EDD152EA030012D082EA040083EAE4
:100850000501084305D0101BAB4106D2012200233D
:1008600006E000224FF0004302E06FF00102531057
:100870001AEB06004CEB085110EB0A0041EB0B01A0
:10088000BDE8F04DFFF734BFC1F30A52C1F31301C5
:1008900040F2FF3341F480119A4202DA002001460F
:1008A000704740F233439A42A2F2334202DC524292
:1008B000FFF7C5BEFFF7B4BE30B5041E71F10004EA
:1008C00004DB4FF00044404264EB0101141E73F15D
:1008D000000405DB1C464FF00043524263EB040367
:1008E0008B4208BF824230BD30B5041E71F1000456
:1008F00004DB4FF00044404264EB0101141E73F12D
:10090000000405DB1C464FF00043524263EB040336
:10091000994208BF904230BD064C074D06E0E068A2
:1009200040F0010394E8070098471034AC42F6D336
:10093000FFF740FCE87C0008087D00082DE9F04D39
:1009400000231A461B1A8A4103DB00200146BDE83A
:10095000F08DC1F30A52C1F3130141F480154FF039
:10096000000BD10702D100186D41521E002704462A
:1009700040F2FF11384601EB620A3E4680460246CD
:1009800000204FF48011FFF75AFEC2197141BB18C5
:1009900046EB0100B4EB030C75EB000C04D3E41A36
:1009A00065EB000517460E46241908F101006D415C
:1009B00080463428E3DDF91946EB0600091BA841FF
:1009C00003D24FF0FF32134601E0002213461BEB27
:1009D000070046EB0A51BDE8F04DFFF789BE70B540
:1009E0008D1810F8014B14F0030201D110F8012BFF
:1009F000231106D110F8013B03E010F8016B01F858
:100A0000016B521EF9D1ABB110F8012B04F00C04AC
:100A10008A1A0C2C03D0A2EB84129B1C08E010F85D
:100A2000014BA2EB0422F8E712F8014B01F8014B4D
:100A30005B1EF9D5A942D4D3002070BD7FB5054611
:100A400005F070FC00F086F8002420A000F00EFFF6
:100A50000FE005F067FC012005F050FA601C84B23D
:100A60000A2C03DD1DA000F001FF06E020A000F02D
:100A7000FDFE03F0F7F90028EBD100BF1EA000F047
:100A8000F5FE05F04FFC05F052F820A000F0EEFE58
:100A90000020039003A8032100234FF40062CDE956
:100AA000001020A1234805F0CFFF0020029002A8EB
:100AB000022100238A02CDE900101FA1224805F07F
:100AC000C3FF002005F048FA7FBD0000646D702070
:100AD000696E6974696E670A000000000A646D70CF
:100AE00020696E6974206572726F720A00000000DE
:100AF0007265696E69740A000A646D7020696E69B6
:100B00007420737563636573730A000073736431D3
:100B10003330365F696E6974207375636365737310
:100B20000A0000005461736B5F4D5055363035300C
:100B300000000000151600085461736B5F535344A6
:100B400031333036000000004916000800BFFEE7D0
:100B5000704700001FB50121102000F04DFB002060
:100B60000190029003902C20ADF804000020ADF815
:100B70000600012002900020ADF80C008DF80E0058
:100B800001A90C4800F004FD01221146094800F0BB
:100B9000F5FC0020009036208DF8000002208DF832
:100BA00001008DF8020001208DF80300684600F076
:100BB000D7FA1FBD00100040F0B50A4600210023FF
:100BC000002400BF3DE0012505FA01F3156805EAA0
:100BD00003049C4234D105684F000326BE40B54350
:100BE000056015794E00B5400668354305601579F6
:100BF000012D02D01579022D16D185684F000326EC
:100C0000BE40B543856055794E00B5408668354392
:100C10008560456801268E40B543456045689679F4
:100C20008E40B6B235434560C5684F000326BE40CE
:100C3000B543C560D5794E00B540C6683543C5603B
:100C4000491C1029BFD3F0BDF0B5002300244D0787
:100C5000ED0E02FA05F3CE1000F1200555F82650EE
:100C60004E07F70E0F26BE40B543CF1000F1200609
:100C700046F82750CE1000F1200555F8265045EAD9
:100C80000304CE1000F1200545F82640F0BD00BF5A
:100C9000FEE721B1028842F48062028004E002880B
:100CA0004FF6FF331A400280704770B502460024A9
:100CB000002500230020958A138B1B0445EA0306B8
:100CC00026F07F4404EA01068E4201D1012000E0B3
:100CD000002070BD21B1028842F00102028004E0D0
:100CE00002884FF6FE731A400280704721B10288D5
:100CF00042F48072028004E002884FF6FF631A40DB
:100D00000280704721B1028842F40072028004E040
:100D100002884FF6FF531A40028070470CB5024616
:100D2000002000230193009300920B0F019321F008
:100D30007F41019B1BB1009B1433009303E0090C1E
:100D4000009B18330093009B1B680B400BB10120E4
:100D500000E000200CBD00002DE9FF4704460D46D1
:100D60000026B1460427DFF8CC80A6884FF6C07075
:100D70000640684600F060FADDF808802E48B8FBAF
:100D8000F0F01FFA80F946EA0906A68020884FF69F
:100D9000FE710840208000262849286888420CD827
:100DA00028684000B8FBF0F087B2042F00DA04276F
:100DB0003E4309F10100208427E0E8884BF6FF71EB
:100DC000884206D1286800EB4000B8FBF0F087B2FB
:100DD00009E0286800EBC00101EB0010B8FBF0F05F
:100DE00087B247F48047C7F30B0008B947F0010703
:100DF00047F4004006434FF4967009FB00F04FF4AF
:100E00007A7190FBF1F0401C2084A683208840F08A
:100E10000100208026884FF6F5300640A8886989B1
:100E2000084306432680A889298908432081BDE814
:100E3000FF87000000127A0040420F00A0860100E8
:100E40000146088AC0B2704712B141F0010101E0C9
:100E500001F0FE01018270470182704700B587B042
:100E60000121022000F0B8F90121880500F0C4F941
:100E70000020059006904FF44060059002208DF808
:100E8000180001208DF81A0003208DF819000120A8
:100E90008DF81B0005A91748FFF78EFE04220A21D2
:100EA0001448FFF7D1FE04220B211248FFF7CCFEB5
:100EB000002001900290039004904FF48060ADF800
:100EC0000E000001ADF810000B4801904BF6FF70CA
:100ED000ADF80A000020ADF808000120ADF80C00C4
:100EE00001A90648FFF738FF01210448FFF7F2FE89
:100EF00007B000BD00040240801A06000058004000
:100F00004CF6CC40014908607047000000300040BA
:100F10004AF6AA20014908607047000000300040EE
:100F20000149486070470000003000400149886076
:100F30007047000000300040014908607047000021
:100F4000003000402DE9F04104460F4615461E468C
:100F500000BF4FF400313248FFF7E0FE0128F8D01F
:100F600001212F48FFF7C2FE00BF2E492C48FFF792
:100F70009CFE0128F9D16006010E00222848FFF7E7
:100F800063FF00BF28492648FFF78FFE0128F9D1EB
:100F900039462348FFF760FF00BF2349891E2048D8
:100FA000FFF783FE0128F8D101211D48FFF79EFEBF
:100FB00000BF1C491A48FFF778FE0128F9D16006E6
:100FC000010E01221648FFF73FFF00BF1549491CDB
:100FD0001348FFF76AFE0128F8D115E03DB900215A
:100FE0000F48FFF756FE01210D48FFF78BFE00BFAB
:100FF0000C493F310A48FFF758FE0128F8D108484C
:10100000FFF71EFF3070761C281EA5F10101CDB23E
:10101000E4D101210248FFF73CFE0020BDE8F08149
:101020000058004001000300820007002DE9F04154
:101030000546884616461F4601211E48FFF756FE04
:1010400000BF1D491B48FFF730FE0128F9D1680693
:10105000010E00221748FFF7F7FE00BF1749154899
:10106000FFF723FE0128F9D141461248FFF7F4FEAD
:1010700000BF1249891E0F48FFF717FE0128F8D15B
:1010800000240DE0395D0B48FFF7E6FE00BF0B4979
:10109000891E0848FFF709FE0128F8D1601CC4B278
:1010A000B442EFDB01210348FFF72CFE0020BDE82E
:1010B000F08100000058004001000300820007009A
:1010C00000BFFEE710B586B004460121084600F0D7
:1010D00083F800200490059002208DF81400002071
:1010E0008DF816004FF4C060049000208DF81700B2
:1010F00002208DF8150004A91648FFF75DFD0722B0
:1011000009211448FFF7A0FD07220A211148FFF723
:101110009BFD0121102000F07FF80020009001903D
:10112000029003900094ADF80C000C20ADF80A007A
:101130000020ADF80800ADF80600ADF804006946DF
:10114000054800F01DFB0121034800F0D6FA06B067
:1011500010BD000000000240001001407047000078
:1011600070B5002100230F22C4781CB3174C2468EB
:1011700004F4E064C4F5E064C4F30721C1F104049D
:10118000E3B20A4144789C40E1B2847814402143A0
:101190000C07210E0E4C05786155047804F01F05EC
:1011A0000124AC4005786D11AD0005F1E025C5F8CE
:1011B000004109E0047804F01F050124AC40054D0E
:1011C0000678761145F8264070BD00000CED00E071
:1011D00000E400E080E100E029B1064A1268024321
:1011E000044B1A6004E0034A12688243014B1A6000
:1011F000704700003038024029B1064A12680243A5
:10120000044B1A6004E0034A12688243014B1A60DF
:10121000704700004038024029B1064A1268024374
:10122000044B1A6004E0034A12688243014B1A60BF
:101230007047000044380240F0B50021002200242D
:10124000022500260223324F3F6807F00C0121B12E
:10125000042905D0082937D105E02E4F076036E074
:101260002D4F076033E02A4F3F1F3F68C7F380567A
:10127000274F3F1F3F6807F03F036EB1264FB7FB74
:10128000F3F7DFF88CC0ACF1040CDCF800C0CCF351
:10129000881C07FB0CF40CE01E4FB7FBF3F7DFF8DC
:1012A00070C0ACF1040CDCF800C0CCF3881C07FB68
:1012B0000CF4174F3F1F3F68C7F301477F1C7D00A9
:1012C000B4FBF5F7076002E0124F076000BF00BFF4
:1012D0000F4F3F6807F0F0010909104F7A5C07686B
:1012E000D74047600A4F3F6807F4E051890A0B4F27
:1012F0007A5C4768D7408760054F3F6807F46041D4
:10130000490B064F7A5C4768D740C760F0BD0000C4
:10131000083802400024F40040787D0100000020DD
:1013200010B501460022002300204A11012A02D1F3
:101330000A4C236808E0022A03D1084C7034236861
:1013400002E0064C7434236801F01F02012494402B
:101350001C400CB1012000E0002010BD003802400C
:101360000149086070470000800E47420CB500201C
:10137000019000904148006840F480303F49086087
:1013800000BF3E48006800F4003000900198401C07
:101390000190009818B90198B0F5A04FF1D13748E5
:1013A000006800F4003010B10120009001E000203E
:1013B00000900098012860D130484030006840F02B
:1013C00080502E49403108602D48006840F440406C
:1013D0002B4908602948083000682849083108600E
:1013E0000846006840F4004008600846006840F481
:1013F000A05008602348091F0860081F006840F0DB
:101400008070091F086000BF1C48006800F0007071
:101410000028F9D01A48006840F480301849086064
:1014200000BF1748406800F480300028F9D0144805
:10143000006840F400301249086000BF104840685E
:1014400000F400300028F9D040F205700E49086021
:101450000A480830006820F0030008490831086095
:101460000846006840F00200086000BF03480830EA
:10147000006800F00C000828F8D10CBD00380240CC
:1014800000700040195A4007003C024010B500BFF0
:10149000502080F31188BFF34F8FBFF36F8F00BFD1
:1014A00005F018FB18B14FF080500449086000BFE8
:1014B000002080F3118800BF10BD000004ED00E0A3
:1014C00010B51548006840F47000134908601348CF
:1014D000006840F001001149086000200F49083100
:1014E00008600E4800680E4908400C4908600D4825
:1014F000091D0860081F006820F48020091F08608B
:10150000002006490C310860FFF730FF4FF0006003
:1015100001498039086010BD88ED00E000380240C4
:10152000FFFFF6FE1030002410B50121074800F03F
:1015300014F8012808D106480068401E04490860D4
:101540000121024800F006F810BD00000010004024
:1015500028000020CA430282704730B502460020AE
:1015600000230024158A05EA0103958905EA010490
:1015700013B10CB1012000E0002030BD1AB1838905
:101580000B43838102E083898B4383817047000092
:1015900000220288184B98420ED0184B98420BD06C
:1015A000B0F1804F08D0164B984205D0154B9842A9
:1015B00002D0154B984204D14FF68F731A404B88D6
:1015C0001A43124B984207D0114B984204D04FF661
:1015D000FF431A400B891A4302804B68C3620B8891
:1015E0000385054B984202D0044B984201D18B7A77
:1015F00003860123838270470000014000040140FC
:101600000004004000080040000C004000100040B2
:101610000014004004F086FE06A000F027F907E061
:1016200004F080FE074802F0A1FA012004F066FCF5
:10163000F6E700005461736B5F4D5055363035301E
:101640000A000000203401201CB512A000F00EF9A1
:10165000642004F053FC04F0F5FD20201149102310
:101660001A46CDE900101821382003F071FB05F06F
:1016700085FB0EE004F0E6FD0B4890ED011AF0EE5C
:10168000410A90ED001AB0EE410A01F087FA05F028
:1016900075FBEFE75461736B5F535344313330365E
:1016A0000A000000C80100202034012010B540F2DB
:1016B0002551084800F03AF8012809D1054800F002
:1016C000C9F80549088040F22551024800F006F8A3
:1016D00010BD0000001001402400002010B50022C1
:1016E000002340F66A14A14200D100BF0A1201246F
:1016F0009440A3B2DC43048010BD21B1828942F43E
:101700000052828104E082894DF6FF731A40828183
:10171000704702460020B1F5007F00D100BF13885A
:101720000B400BB1012000E00020704770B502466D
:10173000002400230025002040F66A16B14200D1A3
:1017400000BFC1F3421501F01F03012606FA03F39F
:10175000012D02D19689334006E0022D02D1168A6E
:10176000334001E0968A33400C12012606FA04F455
:101770001688344013B10CB1012000E0002070BD88
:101780002DE9FF4705460E460024A14600BFA046AE
:10179000B08900B100BF2C8A24F44054F08804437F
:1017A0002C82AC8941F20C608443B08831890843B3
:1017B000718908430443AC81AC8A24F44074B08935
:1017C0000443AC826846FFF737FD2048854202D0CB
:1017D0001F48854202D1DDF80C9001E0DDF8089049
:1017E000A88900F4004040B109EBC90000EB0910E2
:1017F00031684900B0FBF1F707E009EBC90000EBE5
:10180000091031688900B0FBF1F76420B7FBF0F0F4
:1018100004012009642101FB1078A88900F400402C
:1018200040B1322000EBC800B0FBF1F000F007003F
:10183000044308E0322000EB08106421B0FBF1F013
:1018400000F00F0004432C81BDE8FF870010014029
:101850000014014001468888C0F308007047C1F3B6
:1018600008028280704700BFFEE700000FB4054BFE
:1018700010B503A9044A029800F0C6FD10BC5DF83B
:1018800014FB000095380008C002002003B4019842
:101890004100009850EAC12018BF04204A0D18BF2B
:1018A00040F0010040F2FF72B2EB515F08BF40F020
:1018B0000200012808BF052002B0704700000000A8
:1018C00070B5C1482DED020B2DED0E8B82B0119D30
:1018D00025F000449FEDBEDB9FEDBFEB84423EDB75
:1018E000A4F140511098A1F17F6108430FD0BC488A
:1018F000844202DC28D1109830B39DED100B02B069
:10190000BDEC0E8B02B0BDE8704000F071BC9DEDE7
:10191000100B53EC1D2B51EC100BFEF799FD9DEDB8
:10192000100B41EC180B53EC1E2B51EC100BFEF777
:101930008FFD53EC182BFEF7E4FC41EC100B02B0CA
:10194000BDEC0E8B02B070BD012000F095FC02B022
:10195000BDEC0E8B02B0BDE8704000F05DBCA1484C
:101960009FEDA18B844256DA9DED100BB4F1795FA7
:101970000ADA51EC100BFFF789FF042808BF00F0CA
:101980005BFC9DED100BDAE753EC102B51EC100BC8
:10199000FEF75EFD41EC190B95480621B0EE490AB1
:1019A000F0EE690A784400F0A7FB53EC192B51ECD8
:1019B000100BFEF74DFD41EC1A0B8E48B0EE490AB4
:1019C000F0EE690A0421784400F096FB53EC192BE1
:1019D00051EC100BFEF73CFD53EC182BFEF791FC7D
:1019E00041EC100B51EC1A0B53EC102BFEF7DDFE03
:1019F000CDE900019DED000B53EC102B9DED100B7C
:101A000051EC100BFEF724FD9DED101B53EC112B38
:101A1000FEF777FCD2E09DED100B51EC100B01F0BE
:101A20002DFF53EC182BFEF710FD9FED730BCDE946
:101A3000000153EC102B9DED000B51EC100BFEF749
:101A400007FD41EC190B6E480621B0EE490AF0EE95
:101A5000690A784400F050FB53EC192B51EC100B41
:101A6000FEF7F6FC41EC1B0B6648B0EE490AF0EEBF
:101A7000690A0421784400F03FFB53EC192B51EC28
:101A8000100BFEF7E5FC53EC182BFEF73AFC41EC8B
:101A90001C0B51EC190B04F013F841EC180B5A48CD
:101AA0009FED5BABA04222DC53EC1C2B51EC1B0BDB
:101AB000FEF77BFECDE900019DED000B51EC180B0C
:101AC00053EC102BFEF7C4FC53EC182BFEF719FC5B
:101AD00053EC1A2BFEF7BCFC53EC1D2BFEF7B2FCAB
:101AE00053EC1E2BFEF7B1FC41EC100B5FE08DEDCB
:101AF000008B002000909DED000B51EC180B53EC77
:101B0000102BFEF7FEFB9DED000B41EC1E0B53EC82
:101B1000102B51EC100BFEF79BFC53EC192BFEF72E
:101B200094FC53EC1E2BFEF740FE41EC190B53ECDA
:101B30001C2B51EC1B0BFEF738FE41EC1B0B53EC3E
:101B40001A2B51EC190BFEF783FC53EC1D2BFEF7FF
:101B50007CFC41EC190B53EC1A2B51EC180BFEF7E3
:101B600077FC53EC1B2BFEF773FC53EC192BFEF7A1
:101B700069FC9DED000B41EC180B53EC1A2B51EC5A
:101B8000100BFEF765FC9FED249B53EC192BFEF721
:101B90005CFC41EC100B51EC180B53EC102BFEF7D6
:101BA00051FC53EC192BFEF750FC41EC100B002DAF
:101BB0003FF7C5AE51EC100B81F0004141EC100B2A
:101BC000BDE60000000000000000F03F0000000043
:101BD000075C143326A6913C182D4454FB21F93F91
:101BE0000000F07F0000E03F000000000000F03F38
:101BF000006200000E620000000000000000E03FF4
:101C000052610000606100003333EF3F00000000CC
:101C10000000000000000040182D4454FB21E93F63
:101C200070B59B482DED020B2DED068B079D25F021
:101C30000044A04218DC9748844202DC0AD106988E
:101C400040B19DED060BBDEC068B02B0BDE87040C7
:101C500000F0CEBA002DCCBF9FED8F0B9FED900B07
:101C6000BDEC068B02B070BD8F48A04215DD8F48D9
:101C7000A042D8BF4FF0FF3458DD9DED060B51EC6C
:101C8000100BFFF703FE042808BF00F0D5FA9DED06
:101C9000060BBDEC068B02B070BD9DED060B51EC42
:101CA000100B01F0EBFDCDE9060181489FED828B21
:101CB000A0423CDD8248A0421FDD00249FED82ABA4
:101CC0009DED060B53EC1A2B51EC100BFEF719FB94
:101CD0009DED060B41EC190B53EC1A2B51EC100B3C
:101CE000FEF7B6FB53EC182BFEF7ACFB53EC192BAD
:101CF000FEF75BFDCDE9060149E09DED060B0124F1
:101D000053EC182B51EC100BFEF7FBFA9DED060B74
:101D100041EC190B53EC182B51EC100BFEF792FB16
:101D200053EC192BFEF741FDCDE906012FE0684881
:101D3000A0421FDD02249FED689B9DED060B53EC36
:101D4000192B51EC100BFEF783FB53EC182BFEF70D
:101D5000D8FA9DED060B41EC180B53EC192B51EC06
:101D6000100BFEF76FFB53EC182BFEF71EFDCDE9B1
:101D700006010CE09DED060B032453EC102B9FEDA8
:101D8000580B51EC100BFEF710FDCDE906019DED4F
:101D9000060B53EC102B51EC100BFEF759FB41ECEA
:101DA000180B53EC182BFEF753FB41EC190B4E4864
:101DB0000621B0EE490AF0EE690A784400F09CF979
:101DC00053EC182B51EC100BFEF742FB41EC180BB7
:101DD0004648B0EE490AF0EE690A0521784400F061
:101DE0008BF953EC192B51EC100BFEF731FB41EC46
:101DF000100B51EC180B53EC102B002C0EDAFEF7E5
:101E000080FA9DED061B53EC112BFEF721FB9DED97
:101E1000061B53EC112BFEF718FB35E0FEF771FAA9
:101E20009DED061B53EC112BFEF712FB41EC100B42
:101E30002F48784400EBC40090ED001B51EC100BD0
:101E400053EC112BFEF7FEFA9DED061B53EC112B04
:101E5000FEF7F8FA41EC100B2648784400EBC4007A
:101E600090ED001B51EC100B53EC112BFEF7EDFA2B
:101E700041EC100B002DA2BFBDEC068B02B070BD73
:101E800051EC100B81F0004141EC100B01E7000018
:101E9000000010440000F07F182D4454FB21F93F4E
:101EA000182D4454FB21F9BF0000DC3F0000203E08
:101EB0000000F33F00000000000000000000F03FC1
:101EC0000000E63F000000000000000000000040AD
:101ED0000080034000000000000000000000F83F08
:101EE000000000000000F0BFA25E0000585E00008D
:101EF000E25D00009A5D000070B56F4E2DED040BA1
:101F00002DED048B82B0DDF824C0DDE907235C42AF
:101F10002CF000411C4341EAD474069D22F000409D
:101F2000B44205D86C422C4340EAD474B4420BD975
:101F30009DED081B9DED060B02B0BDEC048B04B0BB
:101F4000BDE8704000F05EB9ACF14054A4F17F648C
:101F50001C430BD0022404EAAC7444EAD274054357
:101F60009FED578B9FED582B07D015E09DED060B8D
:101F700051EC100B00F0CBFD42E0002C11BF012C06
:101F80009DED060B02B0BDEC048B04BF04B070BD28
:101F9000022C38D0032C3BD00B439FED4D1B9FED03
:101FA0004E0B0AD0B14218D1B04209D121F0804184
:101FB00020F08040099107900FE0002A15DA10E028
:101FC000474B7B44002C08BF93ED000B0DD0012C38
:101FD00010D0022C17D0032C1AD0B0421DD1002AE9
:101FE00003DAB0EE410AF0EE610A02B0BDEC048BF8
:101FF00004B070BD93ED000B51EC100B81F000416B
:1020000041EC100BF1E7B0EE480AF0EE680AECE79D
:10201000B0EE420AF0EE620AE7E7401A00159FEDC3
:10202000329B3C28C8BF8DED000B17DCBCF1000FC4
:10203000BCBF10F13C0F8DED009B0FDB9DED080B3D
:1020400053EC102B9DED060B51EC100BFEF7ADFB86
:1020500001F014FC00F05BFDCDE90001B4B1012CEE
:1020600010D0022C9FED220B53EC102B9DED000B9A
:1020700051EC100B19D0FEF7E5F953EC182BFEF7D5
:10208000E1F9BDE7019880F0004001909DED000B63
:1020900053EC192B51EC100BFEF70EFC04BF022081
:1020A00000F0EAF89DED000B9FE7FEF7CBF953EC4B
:1020B000182BFEF7CAF9A3E70000F07F000000002C
:1020C000182D4454FB210940182D4454FB2109C00C
:1020D000182D4454FB21F9BF182D4454FB21F93F1E
:1020E000CA5C0000000000000000000000000000CA
:1020F000075C143326A6A13C70B504462DED028B77
:102100004D1E00EBC500B0EE408AF0EE608A90ED07
:10211000000B35F0060017D053EC182B51EC100BC8
:10212000FEF796F941EC100B6D1E04EBC50090ED27
:10213000001B51EC100B53EC112BFEF7E2F841ECB5
:10214000100B35F00600E7D1022D36D0042D1CD03F
:10215000062D1CBFBDEC028B70BD53EC182B51EC4F
:10216000100BFEF775F994ED0A1B53EC112BFEF7DB
:10217000C8F853EC182BFEF76BF994ED081B53ECE1
:10218000112BFEF7BEF841EC100B53EC182B51EC61
:10219000100BFEF75DF994ED061B53EC112BFEF7C7
:1021A000B0F853EC182BFEF753F994ED040B53ECF5
:1021B000102BFEF7A6F841EC100B53EC182B51EC4A
:1021C000100BFEF745F994ED021B53EC112BFEF7B3
:1021D00098F853EC182BFEF73BF994ED001B53ECE9
:1021E000112BFEF78EF8BDEC028B41EC100B70BD8D
:1021F00010B553EC102B51EC100BFEF782F841ECAC
:10220000100B10BD10B553EC112B51EC100BFEF759
:1022100078F841EC100B10BD9FED050B10B553EC99
:10222000102B51EC100BFEF7C0FA41EC100B10BD57
:1022300000000000000000009FED050B10B553ECFE
:10224000102B51EC100BFEF703F941EC100B10BDF5
:10225000000000000000001002E008C8121F08C1C2
:10226000002AFAD170477047002001E001C1121F17
:10227000002AFBD170470000014908607047000048
:10228000CC0200202DE9FF5F82B00021DDE904309F
:10229000020DDDF840B0034318D044F61050A2F20E
:1022A000FF3242431514119801281FD0A5EB0B00F3
:1022B000401C5FEA000A4FF000064E4FDFF83891ED
:1022C000B046504615D5CAF1000413E01198012418
:1022D0004AA3012801D16FEA0B010298119AC0E9C3
:1022E0000031C0E9024206B0BDE8F09FCBF100002A
:1022F000DFE704460021404A491842EB0450CDE98B
:10230000001012E0E00707D032463B4640464946FF
:10231000FEF79EF88046894632463B4610461946EF
:10232000FEF796F806460F466410002CEAD1DDE968
:102330000401DDE90023BAF1000F06DAFEF788F8A0
:1023400042464B46FEF784F805E0FEF72EFA424679
:102350004B46FEF72AFA04460E460022284BFEF7AB
:10236000C3FA03D84FF0FF30014607E00022254BA7
:1023700020463146FDF7C5FFFEF786FA102409E036
:10238000002C0ADB0A220023FEF719F9039B3032E6
:102390001A55641E50EA0102F2D1641C039AC4F17A
:1023A00011031444119A012A03D0012208430DD1CC
:1023B0000AE0084304D000204FF0110B119072E79F
:1023C000A3EB0B056D1E0DE05B4504DD4FF0000235
:1023D00005F1010504E003DA4FF00002A5F1010563
:1023E000002AECD002981199C0E90231C0E90045F9
:1023F00079E70000000014400000F03F30000000CA
:102400000000F0430000E03F2DE9FF4F95B09A46F1
:10241000884606460025EEE1252877D10024274688
:10242000F94A0121039400E0044316F8013F203BE0
:1024300001FA03F01042F7D130782A2811D06FF05A
:102440002F033078A0F13002092A16D8039A44F0FD
:10245000020402EB820203EB42021044761C03905A
:10246000EFE758F8042B0392002A03DA504244F4B1
:102470000054039044F00204761C30782E2816D1C4
:1024800016F8010F44F004042A280DD06FF02F0233
:102490003078A0F13003092B09D807EB870302EB52
:1024A0004303C718761CF3E758F8047B761C307892
:1024B0006C280FD006DC4C2817D068280DD06A286D
:1024C00014D104E0742810D07A280FD10DE044F420
:1024D00000140AE044F4801401E044F440147278DB
:1024E000824202D104F58014761C761C307866286E
:1024F0000BD013DC582877D009DC002875D045288C
:10250000F6D04628F4D047281AD193E118E0632882
:1025100035D0642879D0652812D18BE1702873D02A
:1025200008DC6728F1D069286FD06E280DD06F289D
:1025300006D1ACE073282CD0752874D0782853D0FD
:102540005246179990476D1C54E1C4F3025002287B
:1025500009D003280DD0D8F8001004280DD00D6044
:1025600008F1040846E1D8F80010EA17C1E9005262
:10257000F6E7D8F800100D80F2E70D70F0E718F8D4
:10258000041B8DF8001000208DF80100EB4601209F
:1025900003E058F804BB4FF0FF3061074FF0000133
:1025A00002D40DE009F101018946B9420FDA8145F3
:1025B000F8DB1BF809100029F4D108E009F101014A
:1025C00089468142FADB1BF809100029F6D10398ED
:1025D0005346A0EB090721463846179A00F080FAC7
:1025E000284400EB090507E044E008E10DE01BF892
:1025F000010B524617999047B9F10109F7D253469A
:1026000021463846179AF2E039E00A21C4F3025213
:102610004FF0000B0091022A06D058F8040BC117A6
:10262000032A09D00AE023E008F1070020F007029E
:10263000F2E80201904605E000B2C117042A01D178
:1026400040B2C117002906DA0A460021404261EB78
:1026500002012D2202E0220504D52B228DF8042050
:10266000012203E0E20701D02022F7E7914657E07C
:102670000A2100E010214FF0000B00910BE0102127
:102680004FF0000B44F004040827009103E00820F9
:102690004FF0000B0090C4F30252022A05D058F804
:1026A000040B0021032A08D008E008F1070020F0FD
:1026B0000702F2E80201904603E080B2042A00D14A
:1026C000C0B24FF0000922072AD53278702A07D00D
:1026D000DDF800C08CF0100C5CEA0B0C05D00EE0AD
:1026E00040228DF80420012208E050EA010306D0C0
:1026F00030238DF804308DF8052002229146009B8E
:1027000083F0080353EA0B030AD150EA010201D116
:10271000620705D530228DF804204FF001097F1E95
:102720003278582A04D039A20C920CAA02920BE0FB
:102730003BA2F9E75B46009AFDF741FF0C9B9B5CCF
:10274000029A521E0292137050EA0102F2D10298CC
:1027500004A9081A00F1200B600702D524F4803484
:1027600000E001275F4502DDA7EB0B0000E0002041
:1027700000EB0B01009003984944401A0390E003DA
:1027800006D453462146179A039800F0A9F9054448
:10279000002706E001A85246C05D179990476D1CBE
:1027A0007F1C4F45F6DBE0030CD553462146179AB4
:1027B000039800F095F9054404E03020524617993B
:1027C00090476D1C0099481E00900029F5DC08E038
:1027D0000298029952460078491C02911799904735
:1027E0006D1CBBF10001ABF1010BF1DC5BE100F012
:1027F00065F90544761C307800287FF40DAE19B0D9
:102800002846BDE8F08F000009280100303132333E
:10281000343536373839616263646566000000001C
:102820003031323334353637383941424344454606
:1028300000000000600700D4062708F1070020F020
:102840000700F0E80223804603F0004C5FEA0C002A
:1028500001D097A009E0200501D596A005E0E0078A
:1028600001D095A001E0AFF24C001390307823F036
:10287000004365280CD006DC452809D046281DD029
:1028800047287FD13BE0662818D067287AD136E008
:102890000021112F01DB112000E0781CCDE900019F
:1028A00004A90CA8FFF7EEFCDDE90D010C9A4FF02E
:1028B000000B07F10109109200914EE04FF000402B
:1028C0000097CDE9011004A90CA8FFF7DBFCDDE9B6
:1028D0000D020C9B0F994FF0000B91461093009244
:1028E00011B9791C00EB0109B7EB090003D4C0F161
:1028F000FF3B07F10109A9EB0700019042E0012F1E
:1029000000DA01270021112F01DD112000E03846F7
:10291000CDE9000104A90CA8FFF7B4FCDDE90D0125
:102920000C9A00914FF0000BB946109221070FD47A
:10293000009A4A4503DA914601E0A9F10109B9F18B
:10294000010F05DD109AA9F10101515C3029F4D085
:10295000B84202DA10F1040F03DA0121CDE90110C7
:1029600010E0002803DC8344A9EB000102E0411CD5
:10297000494500DD8946A0EB0B00401C01904FF05B
:1029800000400290200705D40198484502DB4FF033
:10299000FF30019000208DF84B0002980DF14B079D
:1029A000B0F1004F25D002200C902B200D90029802
:1029B00000280CDA404202902D200D9007E00A21F9
:1029C0000298FDF7E6FD3031029007F8011D0C99E1
:1029D000481E0C900029F2DC02980028EFD1791EE5
:1029E0000D980870307800F0200040F0450007F89E
:1029F000020D11A8C01BC01D02901398007800B1F1
:102A0000012000EB0901019801EBE07102980144FB
:102A10000398401A401E0390E00306D45346214613
:102A2000179A039800F05CF805441398007818B1E1
:102A30005246179990476D1CE00323D55346214613
:102A4000179A039800F04CF805441BE0BBF1000F07
:102A500007DB0098584504DD1098179910F80B0013
:102A600001E0179930205246904701980BF1010B75
:102A7000401E05F10105019004D12E205246179900
:102A800090476D1CB9F10001A9F10109DEDC05E0F8
:102A900017F8010B5246179990476D1C0299481E72
:102AA00002900029F4DC53462146179A03989EE6CB
:102AB0002D0000002B000000200000002DE9F04157
:102AC000044600251E461746880404D405E039460E
:102AD0002020B0476D1C641EF9D52846BDE8F08162
:102AE0002DE9F041044600251E469046C80301D555
:102AF000302700E02027880404D505E04146384609
:102B0000B0476D1C641EF9D52846BDE8F08110B5AC
:102B100041EC100BFFF784F851EC100B10BD02468E
:102B2000282A07DB482A05DC082903DB282901DCE1
:102B3000012070470020FCE72DE9F0410446E078D1
:102B400000F0C006E07800F03F05607800F001007A
:102B500098B1EF102846E91705EB5171C910A5EBA4
:102B6000C101491C01F0FF080B48006820B10A4868
:102B7000414602683846904700BF607800F0080080
:102B800030B10548406818B1B011034A5168884710
:102B90000020BDE8F08100003834012010B52DED93
:102BA000068B86B0B0EE408AF0EE608A9FEDB60AE2
:102BB000C8EE800A9FEDB51A9FEDB40A00EEC10A77
:102BC000BCEEC00A10EE100AB14908709FEDAE0AC3
:102BD000C8EE000AB3EE081AB3EE080A00EE810A46
:102BE000BCEEC00A10EE100AAA490870A848007886
:102BF000A9490978884209D1A6480078A7490978E7
:102C0000884203D106B0BDEC068B10BD18EE100A49
:102C1000FDF790FC41EC190B18EE900AFDF78AFCC9
:102C200041EC1A0B9B48007804908DED029B98486C
:102C3000007853EC1A2B009099A0FEF717FE9548E8
:102C4000017893480078FFF76AFF00287ED02022A1
:102C50009A499B48FDF724FB8E490978C1F1180079
:102C6000C11700EB5171C910964A1170104690F9C6
:102C70000000002809DA10460078404240B292492C
:102C8000087000201146087002E000208E4908708C
:102C900073E07F480078C0F1380040B28B4908707B
:102CA000084690F90000002809DA084600784042FA
:102CB00040B28749087000208449087002E0002073
:102CC00083490870804890F900000090804890F98E
:102CD00000307C4890F900207C4890F900107DA0DD
:102CE000FEF7C4FD2AE0774890F90000774991F992
:102CF000001001EB00107249085C734991F9001053
:102D0000734A92F9002002EB0111774A515C484066
:102D10006C4991F900106D4A92F9002002EB011103
:102D2000674A505469480078401C40B267490870AF
:102D300067480078401C40B265490870634890F9C4
:102D40000000634991F90010884200E054E003DD7F
:102D50005E4890F9000002E05D4890F900001028FC
:102D6000C1DB58480078401C40B2564908705648AC
:102D70000078401C40B254490870524890F9000055
:102D8000514991F90010884203DD4E4890F9000046
:102D900002E04D4890F900000228FFF67AAF362095
:102DA0003E4A00901478E21704EB5272D1103A4A6E
:102DB0001278521E002A03D4374A1278521E01E0BC
:102DC000354A1278D0B20023122202F077F8202080
:102DD000454B102203210090382002F06FF820208C
:102DE000374910231A46CDE900102A4801782848AF
:102DF000007801F0ADFF2DE03620284A00901478CD
:102E0000E21704EB5272D110234A1278521E002AA4
:102E100003D4214A1278521E01E01F4A1278D0B220
:102E20000023122202F04AF820202F4910231A46CC
:102E3000CDE900101821382001F08AFF20201F4919
:102E400010231A46CDE90010124801781048007886
:102E500001F07EFF0E4800780F4908700D48007899
:102E60000E4908700A480078382807D109480078C8
:102E7000182803D1012000F039F802E0002000F00A
:102E800035F800BFBEE60000000034430000604299
:102E90002E0100202F0100202C0100202D010020F8
:102EA0003E3E252E31663E3E3E25643D3D3D3D2560
:102EB0002E31663E3E3E25640A000000440000209C
:102EC000D006002031010020330100203001002015
:102ED000320100203D3D3D25642025643D3D2564B3
:102EE0002025640A000000006400002010B504469C
:102EF00024B10021A72000F059FD03E00021A62005
:102F000000F054FD10BD38B5044664B120208DF8A2
:102F1000000028208DF8010030208DF802003820B4
:102F20008DF8030004E0A32204216846FDF7CAF9E6
:102F30006A46042140F69E2001F08EFE01F006FB59
:102F400038BD00003EB5044602208DF80000CA20BE
:102F50008DF80100E3208DF8020009208DF80300B0
:102F60006A460421682001F077FEA3208DF8000056
:102F700004F0400048B1C0208DF80100C8208DF851
:102F80000200C2208DF8030006E0A3208DF80100A6
:102F90008DF802008DF8030004F4C07048B1C4201D
:102FA0008DF80400CC208DF80500C6208DF80600B1
:102FB00006E0A3208DF804008DF805008DF80600CA
:102FC000A3208DF807008DF808008DF809006A46E7
:102FD0000A2140F6A72001F03FFE04F0030018B1DB
:102FE00020208DF8000002E0D8208DF800006A460D
:102FF000012140F6B62001F02FFE04F0200018B1A8
:10300000012000F0ADF802E0002000F0A9F804F47F
:10301000C07008B304F4807060B1B2208DF8000075
:103020008B208DF80100B6208DF802009B208DF8D2
:1030300003000BE0B0208DF8000080208DF8010027
:10304000B4208DF8020090208DF803006A46042118
:1030500040F6A22001F000FE04F0010020B3F820A9
:103060008DF800006A4601214FF40B6001F0F4FD79
:10307000FA21072000F0FCFA072000F0C3FA012033
:1030800000F0E3FA642000F0D3FB4FF4FA7000F094
:10309000E2FBC821304800F073FA282000F08CFAD7
:1030A0000A2000F09CFA08E0D8208DF800006A465B
:1030B00001214FF40B6001F0CFFD04F0020018B1C4
:1030C000D9208DF8000002E0D8208DF800006A4673
:1030D000012140F23D7001F0BFFD04F0040018B181
:1030E000012000F069F802E0002000F065F804F02B
:1030F000100018B10120FFF706FF02E00020FFF7E3
:1031000002FF44F008001549488101F01FFA002031
:103110001249887304F0400018B10846807B801D76
:10312000887304F4C07020B10C48807B801D0B496B
:10313000887304F0140020B10848807B10300749E0
:10314000887304F0030020B10448807B001D03490C
:10315000887300203EBD000009E3CA023834012014
:103160003EB504466CB10EA1D1E900208968CDE9D5
:10317000002002916A4609214FF4976001F06CFD2E
:103180003EBD0AA2D2E900109268CDE90102009189
:103190006A4609214FF4976001F05EFDF0E70000F8
:1031A000B8AAB38DB4980D355D000000B8AAAAAADC
:1031B000B088C3C5C700000038B5044664B1C0205C
:1031C0008DF80000C2208DF80100C4208DF80200A7
:1031D000C6208DF8030004E08B2204216846FDF729
:1031E00071F86A46042140F6982001F035FD01F09F
:1031F000ADF938BD10B5C8234FF48062024940F6DE
:10320000F63001F037F810BDAC6F00082DE9F04F33
:103210008DB00746884615469946DDE9166B0024B1
:10322000002030806B49887B5A4605A901F0EEF8F2
:1032300018B1601E0DB0BDE8F08F6648807A00F0CE
:103240001400002867D09DF8140000069DF81510A2
:1032500040EA01409DF8161040EA01209DF8171041
:10326000084328609DF8180000069DF8191040EAF0
:1032700001409DF81A1040EA01209DF81B100843F8
:1032800068609DF81C0000069DF81D1040EA014092
:103290009DF81E1040EA01209DF81F100843A86009
:1032A0009DF8200000069DF8211040EA01409DF89D
:1032B000221040EA01209DF823100843E86004F141
:1032C0001000C4B2286800140190686800140290CD
:1032D000A86800140390E868001404900198404323
:1032E000029901FB0100039901FB0100049901FB14
:1032F000010ABAF1706F02DBBAF1885F05DD01F0F7
:1033000025F900203080401E94E7B6F9000040F413
:103310008070308000BF2F48807A00F0400020B3DA
:1033200005A9601C085C095D40EA012000B2A8F80C
:10333000000005A9E01C095C05AAA01C105C41EA7C
:10334000002000B2A8F8020005A9601D095C201D3C
:10335000105C41EA002000B2A8F80400A01DC4B22D
:10336000B6F9000040F0080030801A48408900F4A7
:10337000C07008B305A9601C085C095D40EA012023
:1033800000B2388005A9E01C095C05AAA01C105CED
:1033900041EA002000B2788005A9601D095C201D6B
:1033A000105C41EA002000B2B880A01DC4B2B6F99A
:1033B000000040F0700030800648807A00F0030082
:1033C00018B105A90819FFF7B7FB484600F0CCFB78
:1033D00000202FE73834012030B585B0044616A20E
:1033E00007CA02AB07C3C82C03DD4FF0FF3005B09E
:1033F00030BDC82090FBF4F0401E85B2280A8DF83D
:103400000000E8B28DF801006A46022140F2162061
:1034100001F022FC10B14FF0FF30E8E702AA0C21C6
:1034200040F6C12001F018FC10B14FF0FF30DEE78C
:10343000044884810020DAE7FEF2ABC4AAF1DFDFA2
:10344000BBAFDFDF3834012010B586B0044647A09B
:103450000068039046A00068029046A000680190B2
:1034600045A00068009004F0030003A9085C8DF8F3
:10347000140003A8C4F3C101405C8DF8150003A833
:10348000C4F38111405C8DF8160004F0030002A91A
:10349000085C8DF8100002A8C4F3C101405C8DF8EF
:1034A000110002A8C4F38111405C8DF8120005AA36
:1034B000032140F2264001F0CFFB18B14FF0FF305E
:1034C00006B010BD04AA032140F22A4001F0C4FB5B
:1034D00010B14FF0FF30F3E7019805900098049089
:1034E00004F0040058B19DF8140040F001008DF87C
:1034F00014009DF8100040F001008DF8100004F059
:10350000200058B19DF8150040F001008DF815001D
:103510009DF8110040F001008DF8110004F4807056
:1035200058B19DF8160040F001008DF816009DF886
:10353000120040F001008DF8120005AA03214FF49B
:10354000886001F089FB10B14FF0FF30B8E704AAA2
:10355000032140F2314001F07FFB10B14FF0FF300A
:10356000AEE7064804810020AAE700004CCD6C00BD
:103570000CC92C00365676002646660038340120E9
:10358000F8B505460E464FF47A7095FBF0F000FB57
:1035900006F4200E8DF80000200C8DF80100200AA2
:1035A0008DF80200E0B28DF803006A4604214FF462
:1035B000AE7001F051FBF8BD38B50446052094FB10
:1035C000F0F084B220128DF80000E0B28DF8010016
:1035D0006A4602214FF4AD7001F03EFB38BD38B5AC
:1035E0000446052094FBF0F084B220128DF8000010
:1035F000E0B28DF801006A4602214FF4AC7001F090
:103600002BFB38BD38B504460020009004F00100C3
:1036100020B19DF8000040F03000009004F002005E
:1036200020B19DF8000040F00C00009004F0040070
:1036300020B19DF8000040F0030000906A4601218F
:103640004FF4A47001F008FB38BD38B50446012CD6
:1036500001DA012402E0042C00DD0424601EC0B263
:1036600000906A46012140F24F1001F0F5FA38BD92
:10367000F0B52DED028B83B006460F4606F007002D
:1036800010B1B7F5C86F05DD4FF0FF3003B0BDECEA
:10369000028BF0BD00EE107AB8EE400ADFED5B0A57
:1036A00080EE208A01A800F0C7FC9DF804000228E3
:1036B00006D0042817D0082828D010284CD138E08C
:1036C0009FED530A28EE000ABCEEC00A10EE100A65
:1036D00084B29FED500A28EE000ABCEEC00A10EE3C
:1036E000100A85B23BE09FED4C0A28EE000ABCEEC2
:1036F000C00A10EE100A84B29FED480A28EE000AB4
:10370000BCEEC00A10EE100A85B228E09FED440A14
:1037100028EE000ABCEEC00A10EE100A84B29FED3B
:10372000410A28EE000ABCEEC00A10EE100A85B26B
:1037300015E09FED3D0A28EE000ABCEEC00A10EE2F
:10374000100A84B29FED390A28EE000ABCEEC00AC6
:1037500010EE100A85B202E04FF0FF3096E700BF8E
:1037600020128DF80800E0B28DF8090028128DF8BB
:103770000A00E8B28DF80B0006F00100A0B102AA21
:1037800002214FF4EA7001F067FA10B14FF0FF30F8
:103790007CE70DF10A0202214FF4927001F05CFA0D
:1037A00010B14FF0FF3071E706F00200A0B102AA9D
:1037B00002214FF4EC7001F04FFA10B14FF0FF30DE
:1037C00064E70DF10A0202214FF4947001F044FA0B
:1037D00010B14FF0FF3059E706F00400A0B102AA83
:1037E00002214FF4EE7001F037FA10B14FF0FF30C4
:1037F0004CE70DF10A0202214FF4967001F02CFA09
:1038000010B14FF0FF3041E700203FE70000484390
:103810000000804600004046000000460000C04511
:103820000000804500004045000000450000C04405
:1038300038B50446052094FBF0F085B228128DF8C7
:103840000000E8B28DF801006A4602214FF4EF70E3
:1038500001F002FA38BD38B50446052094FBF0F0BB
:1038600085B228128DF80000E8B28DF801006A4692
:1038700002214FF4ED7001F0EFF938BD82B0CDE9CF
:10388000000121F0004001909DED000B02B051ECD1
:10389000100B704770B504460D46E1B20548FDF7C0
:1038A000DEFF00BF80210348FDF733FF0128F9D177
:1038B000002070BD0010014010B5002821D0114B30
:1038C0000022001F196803E0814203D80A464968B4
:1038D0000029F9D152B11368841A9C4204D10068BE
:1038E00018441060104602E0506000E0186039B1E2
:1038F00002680B1A934203D10B681A4402604968AC
:10390000416010BDC402002000B587B00121022033
:10391000FDF762FC01214805FDF76EFC00200590D3
:103920000690C020059002208DF8180001208DF827
:103930001A0003208DF8190001208DF81B0005A93D
:103940001748FDF739F9042206211548FDF77CF9DF
:10395000042207211248FDF777F900200190029018
:10396000039004904FF48060ADF80E000001ADF8B4
:1039700010000C4801904BF6FF70ADF80A000020D3
:10398000ADF808000120ADF80C0001A90648FDF7CC
:10399000E3F901210448FDF79DF907B000BD0000DF
:1039A00000040240801A06000054004070B504462E
:1039B0000D4601211948FDF799F900BF184917482C
:1039C000FDF773F90128F9D1002278211348FDF79A
:1039D0003BFA00BF13491148FDF767F90128F9D1F7
:1039E00029460E48FDF738FA00BF0E49891E0B48DC
:1039F000FDF75BF90128F8D121460848FDF72CFABC
:103A000000BF0849891E0548FDF74FF90128F8D184
:103A100001210248FDF776F970BD00000054004016
:103A2000010003008200070010B50446204600F0A4
:103A30000FF80346E01C00F00BF843EAC00083B225
:103A4000A01D00F005F843EA801083B2184610BDAF
:103A5000014691F90020002A01DD00201EE091F9C5
:103A60000020002A01DA042018E091F90120002A40
:103A700001DD012012E091F90120002A01DA052080
:103A80000CE091F90220002A01DD022006E091F904
:103A90000220002A01DA062000E00720704700001B
:103AA0000EB54FF41650FDF70DFB0BA0FDF7DEFE33
:103AB00042F2107002F014FC0020029002A80421CF
:103AC00000230A02CDE9001008A10B4802F0BCFF58
:103AD00002F06EFB00BFFEE77374617274206166D2
:103AE00074657220746861740A000000616C6C5F18
:103AF000696E6974000000003D0A0008F0B50B30E3
:103B0000154D20F007010024144A0FE003688B4292
:103B10000BD38B4205D95E1A43184768C3E9006787
:103B200000E04368136002C004E0021D1068002832
:103B3000ECD12046002802D1286808B10020F0BD51
:103B4000064A07481060074A121A22F00702C0E925
:103B5000002401202860D7E7C8020020C40200200A
:103B60004C34012048360120704700007CB50446E3
:103B70009FED1E0A84ED000A9FED1C0A84ED010AE8
:103B8000002520E000BF1A481A491B4B1B4ACDE90B
:103B900000101B491B4800F06FF80028F3D194ED8A
:103BA000000A1848D0ED000A30EE200A84ED000A21
:103BB00094ED010A1248D0ED000A30EE200A84ED9F
:103BC000010A681CC5B2142DDCDB94ED000AF3EE8B
:103BD000040A80EE201A84ED001A94ED010AF3EE37
:103BE000040A80EE201A84ED011A7CBD000000005A
:103BF000400000203C00002038000020340000205D
:103C0000300000202C00002070B50446002624F06F
:103C10000104184890F8240008B1002070BD154830
:103C2000807A10B94FF0FF30F8E71248057C807AAF
:103C30002040104908740846007CA04202D04FF092
:103C4000FF3600E0002614B90A48007D18B10120B3
:103C500001F0EEFE02E0002001F0EAFE3CB100F0CF
:103C600075FC20B1034805744FF0FF30D6E73046AD
:103C7000D4E70000880200202DE9F0432DED0C8BE5
:103C80008DB004460D4691461E46DDE92078B7EE1C
:103C9000000AB0EE409A9FED6F0AB0EE408A9FEDA9
:103CA0006D0AF0EE408A9FED6B0AF0EE409A06A88E
:103CB00007A90CAB02AACDE9001008A90AA8FFF7D2
:103CC000A5FA28B101200DB0BDEC0C8BBDE8F08346
:103CD000BDF81C0000F00800B8B1BDF9200000EEEE
:103CE000100AB8EEC00A86ED000ABDF9220000EE07
:103CF000100AB8EEC00A87ED000ABDF9240000EEF4
:103D0000100AB8EEC00A88ED000ABDF81C0000F4E5
:103D1000807000287ED09DED020AB8EEC00ADFED6B
:103D20004E0A80EE201AB0EE419A9DED030AB8EEDD
:103D3000C00ADFED490A80EE201AB0EE418A9DEDFF
:103D4000040AB8EEC00ADFED440A80EE201AF0EE55
:103D5000418A9DED050AB8EEC00ADFED3F0A80EE0C
:103D6000201AF0EE419AB8EE000A28EE000A20EE82
:103D7000290AF0EE000A69EE200A00EEA80A10EE09
:103D8000101A0846FCF7D6FB41EC1C0BB0EE4C0AAF
:103D9000F0EE6C0AFDF794FDB0EE40BAF0EE60BABA
:103DA0009FED2E0B53EC102B51EC1B0BFCF750FB33
:103DB00041EC1A0BFCF7D1FB2060B8EE000A28EEAC
:103DC000000A20EE080AF0EE000A68EEA00A00EEF3
:103DD000E80AF7EE000A30EE200A10EE101A084644
:103DE000FCF7A8FB41EC1C0BB0EE000A28EE800AA1
:103DF00020EE290AF0EE000A69EE200A00EE880A99
:103E000010EE101A0846FCF795FB41EC1D0BB0EEC6
:103E10004C1A00E019E0F0EE6C1AB0EE4D0AF0EE2C
:103E20006D0AFEF769F8B0EE40BAF0EE60BA9FEDA9
:103E30000B0B53EC102B51EC1B0BFCF709FB41EC6B
:103E40001A0BFCF78AFB286001E002203BE7002008
:103E500039E70000000000000000804E66666666DC
:103E600066A64C4070B50024FCF7F8FF31A0FDF7C2
:103E7000FDFC00F007F9002859D1782000F084FEFD
:103E8000C4B20CB1012070BD2FA0FDF7EFFC78206B
:103E9000FFF7BAFEC4B20CB10220F4E730A0FDF780
:103EA000E5FC642000F022FEC4B20CB10320EAE776
:103EB00032A0FDF7DBFCFFF79DF9C4B20CB1042082
:103EC000E1E735A0FDF7D2FC3C48FFF7ADFD054624
:103ED000FFF7BAFAC4B20CB10520D4E738A0FDF759
:103EE000C5FC40F27310FFF72DF8C4B20CB10620E8
:103EF000C9E73AA0FDF7BAFC6420FFF76DFAC4B237
:103F00000CB10720BFE73BA0FDF7B0FC3FA0FDF7D9
:103F1000ADFC012000F0E6FCC4B24FF47A7001F071
:103F2000EDFF0CB10920AEE73DA0FDF79FFC00209E
:103F3000A9E7000069696320696E6974207375637D
:103F4000636573730A0000007365742073656E7394
:103F50006F727320737563636573730A00000000EA
:103F600073657420636F6E66696775726520666934
:103F7000666F20737563636573730A0073657420DD
:103F800073616D706C652072617465207375636315
:103F90006573730A000000006C6F6164206D6F74BC
:103FA000696F6E20647269766572206669727761E6
:103FB000726520737563636573730A00B402002031
:103FC000736574206F7269656E746174696F6E20B9
:103FD000737563636573730A000000007365742072
:103FE0006665617475726520737563636573730AC2
:103FF00000000000736574206669666F207261744A
:104000006520737563636573730A000073656C667E
:10401000207465737420737563636573730A00009D
:1040200073657420646D702073746174652073759A
:1040300063636573730A000001461148407A30B12A
:10404000012807D0022808D003280CD108E002205C
:1040500008700BE00420087008E00820087005E0F4
:104060001020087002E04FF0FF30704700BF044896
:10407000C07C18B108784006000E08700020F4E7F4
:10408000880200201CB580208DF80000654A126867
:10409000917C644A526810786B460122FCF7C6FF97
:1040A00010B14FF0FF301CBD642001F027FF00204D
:1040B0008DF800005B4A1268917C5A4A5268107869
:1040C0006B460122FCF7B2FF10B14FF0FF30EAE778
:1040D000544A1268917D534A526810786B46062202
:1040E000FCF730FF10B14FF0FF30DCE79DF8050022
:1040F000C007400F9DF8031001F0010140EA4100A4
:104100009DF8011001F0010140EA010494B1012C75
:1041100003D101214348C17431E0022C03D10021B5
:104120004048C1742BE021463FA0FDF79FFB4FF0B4
:10413000FF30B8E73B4A1268D1783A4A52681078A3
:104140006B460122FCF7FEFE10B14FF0FF30AAE7EC
:104150009DF8000000F00F042CB93D48FDF786FBE8
:104160004FF0FF309FE7042C06D13AA0FDF77EFB0D
:1041700001212C48C17402E000212A48C174FF21AA
:1041800028488172FF2027490872FF212548417283
:10419000C1724FF6FF71C181FF2101748174012149
:1041A000017380F82210002180F8231041750175F9
:1041B0001630016041608160163880F8241080F864
:1041C0002510C1844FF4FA6000F0D4FB10B14FF019
:1041D000FF3068E7022000F09DFA10B14FF0FF3089
:1041E00061E72A2000F040FC10B14FF0FF305AE7A1
:1041F000322000F07BFC10B14FF0FF3053E700207D
:10420000FFF702FD10B14FF0FF304CE7002000F047
:10421000C3FA10B14FF0FF3045E7002000F0B4FCC6
:10422000002040E788020020556E737570706F7231
:1042300074656420736F6674776172652070726F45
:1042400064756374207265762025642E0A00000070
:10425000987C000848616C662073656E73697469A8
:1042600076697479207061727420666F756E642E41
:104270000A0000002DE9F04385B005460E46904641
:104280009946294890F8250020B14FF0FF3005B03D
:10429000BDE8F08316B94FF0FF30F8E7002423E0C3
:1042A000281B102801DD102000E0281B87B23219DE
:1042B0003946204600F0D0FC10B14FF0FF30E6E761
:1042C00001AA3946204600F001F910B14FF0FF3045
:1042D000DDE730193A4601A9FCF706F810B16FF096
:1042E0000100D4E7E01984B2AC42D9DB4FEA2820C0
:1042F0008DF8000008F0FF008DF801000A4A1268EE
:10430000917E094A526810786B460222FCF78EFEB5
:1043100010B14FF0FF30BAE70121034880F82510B3
:10432000A0F826900020B2E78802002038B50446A5
:10433000282C02DD4FF0FF3038BDDCB9002000F042
:104340005DFB00208DF8000007208DF801002E4A4B
:104350001268917C2C4A526810786B460222FCF756
:1043600065FE10B14FF0FF30E6E7002126480175E9
:104370000020E1E7012000F041FB20208DF8000043
:10438000012C06D100208DF80100052000F06CFB07
:1043900017E0052C06DC01208DF80100052000F057
:1043A00063FB0EE0142C06DC02208DF801000A20CD
:1043B00000F05AFB05E003208DF80100142000F006
:1043C00053FB9DF80100072101EB8010C0B28DF86E
:1043D00001000D4A1268917C0B4A526810786B46B6
:1043E0000222FCF723FE10B14FF0FF30A4E70821B2
:1043F0000548817200210173012101750020FFF73A
:1044000003FC002098E7000088020020F8B504466D
:104410000F4616462C4890F8240010B94FF0FF3094
:10442000F8BD2948807A10B94FF0FF30F8E7264AE6
:104430001268917A244A526810786B460222FCF77F
:1044400081FD10B14FF0FF30EAE79DF801009DF8C3
:10445000001040EA0125A54203DA00203070401E1A
:10446000DEE7194840684088B5EB600F17DD164A53
:104470001268517C144A526810786B460122FCF78E
:1044800061FD10B14FF0FF30CAE79DF8000000F069
:10449000100020B100F05AF86FF00100C0E7E2B25E
:1044A000094B1B68D97A084B5B6818783B46FCF7C8
:1044B00049FD10B14FF0FF30B2E795FBF4F0401E1C
:1044C00030700020ACE7000088020020F8B50446F8
:1044D0000D46164616B94FF0FF30F8BD1A48807ADF
:1044E00010B94FF0FF30F8E720128DF80000E0B26D
:1044F0008DF801009DF80100284413494968498955
:10450000884202DD4FF0FF30E7E70F4A1268117E64
:104510000D4A526810786B460222FCF787FD10B1F5
:104520004FF0FF30D9E7EAB2074B1B68597D064BC5
:104530005B6818783346FCF705FD10B14FF0FF308B
:10454000CBE70020C9E700008802002008B57048CA
:10455000807A10B94FF0FF3008BD002000906C4AFF
:104560001268D17B6A4A526810786B460122FCF7C8
:104570005DFD10B14FF0FF30EEE7654A12685179EA
:10458000634A526810786B460122FCF74FFD10B168
:104590004FF0FF30E0E75E4A126811795C4A5268DA
:1045A00010786B460122FCF741FD10B14FF0FF304F
:1045B000D2E7574890F82400002853D00C200090F0
:1045C000534A12681179524A526810786B46012298
:1045D000FCF72CFD10B14FF0FF30BDE7322001F0A9
:1045E0008DFCC02000904A48807A00F0010020B184
:1045F0009DF8000040F020000090454A12681179B3
:10460000434A526810786B460122FCF70FFD10B147
:104610004FF0FF30A0E73E48407C10B102200090F0
:1046200001E0002000903A4A1268D17B384A526873
:1046300010786B460122FCF7F9FC10B14FF0FF3007
:104640008AE700200090324A12685179304A526855
:1046500010786B460122FCF7E9FC002855D04FF09A
:10466000FF3079E704200090294A12681179284A1E
:10467000526810786B460122FCF7D8FC10B14FF05D
:10468000FF3069E72248807C20B92148807A00F019
:10469000010010B94020009001E0602000901C4A09
:1046A000126811791A4A526810786B460122FCF799
:1046B000BDFC10B14FF0FF304EE7322001F01EFC80
:1046C0001348407C10B10120009001E000200090D0
:1046D0000F4A1268D17B0E4A526810786B4601224D
:1046E000FCF7A4FC10B14FF0FF3035E7084A126820
:1046F0005179074A52681078054B10330122FCF7B4
:1047000095FC10B14FF0FF3026E7002024E70000B1
:104710008802002038B504461E48807A10B94FF050
:10472000FF3038BD022C06D0042C07D0082C08D04E
:10473000102C0CD108E0002000900BE00820009025
:1047400008E01020009005E01820009002E04FF0F3
:10475000FF30E6E700BF0F48407A9DF80010B0EB4D
:10476000E10F01D10020DCE70A4A1268D179094A39
:10477000526810786B460122FCF758FC10B14FF0DC
:10478000FF30CEE79DF80000C110024841720020C2
:10479000C7E700008802002038B504465048807CF6
:1047A000A04201D1002038BD002C46D04C4A1268EE
:1047B00011794B4A526810786B460122FCF7C2FB14
:1047C00010B14FF0FF30EEE79DF8000020F0200020
:1047D0000090434A12681179414A526810786B463A
:1047E0000122FCF723FC10B14FF0FF30DBE7032080
:1047F00001F084FB02200090394890F8220020B19B
:104800009DF8000040F080000090354890F82300AB
:1048100020B19DF8000040F030000090304A12684E
:10482000117D2F4A526810786B460122FCF7FEFB7F
:10483000002851D04FF0FF30B5E7294A12681179AE
:10484000274A526810786B460122FCF77BFB10B1B7
:104850004FF0FF30A7E72248807A00F0010028B12E
:104860009DF8000040F02000009004E09DF800005A
:1048700020F0200000901A4A12681179184A5268F4
:1048800010786B460122FCF7D1FB10B14FF0FF30DE
:1048900089E7032001F032FB114890F8220010B1A3
:1048A0008020009001E0002000900D4890F8230047
:1048B00020B19DF8000040F030000090084A1268D6
:1048C000117D074A526810786B460122FCF7AEFB57
:1048D00010B14FF0FF3066E701488474002062E7B2
:1048E0008802002038B50446214890F82400A042F0
:1048F00001D1002038BD24B31D4890F8250010B91F
:104900004FF0FF30F6E7002001F092F80020FFF7AB
:1049100043FF1749C88C00F0E9F8002000901449C3
:10492000496808786B4601222321FCF77FFB0121AF
:104930000F4880F82410012001F07AF8FFF706FEF6
:1049400013E0002001F074F80948007C0090084949
:10495000496808786B4601222321FCF767FB002198
:10496000034880F82410FFF7F1FD0020C2E70000A3
:104970008802002038B504461F48807A10B94FF0ED
:10498000FF3038BDFA2C09D0B4F5FA7F09D0B4F560
:104990007A7F09D0B4F5FA6F0CD108E000200090BE
:1049A0000BE00820009008E01020009005E018209F
:1049B000009002E04FF0FF30E3E700BF0E48007ABE
:1049C0009DF80010B0EBE10F01D10020D9E70A4AB1
:1049D00012689179084A526810786B460122FCF7F8
:1049E00025FB10B14FF0FF30CBE79DF80000C01061
:1049F000014908720020C4E78802002038B5044647
:104A0000184890F82300A04201D1002038BD14B10D
:104A10003020009001E0002000901248807C20B1FE
:104A20009DF8000040F0020000900E4890F822002F
:104A300020B19DF8000040F080000090094A126803
:104A4000117D084A526810786B460122FCF7EEFA95
:104A500010B14FF0FF30D9E7024880F82340002022
:104A6000D4E700008802002038B504461E48807A4A
:104A700010B94FF0FF3038BDBC2C02DB0120009094
:104A800015E0622C02DB0220009010E02A2C02DBF1
:104A9000032000900BE0142C02DB0420009006E0C1
:104AA0000A2C02DB0520009001E0062000900E4851
:104AB000C07A9DF80010884201D10020DBE70A4A45
:104AC00012689178084A526810786B460122FCF708
:104AD000ADFA10B14FF0FF30CDE79DF8001002485D
:104AE000C1720020C7E700008802002038B50446E4
:104AF0002448807A10B94FF0FF3038BD214890F833
:104B0000240010B14FF0FF30F7E71E48007D50B190
:104B100034B1282C04DCE0B2FFF708FC0020ECE7FD
:104B20000020FFF703FC042C01DA042404E0B4F5B0
:104B30007A7F01DD4FF47A744FF47A7090FBF4F0D1
:104B4000401EC0B200900F4A126851780D4A526858
:104B500010786B460122FCF769FA10B14FF0FF3074
:104B6000CBE79DF80000401C4FF47A7191FBF0F008
:104B700081B20448C1810146C9894810FFF774FF1A
:104B80000020BAE78802002038B5044604F070001F
:104B900010B10120009005E014B10020009001E068
:104BA000402000902B4A1268917C2A4A5268107863
:104BB0006B460122FCF73AFA20B1002125488172A8
:104BC000481E38BD9DF8000020F0400121480173C7
:104BD0000020009004F0400020B99DF8000040F053
:104BE0000400009004F0200020B99DF8000040F07F
:104BF0000200009004F0100020B99DF8000040F081
:104C00000100009004F0080020B99DF8000040F079
:104C1000380000900F4A1268D17C0E4A5268107812
:104C20006B460122FCF702FA20B10021094881728B
:104C3000481EC6E724B1082C02D00020FFF7DEFE94
:104C40000448847200210175322001F057F90020D8
:104C5000B7E7000088020020F8B504460D46164666
:104C600016B94FF0FF30F8BD1A48807A10B94FF0EE
:104C7000FF30F8E720128DF80000E0B28DF8010057
:104C80009DF801002844134949684989884202DD9A
:104C90004FF0FF30E7E70F4A1268117E0D4A526865
:104CA00010786B460222FCF7C1F910B14FF0FF30CB
:104CB000D9E7EAB2074B1B68597D064B5B68187849
:104CC0003346FCF7B3F910B14FF0FF30CBE70020CB
:104CD000C9E700008802002010B504462CB14FF44B
:104CE00080610748FBF7F5FA06E04FF0FF324FF41A
:104CF00080610348FBF7E6FA00F004F810BD0000FD
:104D0000D002002070B500241CE004F1B001C8B24C
:104D10000021FEF74BFE00210846FEF747FE00216A
:104D20001020FEF743FE002508E0084901EBC411FE
:104D3000485D4021FEF73AFE681CC5B2802DF4DBC9
:104D4000601CC4B2082CE0DB70BD0000D002002063
:104D50002DE9FC5F07460C4615469846DDE90C6BCD
:104D6000F6B908F10800C11700EB5171C91001FB39
:104D700005F94846FEF7C2FE824649465046FBF713
:104D8000A8FA1FFA89F043462A462146CDE900A039
:104D90003846FFF7DDFF5046FEF78EFDBDE8FC9F6D
:104DA0002046E11704EB5171C910A4EBC1013E4A42
:104DB0001170E11704EB5171C1F3C7013B4A117047
:104DC00004EB0800C11700EB5171C1F3C701384A69
:104DD00011700020374908705DE034490978334A82
:104DE0001278521C314B1A70B031C8B20021FEF754
:104DF000DDFD07F00F000021FEF7D8FD102141EA8C
:104E000017100021FEF7D2FD00202B4908703EE06C
:104E100028480078A8420ADA26490978715C224AB3
:104E200012789140C8B24021FEF7C0FD25E021482C
:104E30000078584514DA1F490978491B715C1A4AF1
:104E40001278C2F1080211411A4A1278B25C164B6C
:104E50001B789A401143C8B24021FEF7A7FD0CE031
:104E600014490978491B715C0F4A1278C2F1080293
:104E700041FA02F04021FEF799FD0F480078401CEE
:104E80000D4908700B480078401C0A4908700A4810
:104E90000078A842BCDB05480078054909788842BB
:104EA0009BDD00BF7AE700002401002025010020DF
:104EB0002601002027010020280100202DE9F047CD
:104EC00005460F4690461E46DDF82090002424E05B
:104ED00094FBF8F008FB104090B939467A1CD7B221
:104EE000B031C8B20021FEF761FD05F00F000021CE
:104EF000FEF75CFD102141EA15100021FEF756FD7A
:104F000026B940210020FEF751FD04E0305D40212C
:104F1000FEF74CFD00BF601CC4B24C45D8DBBDE8B9
:104F2000F08700002DE9F04105460E461C48076851
:104F30001C480068001D00F07CFE50B9194800684C
:104F400090F82C10012088401749096881431648C1
:104F50000160681C38B936B112480168091D134850
:104F600000F0A5FE1AE07C190E4800684460BC42BF
:104F700007D20C480168091D0D48006800F07DFE4D
:104F80000CE008480168091D0A48006800F075FE39
:104F900009480068844201D207480460BDE8F081F6
:104FA00048010020340100204C010020E4070020CB
:104FB0003C010020380100206401002010B50446A7
:104FC00000F082FE24480068401C23490860234802
:104FD000006840B9214804600846006801280DD1E6
:104FE00000F0DEF90AE01E48006838B91B48006886
:104FF000C06AE16A884201D818480460194800680C
:10500000401C1849086008460068206494F82C1079
:105010000120884014490968084313490860E16A7F
:1050200001EB8101114A02EB8100211D00F03FFEDE
:1050300000F074FE0A48006868B108480068C06A59
:10504000E16A884207D24FF0805009490860BFF3F7
:105050004F8FBFF36F8F10BD44010020340100203B
:1050600050010020600100204C010020300700208A
:1050700004ED00E010B500F027FE10480068D0B93C
:105080000F4800F0EAFD0F4800F0E7FD0C480E491C
:1050900008600C480D49086000220C210A2001F02C
:1050A000E3F9064908600846006820B108A10348F2
:1050B000006800F0E7FE00F031FE10BD780100202E
:1050C000F80700200C080020700100207401002067
:1050D000546D72510000000070B523E001F0B2F889
:1050E0001348006808B9012000E00020054601F0DF
:1050F00045FEBDB900F0E8FD0D48C068C468201D3C
:1051000000F097FD0B480068401E0A4908600A48F5
:105110000068401E0849086000F000FE204600F0CC
:1051200060F800BF044800680028D7D170BD0000B7
:10513000D0070020440100204001002070B5044643
:105140000D46206C70B1216CE0680844E060616835
:10515000E068884201D32068E0602846226CE1685C
:10516000FBF79EF870BD2DE9F04104460F46154649
:105170004FF00008A66B206C40B9206860BB6068E7
:1051800001F04CFD80460020606025E07DB9394685
:10519000226CA068FBF784F8216CA0680844A0602A
:1051A000D4E90110884217D32068A06014E0394682
:1051B000226CE068FBF774F8216CE068401AE0604C
:1051C0002168E068884203D2216C6068401AE06080
:1051D000022D01D106B1761E701CA0634046BDE8C9
:1051E000F08110B50446206B00F0B6FD204600F0BB
:1051F000B3FD10BD0146084A126812680AB90122BF
:1052000000E000220A600A6822B9034A1268D268E4
:10521000106800E0002070477001002030B54FF4A6
:105220009633174800F007042CB1C01D20F007008A
:10523000134C041B1B1B0246124C22600024114D10
:105240006C60D018083820F007000F4C2060002454
:105250000D4D2D686C600C4D2D682C601146441A64
:105260004C60094C24680C60084D4C682C60084D5B
:105270004C682C604FF00044064D2C6030BD00009F
:10528000200800209001002098010020A0010020AB
:105290009C010020A401002000BFFFF71DFF06486D
:1052A00000680128F9D94FF0805004490860BFF325
:1052B0004F8FBFF36F8FF0E73007002004ED00E061
:1052C0002DE9F04106460D4617469846069C0DB955
:1052D000246000E02760E66325640121204601F098
:1052E000D1F984F84C80BDE8F0812DE9F05F824669
:1052F0000F4690469B460A9E0C9C4FEA8801A522C9
:10530000206BFAF7DFFFA8F10100216B01EB8009A8
:1053100029F0070909F0070008B9012000E0002082
:1053200050B900BF502080F31188BFF34F8FBFF3F7
:105330006F8F00BF00BFFEE7002507E0795D04F135
:1053400034004155785D00B902E06D1C0A2DF5D39B
:1053500000BF00213D200155052E00D30426E66242
:10536000A6640020E064201D00F084FC04F1180015
:1053700000F080FC2461C6F10500A0616462002099
:10538000206584F854005A465146484600F03AFBDE
:1053900020600B9808B10B980460BDE8F09F0000F6
:1053A00010B5002407E004EB84010F4A02EB8100F2
:1053B00000F053FC641C052CF5D30C4800F04DFCA8
:1053C0000B4800F04AFC0B4800F047FC0A4800F08C
:1053D00044FC0A4800F041FC0448094908600448BC
:1053E0000849086010BD0000300700209407002025
:1053F000A8070020BC070020D0070020E4070020F9
:10540000380100203C01002010B50146164800E09C
:10541000006803688B42FBD30246436813448B4207
:1054200004D143684C682344436001460A464B68F4
:1054300013440468A34211D10C4C03682468A342AE
:1054400008D04B680468646823444B6003681B6899
:105450000B6005E0054B1B680B6001E003680B6007
:10546000884200D0016010BD90010020980100200A
:105470002DE9F04104460D4616461F464FF0000840
:1054800065602461B5420CD8F01BA169884202D343
:105490004FF0010811E0211D0948006800F0EDFB04
:1054A0000BE0BE4204D2BD4202D34FF0010804E03B
:1054B000211D0448006800F0E0FB4046BDE8F08193
:1054C000740100207001002070B5054600F0FCFB5F
:1054D000A86B08B9012400E0002400F01FFC20465E
:1054E00070BD70B5054600F0EFFBA86BE96B884214
:1054F00001D1012400E0002400F010FC204670BD22
:10550000F8B505460F4616480068C068C468201DF7
:1055100000F08FFBE06901281DD1A06941192B46DD
:105520003A462046FFF7A4FFA8B1002003462A46CA
:1055300001460090204601F0CFFC064656B900BF58
:10554000502080F31188BFF34F8FBFF36F8F00BFE0
:1055500000BFFEE700BF2046616A8847F8BD000033
:105560007001002070B586B06AE00398002867DB00
:10557000059C606908B9012000E0002010B9201DD9
:1055800000F057FB02A800F0BDF8054603980A2872
:1055900054D2DFE800F009050731334F06083234F2
:1055A00000BF00BF00BF00BF0498A2698118034676
:1055B0002A462046FFF75CFFE8B12046616A88472B
:1055C000E069012817D1002000900498A1694218D1
:1055D00000231946204601F07FFC064656B900BF5D
:1055E000502080F31188BFF34F8FBFF36F8F00BF40
:1055F00000BFFEE700BF22E000BF20E000BF04982C
:10560000A061A06908B1012000E0002050B900BFEE
:10561000502080F31188BFF34F8FBFF36F8F00BF0F
:1056200000BFFEE7A06941192B462A462046FFF736
:105630001FFF04E0204600F08FFB00E000BF00BF2A
:1056400000231A4603A90448006800F039FF002827
:105650008BD106B070BD000078010020F8B505467A
:105660000C4600F0EFFD684600F04CF80646009846
:1056700020BB44B9B54206D801F080FB314628462C
:10568000FFF73EFF1CE03CB10E480068006808B917
:10569000012000E000200446A91B22460A480068B9
:1056A00000F006FC01F06AFB50B94FF0805007494A
:1056B0000860BFF34F8FBFF36F8F01E001F05EFB17
:1056C000F8BD0000740100207801002004ED00E026
:1056D0000A490968096809B9012100E0002121B1DE
:1056E0004FF0FF31064A116006E004490968C968B5
:1056F000C868034A41681160704700003801002003
:105700006401002070B5044601F0DEF90546074843
:105710000068854204D200F00BF80120206001E00F
:105720000020206001480560284670BD80010020EF
:105730002DE9F84332E024480068C0680568224833
:105740000068C068C468201D00F073FA2046616AD2
:105750008847E069012821D1A0694619AE4207D9DE
:1057600066602461211D1848006800F086FA15E083
:10577000002003462A4601460090204601F0ACFB7B
:10578000074657B900BF502080F31188BFF34F8FF1
:10579000BFF36F8F00BF00BFFEE700BF0A4800687D
:1057A000006808B9012000E000200028C3D00648A6
:1057B000D0F8008005480068034908600348C0F835
:1057C0000080BDE8F8830000700100207401002013
:1057D0000E480068401C08B9012000E0002050B9C4
:1057E00000BF502080F31188BFF34F8FBFF36F8F3E
:1057F00000BF00BFFEE700BF502080F31188BFF359
:105800004F8FBFF36F8F00BF00BFFEE78401002002
:1058100008B500BF6846FFF7EDFC04462046009936
:10582000FFF71CFFFFF79EFEF4E770B5044600F09B
:105830004BFA94F9455010E0606A08B9012000E085
:10584000002038B904F1240001F04CFA18B100F03E
:10585000FDFB00E003E0681E45B2002DECDC00BF5C
:10586000FF2084F8450000F059FA00F02DFA94F971
:10587000445010E0206908B9012000E0002048B938
:1058800004F1100001F02EFA08B100F0DFFB681EF1
:1058900045B200E001E0002DECDC00BFFF2084F801
:1058A000440000F03BFA70BD2DE9F04104464FF092
:1058B000000800F0C7FC4648006808B9FFF7AEFCD6
:1058C00044480068204000286BD1D4B1083404F06B
:1058D0000700B0B104F00700C0F10800044404F070
:1058E000070008B9012000E0002050B900BF502097
:1058F00080F31188BFF34F8FBFF36F8F00BF00BFDE
:10590000FEE7002C4DD034480068844249D8334E1D
:105910003046056801E02E462D686868A04202D234
:1059200028680028F7D12A480068854239D03068B5
:1059300000F10808286830606868001B102819D931
:105940002F1907F0070008B9012000E0002050B926
:1059500000BF502080F31188BFF34F8FBFF36F8FCC
:1059600000BF00BFFEE76868001B78606C603846C7
:10597000FFF74AFD184968680968081A164908605F
:105980000846006816490968884203D21248006830
:10599000134908600F496868096808436860002077
:1059A000286001F0EBF908F0070008B9012000E0D9
:1059B000002050B900BF502080F31188BFF34F8FF3
:1059C000BFF36F8F00BF00BFFEE74046BDE8F08128
:1059D00098010020A40100209C01002090010020DB
:1059E000A00100200648006830B10549096801F1AE
:1059F0004C00C96C491C01600148006870470000F8
:105A000034010020001F4FF080730360001F21F05D
:105A100001030360001F054B036014380260001F80
:105A20006FF002030360203870470000D157000870
:105A300038B50446214890F82400C0B114B10220C2
:105A4000009001E0002000901C4A1268D17B1B4AA4
:105A5000526810786B460122FBF7E8FA10B14FF05C
:105A6000FF3038BD9DF800101448417423E01348FE
:105A7000807A10B94FF0FF30F3E724B10F48407C33
:105A800008B10020EDE714B10120009001E00020F2
:105A900000900A4A1268D17B084A526810786B4617
:105AA0000122FBF7C3FA10B14FF0FF30D9E79DF8A0
:105AB0000010024841740020D3E700008802002053
:105AC00000B52DED048B83B041EC190BFAF736FFCE
:105AD00041EC180B18EE100A18EE901A8DED008BA1
